{"contracts/cygnus-harvesters/CompHarvester.sol":{"CompoundHarvester":{"abi":[{"inputs":[{"internalType":"contract IHangar18","name":"_hangar18","type":"address"}],"stateMutability":"nonpayable","type":"constructor"},{"inputs":[],"name":"CygnusHarvester__DstReceiverNotValid","type":"error"},{"inputs":[],"name":"CygnusHarvester__DstTokenNotValid","type":"error"},{"inputs":[],"name":"CygnusHarvester__HarvestRewardTooHigh","type":"error"},{"inputs":[],"name":"CygnusHarvester__HarvesterNotSet","type":"error"},{"inputs":[],"name":"CygnusHarvester__MsgSenderNotAdmin","type":"error"},{"inputs":[],"name":"CygnusHarvester__OnlyEOAAllowed","type":"error"},{"inputs":[],"name":"CygnusHarvester__ParaswapTransactionFailed","type":"error"},{"inputs":[],"name":"CygnusHarvester__RewardTokenAlreadyAdded","type":"error"},{"inputs":[],"name":"CygnusHarvester__RewardTokenNotAdded","type":"error"},{"inputs":[],"name":"CygnusHarvester__SimpleHarvestNotEnabled","type":"error"},{"inputs":[],"name":"CygnusHarvester__SrcTokenNotValid","type":"error"},{"inputs":[],"name":"CygnusHarvester__X1VaultRewardTooHigh","type":"error"},{"inputs":[],"name":"ReentrantCall","type":"error"},{"anonymous":false,"inputs":[{"indexed":false,"internalType":"uint256","name":"timestamp","type":"uint256"},{"indexed":false,"internalType":"address","name":"sender","type":"address"},{"indexed":false,"internalType":"uint256","name":"tokensLength","type":"uint256"}],"name":"CygnusX1VaultCollect","type":"event"},{"anonymous":false,"inputs":[{"indexed":false,"internalType":"address","name":"terminal","type":"address"},{"indexed":false,"internalType":"address","name":"underlying","type":"address"},{"indexed":false,"internalType":"address","name":"wantToken","type":"address"},{"indexed":false,"internalType":"address","name":"receiver","type":"address"}],"name":"NewHarvester","type":"event"},{"anonymous":false,"inputs":[{"indexed":false,"internalType":"uint256","name":"oldWeight","type":"uint256"},{"indexed":false,"internalType":"uint256","name":"newWeight","type":"uint256"}],"name":"NewHarvesterWeight","type":"event"},{"anonymous":false,"inputs":[{"indexed":false,"internalType":"uint256","name":"oldWeight","type":"uint256"},{"indexed":false,"internalType":"uint256","name":"newWeight","type":"uint256"}],"name":"NewX1VaultWeight","type":"event"},{"anonymous":false,"inputs":[{"indexed":false,"internalType":"address","name":"token","type":"address"},{"indexed":false,"internalType":"uint256","name":"length","type":"uint256"}],"name":"RewardTokenAdded","type":"event"},{"anonymous":false,"inputs":[{"indexed":false,"internalType":"address","name":"token","type":"address"},{"indexed":false,"internalType":"uint256","name":"length","type":"uint256"}],"name":"RewardTokenRemoved","type":"event"},{"anonymous":false,"inputs":[{"indexed":false,"internalType":"bool","name":"_simpleHarvest","type":"bool"}],"name":"SimpleHarvestSwitch","type":"event"},{"stateMutability":"payable","type":"fallback"},{"inputs":[],"name":"ONE_INCH_ROUTER_V5","outputs":[{"internalType":"address","name":"","type":"address"}],"stateMutability":"view","type":"function"},{"inputs":[{"internalType":"address","name":"rewardToken","type":"address"}],"name":"addRewardToken","outputs":[],"stateMutability":"nonpayable","type":"function"},{"inputs":[{"internalType":"uint256","name":"","type":"uint256"}],"name":"allRewardTokens","outputs":[{"internalType":"address","name":"","type":"address"}],"stateMutability":"view","type":"function"},{"inputs":[],"name":"collectX1RewardsAll","outputs":[],"stateMutability":"nonpayable","type":"function"},{"inputs":[],"name":"cygnusX1Vault","outputs":[{"internalType":"address","name":"","type":"address"}],"stateMutability":"view","type":"function"},{"inputs":[{"internalType":"address","name":"terminal","type":"address"}],"name":"getRewards","outputs":[{"internalType":"address[]","name":"tokens","type":"address[]"},{"internalType":"uint256[]","name":"amounts","type":"uint256[]"}],"stateMutability":"nonpayable","type":"function"},{"inputs":[],"name":"hangar18","outputs":[{"internalType":"contract IHangar18","name":"","type":"address"}],"stateMutability":"view","type":"function"},{"inputs":[{"internalType":"address","name":"terminal","type":"address"}],"name":"harvestToX1Vault","outputs":[],"stateMutability":"nonpayable","type":"function"},{"inputs":[],"name":"harvesterReward","outputs":[{"internalType":"uint256","name":"","type":"uint256"}],"stateMutability":"view","type":"function"},{"inputs":[{"internalType":"address","name":"","type":"address"}],"name":"harvesters","outputs":[{"internalType":"address","name":"terminal","type":"address"},{"internalType":"address","name":"underlying","type":"address"},{"internalType":"address","name":"wantToken","type":"address"},{"internalType":"address","name":"receiver","type":"address"}],"stateMutability":"view","type":"function"},{"inputs":[{"internalType":"address","name":"","type":"address"}],"name":"isRewardToken","outputs":[{"internalType":"bool","name":"","type":"bool"}],"stateMutability":"view","type":"function"},{"inputs":[],"name":"lastX1Collect","outputs":[{"internalType":"uint256","name":"","type":"uint256"}],"stateMutability":"view","type":"function"},{"inputs":[],"name":"name","outputs":[{"internalType":"string","name":"","type":"string"}],"stateMutability":"view","type":"function"},{"inputs":[],"name":"nativeToken","outputs":[{"internalType":"address","name":"","type":"address"}],"stateMutability":"view","type":"function"},{"inputs":[{"internalType":"bytes[]","name":"swapdata","type":"bytes[]"},{"internalType":"address","name":"borrowable","type":"address"}],"name":"reinvestRewards","outputs":[{"internalType":"uint256","name":"liquidity","type":"uint256"}],"stateMutability":"nonpayable","type":"function"},{"inputs":[{"internalType":"address","name":"rewardToken","type":"address"}],"name":"removeRewardToken","outputs":[],"stateMutability":"nonpayable","type":"function"},{"inputs":[{"internalType":"uint256","name":"index","type":"uint256"}],"name":"rewardTokenBalanceAtIndex","outputs":[{"internalType":"uint256","name":"","type":"uint256"}],"stateMutability":"view","type":"function"},{"inputs":[],"name":"rewardTokensLength","outputs":[{"internalType":"uint256","name":"","type":"uint256"}],"stateMutability":"view","type":"function"},{"inputs":[{"internalType":"address","name":"terminal","type":"address"},{"internalType":"address","name":"wantToken","type":"address"},{"internalType":"address","name":"receiver","type":"address"}],"name":"setTerminalHarvester","outputs":[],"stateMutability":"nonpayable","type":"function"},{"inputs":[{"internalType":"uint256","name":"newWeight","type":"uint256"}],"name":"setWeightHarvester","outputs":[],"stateMutability":"nonpayable","type":"function"},{"inputs":[{"internalType":"uint256","name":"newWeight","type":"uint256"}],"name":"setWeightX1Vault","outputs":[],"stateMutability":"nonpayable","type":"function"},{"inputs":[],"name":"simpleHarvest","outputs":[{"internalType":"bool","name":"","type":"bool"}],"stateMutability":"view","type":"function"},{"inputs":[],"name":"switchSimpleHarvest","outputs":[],"stateMutability":"nonpayable","type":"function"},{"inputs":[],"name":"usd","outputs":[{"internalType":"address","name":"","type":"address"}],"stateMutability":"view","type":"function"},{"inputs":[],"name":"x1VaultReward","outputs":[{"internalType":"uint256","name":"","type":"uint256"}],"stateMutability":"view","type":"function"},{"stateMutability":"payable","type":"receive"}],"evm":{"bytecode":{"linkReferences":{},"object":"610100604090808252346200025957806200290880380380916200002482856200025e565b83396020928391810103126200025957516001600160a01b038116919082810362000259576001926000918460ff1984541617835567030d98d59a960000600555666a94d74f4300006006556080528451631c2eb17b60e31b81528381600481855afa9081156200022d57839162000237575b5060c052845163d63a6ccd60e01b81528381600481855afa9081156200022d5791849160049385916200020b575b5060a05286516318e7df3d60e31b815292839182905afa90811562000201578291620001cd575b5060e052600854918383811c93168015620001c2575b81841014620001ae57601f831162000188575b7f4379676e75733a20434f4d50204861727665737465720000000000000000002c600855845161264e9081620002ba82396080518181816101800152612489015260a051816104a3015260c051816101f2015260e05181818161054e01528181610a62015281816112930152611e3a0152f35b601f90600883528220920160051c8201915b82811015620001155781815583016200019a565b634e487b7160e01b82526022600452602482fd5b92607f169262000102565b620001f29150833d8511620001f9575b620001e981836200025e565b81019062000298565b38620000ec565b503d620001dd565b85513d84823e3d90fd5b620002269150833d8511620001f957620001e981836200025e565b38620000c5565b86513d85823e3d90fd5b620002529150843d8611620001f957620001e981836200025e565b3862000097565b600080fd5b601f909101601f19168101906001600160401b038211908210176200028257604052565b634e487b7160e01b600052604160045260246000fd5b908160209103126200025957516001600160a01b038116810362000259579056fe608080604052600436101561001a575b50361561001857005b005b600090813560e01c90816303e7020e1461169b5750806306fdde03146115385780631c03e6cc146113bf5780632c733d871461113e5780633d509c9714610ec5578063567ac8d514610e2a57806379ee54f714610c5b5780638797658314610b9957806397f4e01b1461095b5780639c486bd0146108ad5780639ee80c5c1461083d578063a3f11a9a146107fc578063a52ada841461074e578063b5b946e314610712578063b5fd73f8146106a5578063b7218b3714610669578063ba3f30c6146105fb578063bdcb9932146105ae578063bf199e6214610572578063c73ef9e814610503578063cccd8960146104c7578063d63a6ccd14610458578063dae275b614610216578063e1758bd8146101a75763e8a24e1d0361000f57346101a457807ffffffffffffffffffffffffffffffffffffffffffffffffffffffffffffffffc3601126101a457602060405173ffffffffffffffffffffffffffffffffffffffff7f0000000000000000000000000000000000000000000000000000000000000000168152f35b80fd5b50346101a457807ffffffffffffffffffffffffffffffffffffffffffffffffffffffffffffffffc3601126101a457602060405173ffffffffffffffffffffffffffffffffffffffff7f0000000000000000000000000000000000000000000000000000000000000000168152f35b50346101a45760607ffffffffffffffffffffffffffffffffffffffffffffffffffffffffffffffffc3601126101a45760043573ffffffffffffffffffffffffffffffffffffffff808216918281036104535760243591808316928381036104535760443591808316908184036104535761028f612444565b604051957f6f307dc300000000000000000000000000000000000000000000000000000000875288602080896004818d5afa9889156104485782996103cc575b507fb6a8c784464bbdc8b94f70be7ceb25dc9f5b72fc3b64ba76f6a0121d15c4bc859989938560406103c69a999897956001600396835196610312608089611fe3565b808852858289019b168b52848801968752606088019b8c5283525220925116947fffffffffffffffffffffffff0000000000000000000000000000000000000000958684541617835584600184019151168682541617905583600283019151168582541617905501925116908254161790556040519485948592949360609291608085019673ffffffffffffffffffffffffffffffffffffffff809481809416885216602087015216604085015216910152565b0390a180f35b908093995081819897969593983d8311610441575b6103eb8183611fe3565b8101031261043d577fb6a8c784464bbdc8b94f70be7ceb25dc9f5b72fc3b64ba76f6a0121d15c4bc85996001998360406103c69a61042a600396612110565b9d509550509596979850939150996102cf565b8680fd5b503d6103e1565b6040513d84823e3d90fd5b600080fd5b50346101a457807ffffffffffffffffffffffffffffffffffffffffffffffffffffffffffffffffc3601126101a457602060405173ffffffffffffffffffffffffffffffffffffffff7f0000000000000000000000000000000000000000000000000000000000000000168152f35b50346101a457807ffffffffffffffffffffffffffffffffffffffffffffffffffffffffffffffffc3601126101a4576020600654604051908152f35b50346101a457807ffffffffffffffffffffffffffffffffffffffffffffffffffffffffffffffffc3601126101a457602060405173ffffffffffffffffffffffffffffffffffffffff7f0000000000000000000000000000000000000000000000000000000000000000168152f35b50346101a457807ffffffffffffffffffffffffffffffffffffffffffffffffffffffffffffffffc3601126101a4576020600254604051908152f35b50346101a457807ffffffffffffffffffffffffffffffffffffffffffffffffffffffffffffffffc3601126101a4576020604051731111111254eeb25477b68fb85ed929f73a9605828152f35b50346101a45760207ffffffffffffffffffffffffffffffffffffffffffffffffffffffffffffffffc3601126101a457602061066173ffffffffffffffffffffffffffffffffffffffff61065260043560026120b1565b919054309260031b1c16612612565b604051908152f35b50346101a457807ffffffffffffffffffffffffffffffffffffffffffffffffffffffffffffffffc3601126101a4576020600554604051908152f35b50346101a45760207ffffffffffffffffffffffffffffffffffffffffffffffffffffffffffffffffc3601126101a4576004359073ffffffffffffffffffffffffffffffffffffffff82168092036104535760408160209360ff9352600384522054166040519015158152f35b50346101a457807ffffffffffffffffffffffffffffffffffffffffffffffffffffffffffffffffc3601126101a4576020600454604051908152f35b50346101a45760207ffffffffffffffffffffffffffffffffffffffffffffffffffffffffffffffffc3601126101a457600435610789612444565b6706f05b59d3b2000081116107d25760407fcdf0e2499be1cf2f4acff51a3c1b2e66af5d59c4d540bb5a36d9800d254a5c8091600554908060055582519182526020820152a180f35b60046040517f174d156b000000000000000000000000000000000000000000000000000000008152fd5b50346101a457807ffffffffffffffffffffffffffffffffffffffffffffffffffffffffffffffffc3601126101a457602060ff600754166040519015158152f35b50346101a45760207ffffffffffffffffffffffffffffffffffffffffffffffffffffffffffffffffc3601126101a457600435906002548210156101a457602073ffffffffffffffffffffffffffffffffffffffff61089d8460026120b1565b9190546040519260031b1c168152f35b50346101a45760207ffffffffffffffffffffffffffffffffffffffffffffffffffffffffffffffffc3601126101a4576004356108e8612444565b67016345785d8a000081116109315760407f65ae41069d2671929deed6d59a7dffa21e5300f58eed9ca4a481ccc94d4560e391600654908060065582519182526020820152a180f35b60046040517fca4bf1b8000000000000000000000000000000000000000000000000000000008152fd5b50346101a457807ffffffffffffffffffffffffffffffffffffffffffffffffffffffffffffffffc3601126101a457805460ff811615610b6f577fffffffffffffffffffffffffffffffffffffffffffffffffffffffffffffff008091168255604051908190600254808452826020809501600287527f405787fa12a823e0f2b7631cc41b3ba8828b3321ca811111fa75cd3aa3bb5ace92875b87828210610b4357505050610a0c92500383611fe3565b835b8251811015610af9578473ffffffffffffffffffffffffffffffffffffffff80610a388487612222565b511690610a453083612612565b80610a5d575b50505050610a589061240a565b610a0e565b610a897f00000000000000000000000000000000000000000000000000000000000000009182856125c9565b1690813b15610af55782916024839260405194859384927f632447c900000000000000000000000000000000000000000000000000000000845260048401525af1801561044857610adc575b8080610a4b565b81610ae691611fe3565b610af1578438610ad5565b8480fd5b8280fd5b846001837f16a9fd824a632ba02af308c1f7597f156fa9ec25b50bf207e0c0c34d28d27ab6606088426004556002546040519142835233908301526040820152a182541617815580f35b855473ffffffffffffffffffffffffffffffffffffffff168452600195860195889550930192016109f5565b60046040517f37ed32e8000000000000000000000000000000000000000000000000000000008152fd5b50346101a45760207ffffffffffffffffffffffffffffffffffffffffffffffffffffffffffffffffc3601126101a45760043573ffffffffffffffffffffffffffffffffffffffff91828216809203610453576040918152600160205220610c578282541691836001820154169360038160028401541692015416906040519485948592949360609291608085019673ffffffffffffffffffffffffffffffffffffffff809481809416885216602087015216604085015216910152565b0390f35b50346101a4576020807ffffffffffffffffffffffffffffffffffffffffffffffffffffffffffffffffc360112610e265760043573ffffffffffffffffffffffffffffffffffffffff8082168092036104535783549060ff821615610b6f578480937fffffffffffffffffffffffffffffffffffffffffffffffffffffffffffffff0080941682556004604051809681937f0572b0cc0000000000000000000000000000000000000000000000000000000083525af1928315610e1b5785908694610df4575b508594600554965b8551811015610d725780610d5d610d4d8a610d47610d6d958b612222565b51612527565b610d57838a612222565b51612437565b610d678289612222565b5261240a565b610d29565b508493918691600180948454161783556040519460408601604087528351809152826060880194019185905b828210610ddd5750505050848203818601528080875193848152019601925b828110610dca5785870386f35b8351875295810195928101928401610dbd565b835181168652948401949284019290870190610d9e565b9050610e139193503d8087833e610e0b8183611fe3565b810190612131565b929038610d21565b6040513d87823e3d90fd5b5080fd5b50346101a457807ffffffffffffffffffffffffffffffffffffffffffffffffffffffffffffffffc3601126101a457610e61612444565b7ffb8d0af087d7b03d1f7bd996e77ba2ca8d33ff1acb0c72a9d12c8987df8652f2602060075460ff8082161516807fffffffffffffffffffffffffffffffffffffffffffffffffffffffffffffff008316176007558460405192161715158152a180f35b50346101a45760207ffffffffffffffffffffffffffffffffffffffffffffffffffffffffffffffffc3601126101a45773ffffffffffffffffffffffffffffffffffffffff600435818116929183820361045357610f21612444565b8383526003938460205260ff604085205416156111145780845284602052604084207fffffffffffffffffffffffffffffffffffffffffffffffffffffffffffffff008154169055600291825495855b878110610fcd575b84546040805173ffffffffffffffffffffffffffffffffffffffff89168152602081019290925288917fbe0d2cc926911d1413d431090d31dd4a56de7770afb1245163f0e0ac7916db2191819081016103c6565b8383610fd983886120b1565b905490851b1c1614610ff357610fee9061240a565b610f71565b92507fffffffffffffffffffffffffffffffffffffffffffffffffffffffffffffffff968781019081116110e75791611041916110346110739594876120b1565b9054911b1c1691846120b1565b90919082549060031b9173ffffffffffffffffffffffffffffffffffffffff9283811b93849216901b16911916179055565b80549384156110ba577fbe0d2cc926911d1413d431090d31dd4a56de7770afb1245163f0e0ac7916db219394016110ae8561104183856120b1565b81558392388080610f79565b6024847f4e487b710000000000000000000000000000000000000000000000000000000081526031600452fd5b6024877f4e487b710000000000000000000000000000000000000000000000000000000081526011600452fd5b60046040517fa4f731e0000000000000000000000000000000000000000000000000000000008152fd5b50346101a457602090817ffffffffffffffffffffffffffffffffffffffffffffffffffffffffffffffffc3601126101a4576004359073ffffffffffffffffffffffffffffffffffffffff808316908184036104535782549360ff9586861615610b6f577fffffffffffffffffffffffffffffffffffffffffffffffffffffffffffffff008096168555866007541615611395578480946004604051809781937f0572b0cc0000000000000000000000000000000000000000000000000000000083525af1968715610e1b5785948698611373575b50855b855181101561136657611229818a612222565b51151580611346575b611245575b6112409061240a565b611216565b84816112c0888c886112ba8661128b8761126c6112628288612222565b5160065490612527565b96611286888561127c8585612222565b5116883391612570565b612222565b511693610d577f0000000000000000000000000000000000000000000000000000000000000000978895612222565b92612570565b16856112cc8389612222565b5116813b156113425788916024839260405194859384927f632447c900000000000000000000000000000000000000000000000000000000845260048401525af1801561133757908891611322575b5050611237565b8161132c91611fe3565b61043d57863861131b565b6040513d8a823e3d90fd5b8880fd5b50846113528288612222565b511687526003835281604088205416611232565b8660018982541617815580f35b90975061138b9194503d8087833e610e0b8183611fe3565b9390939638611213565b60046040517fc8a2ff00000000000000000000000000000000000000000000000000000000008152fd5b50346101a45760207ffffffffffffffffffffffffffffffffffffffffffffffffffffffffffffffffc3601126101a4576004359073ffffffffffffffffffffffffffffffffffffffff8216918281036104535761141a612444565b828252600360205260ff60408320541661150e5760025492680100000000000000008410156114e15761147b826110418660017f68e3e9397770d9dfa88c0953a34e1a70a05416b3895957f5b689787a920791c497980160025560026120b1565b835260036020908152604080852080547fffffffffffffffffffffffffffffffffffffffffffffffffffffffffffffff00166001179055600254815173ffffffffffffffffffffffffffffffffffffffff909416845291830191909152819081016103c6565b6024837f4e487b710000000000000000000000000000000000000000000000000000000081526041600452fd5b60046040517f588fa2cc000000000000000000000000000000000000000000000000000000008152fd5b50346101a457807ffffffffffffffffffffffffffffffffffffffffffffffffffffffffffffffffc3601126101a457604051908060085491600183811c92818516948515611691575b6020958686108114611664578588528794939291879082156116235750506001146115c9575b50506115b592500383611fe3565b610c57604051928284938452830190612053565b90859250600882527ff3f7a9fe364faab93b216da50a3214154f22a0a2b415b23a84c8169e8b636ee35b85831061160b5750506115b5935082010138806115a7565b805483890185015287945086939092019181016115f3565b915093506115b59592507fffffffffffffffffffffffffffffffffffffffffffffffffffffffffffffff0091501682840152151560051b82010138806115a7565b6024837f4e487b710000000000000000000000000000000000000000000000000000000081526022600452fd5b93607f1693611581565b82346101a45760407ffffffffffffffffffffffffffffffffffffffffffffffffffffffffffffffffc3601126101a45767ffffffffffffffff600435116101a4573660236004350112156101a45767ffffffffffffffff60043560040135116101a4573660246004356004013560051b6004350101116101a4576024359173ffffffffffffffffffffffffffffffffffffffff8316809303610e265781549060ff821615611f9a57507fffffffffffffffffffffffffffffffffffffffffffffffffffffffffffffff00168155809181526001602052604081209073ffffffffffffffffffffffffffffffffffffffff60018301541615611f7057808073ffffffffffffffffffffffffffffffffffffffff8454166004604051809481937f0572b0cc0000000000000000000000000000000000000000000000000000000083525af19283156104485782918394611f52575b50825b8251811015611e9b576118048186612222565b51151580611e65575b61181a575b6001016117f1565b9461186b73ffffffffffffffffffffffffffffffffffffffff61183d8886612222565b511673ffffffffffffffffffffffffffffffffffffffff845416906118628989612222565b51913091612570565b6118b473ffffffffffffffffffffffffffffffffffffffff61188d8886612222565b51166118a661189c8989612222565b5160055490612527565b80611e34575b503090612612565b73ffffffffffffffffffffffffffffffffffffffff6118d38886612222565b51600285015473ffffffffffffffffffffffffffffffffffffffff1691168114611e215760043560040135881015611df45760248860051b600435010135917fffffffffffffffffffffffffffffffffffffffffffffffffffffffffffffffbd60043536030183121561043d5767ffffffffffffffff6024846004350101351161043d5760043583016024810135360360449091011361043d5773ffffffffffffffffffffffffffffffffffffffff61198c8a88612222565b516003870154911691600435850160248101358101039173ffffffffffffffffffffffffffffffffffffffff166101408312611df05760e07fffffffffffffffffffffffffffffffffffffffffffffffffffffffffffffffe06119f56044896004350101611fc2565b940112611df05760405195611a0b60e088611fe3565b611a1b6064826004350101611fc2565b8752611a2d6084826004350101611fc2565b6020880152611a4260a4826004350101611fc2565b6040880152611a5760c4826004350101611fc2565b6060880152600435810160e4810135608089015261010481013560a089015261012481013560c089015267ffffffffffffffff6101449091013511611dec57611ab860043582016024810135810160449081019161014481013501016122ac565b5067ffffffffffffffff6101648260043501013511611dec57611af390600435016024810135810160449081019161016481013501016122ac565b9482608088015103611de1575b8473ffffffffffffffffffffffffffffffffffffffff88511603611db75773ffffffffffffffffffffffffffffffffffffffff60208801511603611d8d5773ffffffffffffffffffffffffffffffffffffffff60608701511603611d6357604093611b98611cf292731111111254eeb25477b68fb85ed929f73a96058273ffffffffffffffffffffffffffffffffffffffff966122f3565b611cc1611ba48b612272565b611bb087519182611fe3565b8b81527fffffffffffffffffffffffffffffffffffffffffffffffffffffffffffffffe0611bdd8d612272565b0136602083013760c0875198899788977f12aa3caf00000000000000000000000000000000000000000000000000000000895216600488015273ffffffffffffffffffffffffffffffffffffffff815116602488015273ffffffffffffffffffffffffffffffffffffffff602082015116604488015273ffffffffffffffffffffffffffffffffffffffff8982015116606488015273ffffffffffffffffffffffffffffffffffffffff6060820151166084880152608081015160a488015260a081015160c4880152015160e4860152610140610104860152610144850190612053565b907ffffffffffffffffffffffffffffffffffffffffffffffffffffffffffffffffc84830301610124850152612053565b038188731111111254eeb25477b68fb85ed929f73a9605825af1908115610e1b578591611d30575b50611d2790600192612236565b955b9050611812565b90506040813d604011611d5b575b81611d4b60409383611fe3565b81010312610af157516001611d1a565b3d9150611d3e565b60046040517fac71d77a000000000000000000000000000000000000000000000000000000008152fd5b60046040517fb8806c1d000000000000000000000000000000000000000000000000000000008152fd5b60046040517f84b1dde8000000000000000000000000000000000000000000000000000000008152fd5b826080880152611b00565b8a80fd5b8980fd5b6024867f4e487b710000000000000000000000000000000000000000000000000000000081526032600452fd5b50611e2e90600192612236565b95611d29565b611e5f907f0000000000000000000000000000000000000000000000000000000000000000836125c9565b886118ac565b5073ffffffffffffffffffffffffffffffffffffffff611e858285612222565b51168452600360205260ff60408520541661180d565b83868173ffffffffffffffffffffffffffffffffffffffff855416803b15610e265781906024604051809681937f81f5b6f40000000000000000000000000000000000000000000000000000000083528760048401525af1928315611f455781602094611f35575b547fffffffffffffffffffffffffffffffffffffffffffffffffffffffffffffff001660011790915550604051908152f35b611f3e91611fe3565b8381611f03565b50604051903d90823e3d90fd5b909350611f6991503d8084833e610e0b8183611fe3565b92856117ee565b60046040517ffada4a47000000000000000000000000000000000000000000000000000000008152fd5b807f37ed32e80000000000000000000000000000000000000000000000000000000060049252fd5b359073ffffffffffffffffffffffffffffffffffffffff8216820361045357565b90601f7fffffffffffffffffffffffffffffffffffffffffffffffffffffffffffffffe0910116810190811067ffffffffffffffff82111761202457604052565b7f4e487b7100000000000000000000000000000000000000000000000000000000600052604160045260246000fd5b919082519283825260005b84811061209d5750507fffffffffffffffffffffffffffffffffffffffffffffffffffffffffffffffe0601f8460006020809697860101520116010190565b60208183018101518483018201520161205e565b80548210156120c95760005260206000200190600090565b7f4e487b7100000000000000000000000000000000000000000000000000000000600052603260045260246000fd5b67ffffffffffffffff81116120245760051b60200190565b519073ffffffffffffffffffffffffffffffffffffffff8216820361045357565b919060408382031261045357825167ffffffffffffffff908181116104535784019082601f830112156104535781519161216a836120f8565b906121786040519283611fe3565b838252602093848084019160051b830101918683116104535785809101915b83831061220a5750505050948281015191821161045357019180601f840112156104535782516121c6816120f8565b936121d46040519586611fe3565b818552838086019260051b820101928311610453578301905b8282106121fb575050505090565b815181529083019083016121ed565b819061221584612110565b8152019101908590612197565b80518210156120c95760209160051b010190565b9190820180921161224357565b7f4e487b7100000000000000000000000000000000000000000000000000000000600052601160045260246000fd5b67ffffffffffffffff811161202457601f017fffffffffffffffffffffffffffffffffffffffffffffffffffffffffffffffe01660200190565b81601f82011215610453578035906122c382612272565b926122d16040519485611fe3565b8284526020838301011161045357816000926020809301838601378301015290565b90916040517fdd62ed3e00000000000000000000000000000000000000000000000000000000815230600482015260208160448173ffffffffffffffffffffffffffffffffffffffff808916602483015287165afa9081156123fe576000916123cd575b5010156123c95760446010600080936020956014527fffffffffffffffffffffffffffffffffffffffffffffffffffffffffffffffff6034526f095ea7b300000000000000000000000082525af13d156001600051141716156123bb576000603452565b633e3f8f736000526004601cfd5b5050565b906020823d82116123f6575b816123e660209383611fe3565b810103126101a457505138612357565b3d91506123d9565b6040513d6000823e3d90fd5b7fffffffffffffffffffffffffffffffffffffffffffffffffffffffffffffffff81146122435760010190565b9190820391821161224357565b6040517ff851a44000000000000000000000000000000000000000000000000000000000815273ffffffffffffffffffffffffffffffffffffffff90602081600481857f0000000000000000000000000000000000000000000000000000000000000000165afa9081156123fe576000916124ee575b501633036124c457565b60046040517fb73dc6ca000000000000000000000000000000000000000000000000000000008152fd5b906020823d821161251f575b8161250760209383611fe3565b810103126101a4575061251990612110565b386124ba565b3d91506124fa565b90807fffffffffffffffffffffffffffffffffffffffffffffffffffffffffffffffff048211810261256257670de0b6b3a764000091020490565b63bac65e5b6000526004601cfd5b601c600060649281946020966040519860605260405260601b602c526f23b872dd000000000000000000000000600c525af13d156001600051141716156125bb576000606052604052565b637939f4246000526004601cfd5b60109260209260145260345260446000938480936fa9059cbb00000000000000000000000082525af13d15600183511417161561260557603452565b6390b8ec1890526004601cfd5b602460106020939284936014526f70a082310000000000000000000000006000525afa601f3d1116602051029056fea164736f6c6343000811000a","opcodes":"PUSH2 0x100 PUSH1 0x40 SWAP1 DUP1 DUP3 MSTORE CALLVALUE PUSH3 0x259 JUMPI DUP1 PUSH3 0x2908 DUP1 CODESIZE SUB DUP1 SWAP2 PUSH3 0x24 DUP3 DUP6 PUSH3 0x25E JUMP JUMPDEST DUP4 CODECOPY PUSH1 0x20 SWAP3 DUP4 SWAP2 DUP2 ADD SUB SLT PUSH3 0x259 JUMPI MLOAD PUSH1 0x1 PUSH1 0x1 PUSH1 0xA0 SHL SUB DUP2 AND SWAP2 SWAP1 DUP3 DUP2 SUB PUSH3 0x259 JUMPI PUSH1 0x1 SWAP3 PUSH1 0x0 SWAP2 DUP5 PUSH1 0xFF NOT DUP5 SLOAD AND OR DUP4 SSTORE PUSH8 0x30D98D59A960000 PUSH1 0x5 SSTORE PUSH7 0x6A94D74F430000 PUSH1 0x6 SSTORE PUSH1 0x80 MSTORE DUP5 MLOAD PUSH4 0x1C2EB17B PUSH1 0xE3 SHL DUP2 MSTORE DUP4 DUP2 PUSH1 0x4 DUP2 DUP6 GAS STATICCALL SWAP1 DUP2 ISZERO PUSH3 0x22D JUMPI DUP4 SWAP2 PUSH3 0x237 JUMPI JUMPDEST POP PUSH1 0xC0 MSTORE DUP5 MLOAD PUSH4 0xD63A6CCD PUSH1 0xE0 SHL DUP2 MSTORE DUP4 DUP2 PUSH1 0x4 DUP2 DUP6 GAS STATICCALL SWAP1 DUP2 ISZERO PUSH3 0x22D JUMPI SWAP2 DUP5 SWAP2 PUSH1 0x4 SWAP4 DUP6 SWAP2 PUSH3 0x20B JUMPI JUMPDEST POP PUSH1 0xA0 MSTORE DUP7 MLOAD PUSH4 0x18E7DF3D PUSH1 0xE3 SHL DUP2 MSTORE SWAP3 DUP4 SWAP2 DUP3 SWAP1 GAS STATICCALL SWAP1 DUP2 ISZERO PUSH3 0x201 JUMPI DUP3 SWAP2 PUSH3 0x1CD JUMPI JUMPDEST POP PUSH1 0xE0 MSTORE PUSH1 0x8 SLOAD SWAP2 DUP4 DUP4 DUP2 SHR SWAP4 AND DUP1 ISZERO PUSH3 0x1C2 JUMPI JUMPDEST DUP2 DUP5 LT EQ PUSH3 0x1AE JUMPI PUSH1 0x1F DUP4 GT PUSH3 0x188 JUMPI JUMPDEST PUSH32 0x4379676E75733A20434F4D50204861727665737465720000000000000000002C PUSH1 0x8 SSTORE DUP5 MLOAD PUSH2 0x264E SWAP1 DUP2 PUSH3 0x2BA DUP3 CODECOPY PUSH1 0x80 MLOAD DUP2 DUP2 DUP2 PUSH2 0x180 ADD MSTORE PUSH2 0x2489 ADD MSTORE PUSH1 0xA0 MLOAD DUP2 PUSH2 0x4A3 ADD MSTORE PUSH1 0xC0 MLOAD DUP2 PUSH2 0x1F2 ADD MSTORE PUSH1 0xE0 MLOAD DUP2 DUP2 DUP2 PUSH2 0x54E ADD MSTORE DUP2 DUP2 PUSH2 0xA62 ADD MSTORE DUP2 DUP2 PUSH2 0x1293 ADD MSTORE PUSH2 0x1E3A ADD MSTORE RETURN JUMPDEST PUSH1 0x1F SWAP1 PUSH1 0x8 DUP4 MSTORE DUP3 KECCAK256 SWAP3 ADD PUSH1 0x5 SHR DUP3 ADD SWAP2 JUMPDEST DUP3 DUP2 LT ISZERO PUSH3 0x115 JUMPI DUP2 DUP2 SSTORE DUP4 ADD PUSH3 0x19A JUMP JUMPDEST PUSH4 0x4E487B71 PUSH1 0xE0 SHL DUP3 MSTORE PUSH1 0x22 PUSH1 0x4 MSTORE PUSH1 0x24 DUP3 REVERT JUMPDEST SWAP3 PUSH1 0x7F AND SWAP3 PUSH3 0x102 JUMP JUMPDEST PUSH3 0x1F2 SWAP2 POP DUP4 RETURNDATASIZE DUP6 GT PUSH3 0x1F9 JUMPI JUMPDEST PUSH3 0x1E9 DUP2 DUP4 PUSH3 0x25E JUMP JUMPDEST DUP2 ADD SWAP1 PUSH3 0x298 JUMP JUMPDEST CODESIZE PUSH3 0xEC JUMP JUMPDEST POP RETURNDATASIZE PUSH3 0x1DD JUMP JUMPDEST DUP6 MLOAD RETURNDATASIZE DUP5 DUP3 RETURNDATACOPY RETURNDATASIZE SWAP1 REVERT JUMPDEST PUSH3 0x226 SWAP2 POP DUP4 RETURNDATASIZE DUP6 GT PUSH3 0x1F9 JUMPI PUSH3 0x1E9 DUP2 DUP4 PUSH3 0x25E JUMP JUMPDEST CODESIZE PUSH3 0xC5 JUMP JUMPDEST DUP7 MLOAD RETURNDATASIZE DUP6 DUP3 RETURNDATACOPY RETURNDATASIZE SWAP1 REVERT JUMPDEST PUSH3 0x252 SWAP2 POP DUP5 RETURNDATASIZE DUP7 GT PUSH3 0x1F9 JUMPI PUSH3 0x1E9 DUP2 DUP4 PUSH3 0x25E JUMP JUMPDEST CODESIZE PUSH3 0x97 JUMP JUMPDEST PUSH1 0x0 DUP1 REVERT JUMPDEST PUSH1 0x1F SWAP1 SWAP2 ADD PUSH1 0x1F NOT AND DUP2 ADD SWAP1 PUSH1 0x1 PUSH1 0x1 PUSH1 0x40 SHL SUB DUP3 GT SWAP1 DUP3 LT OR PUSH3 0x282 JUMPI PUSH1 0x40 MSTORE JUMP JUMPDEST PUSH4 0x4E487B71 PUSH1 0xE0 SHL PUSH1 0x0 MSTORE PUSH1 0x41 PUSH1 0x4 MSTORE PUSH1 0x24 PUSH1 0x0 REVERT JUMPDEST SWAP1 DUP2 PUSH1 0x20 SWAP2 SUB SLT PUSH3 0x259 JUMPI MLOAD PUSH1 0x1 PUSH1 0x1 PUSH1 0xA0 SHL SUB DUP2 AND DUP2 SUB PUSH3 0x259 JUMPI SWAP1 JUMP INVALID PUSH1 0x80 DUP1 PUSH1 0x40 MSTORE PUSH1 0x4 CALLDATASIZE LT ISZERO PUSH2 0x1A JUMPI JUMPDEST POP CALLDATASIZE ISZERO PUSH2 0x18 JUMPI STOP JUMPDEST STOP JUMPDEST PUSH1 0x0 SWAP1 DUP2 CALLDATALOAD PUSH1 0xE0 SHR SWAP1 DUP2 PUSH4 0x3E7020E EQ PUSH2 0x169B JUMPI POP DUP1 PUSH4 0x6FDDE03 EQ PUSH2 0x1538 JUMPI DUP1 PUSH4 0x1C03E6CC EQ PUSH2 0x13BF JUMPI DUP1 PUSH4 0x2C733D87 EQ PUSH2 0x113E JUMPI DUP1 PUSH4 0x3D509C97 EQ PUSH2 0xEC5 JUMPI DUP1 PUSH4 0x567AC8D5 EQ PUSH2 0xE2A JUMPI DUP1 PUSH4 0x79EE54F7 EQ PUSH2 0xC5B JUMPI DUP1 PUSH4 0x87976583 EQ PUSH2 0xB99 JUMPI DUP1 PUSH4 0x97F4E01B EQ PUSH2 0x95B JUMPI DUP1 PUSH4 0x9C486BD0 EQ PUSH2 0x8AD JUMPI DUP1 PUSH4 0x9EE80C5C EQ PUSH2 0x83D JUMPI DUP1 PUSH4 0xA3F11A9A EQ PUSH2 0x7FC JUMPI DUP1 PUSH4 0xA52ADA84 EQ PUSH2 0x74E JUMPI DUP1 PUSH4 0xB5B946E3 EQ PUSH2 0x712 JUMPI DUP1 PUSH4 0xB5FD73F8 EQ PUSH2 0x6A5 JUMPI DUP1 PUSH4 0xB7218B37 EQ PUSH2 0x669 JUMPI DUP1 PUSH4 0xBA3F30C6 EQ PUSH2 0x5FB JUMPI DUP1 PUSH4 0xBDCB9932 EQ PUSH2 0x5AE JUMPI DUP1 PUSH4 0xBF199E62 EQ PUSH2 0x572 JUMPI DUP1 PUSH4 0xC73EF9E8 EQ PUSH2 0x503 JUMPI DUP1 PUSH4 0xCCCD8960 EQ PUSH2 0x4C7 JUMPI DUP1 PUSH4 0xD63A6CCD EQ PUSH2 0x458 JUMPI DUP1 PUSH4 0xDAE275B6 EQ PUSH2 0x216 JUMPI DUP1 PUSH4 0xE1758BD8 EQ PUSH2 0x1A7 JUMPI PUSH4 0xE8A24E1D SUB PUSH2 0xF JUMPI CALLVALUE PUSH2 0x1A4 JUMPI DUP1 PUSH32 0xFFFFFFFFFFFFFFFFFFFFFFFFFFFFFFFFFFFFFFFFFFFFFFFFFFFFFFFFFFFFFFFC CALLDATASIZE ADD SLT PUSH2 0x1A4 JUMPI PUSH1 0x20 PUSH1 0x40 MLOAD PUSH20 0xFFFFFFFFFFFFFFFFFFFFFFFFFFFFFFFFFFFFFFFF PUSH32 0x0 AND DUP2 MSTORE RETURN JUMPDEST DUP1 REVERT JUMPDEST POP CALLVALUE PUSH2 0x1A4 JUMPI DUP1 PUSH32 0xFFFFFFFFFFFFFFFFFFFFFFFFFFFFFFFFFFFFFFFFFFFFFFFFFFFFFFFFFFFFFFFC CALLDATASIZE ADD SLT PUSH2 0x1A4 JUMPI PUSH1 0x20 PUSH1 0x40 MLOAD PUSH20 0xFFFFFFFFFFFFFFFFFFFFFFFFFFFFFFFFFFFFFFFF PUSH32 0x0 AND DUP2 MSTORE RETURN JUMPDEST POP CALLVALUE PUSH2 0x1A4 JUMPI PUSH1 0x60 PUSH32 0xFFFFFFFFFFFFFFFFFFFFFFFFFFFFFFFFFFFFFFFFFFFFFFFFFFFFFFFFFFFFFFFC CALLDATASIZE ADD SLT PUSH2 0x1A4 JUMPI PUSH1 0x4 CALLDATALOAD PUSH20 0xFFFFFFFFFFFFFFFFFFFFFFFFFFFFFFFFFFFFFFFF DUP1 DUP3 AND SWAP2 DUP3 DUP2 SUB PUSH2 0x453 JUMPI PUSH1 0x24 CALLDATALOAD SWAP2 DUP1 DUP4 AND SWAP3 DUP4 DUP2 SUB PUSH2 0x453 JUMPI PUSH1 0x44 CALLDATALOAD SWAP2 DUP1 DUP4 AND SWAP1 DUP2 DUP5 SUB PUSH2 0x453 JUMPI PUSH2 0x28F PUSH2 0x2444 JUMP JUMPDEST PUSH1 0x40 MLOAD SWAP6 PUSH32 0x6F307DC300000000000000000000000000000000000000000000000000000000 DUP8 MSTORE DUP9 PUSH1 0x20 DUP1 DUP10 PUSH1 0x4 DUP2 DUP14 GAS STATICCALL SWAP9 DUP10 ISZERO PUSH2 0x448 JUMPI DUP3 SWAP10 PUSH2 0x3CC JUMPI JUMPDEST POP PUSH32 0xB6A8C784464BBDC8B94F70BE7CEB25DC9F5B72FC3B64BA76F6A0121D15C4BC85 SWAP10 DUP10 SWAP4 DUP6 PUSH1 0x40 PUSH2 0x3C6 SWAP11 SWAP10 SWAP9 SWAP8 SWAP6 PUSH1 0x1 PUSH1 0x3 SWAP7 DUP4 MLOAD SWAP7 PUSH2 0x312 PUSH1 0x80 DUP10 PUSH2 0x1FE3 JUMP JUMPDEST DUP1 DUP9 MSTORE DUP6 DUP3 DUP10 ADD SWAP12 AND DUP12 MSTORE DUP5 DUP9 ADD SWAP7 DUP8 MSTORE PUSH1 0x60 DUP9 ADD SWAP12 DUP13 MSTORE DUP4 MSTORE MSTORE KECCAK256 SWAP3 MLOAD AND SWAP5 PUSH32 0xFFFFFFFFFFFFFFFFFFFFFFFF0000000000000000000000000000000000000000 SWAP6 DUP7 DUP5 SLOAD AND OR DUP4 SSTORE DUP5 PUSH1 0x1 DUP5 ADD SWAP2 MLOAD AND DUP7 DUP3 SLOAD AND OR SWAP1 SSTORE DUP4 PUSH1 0x2 DUP4 ADD SWAP2 MLOAD AND DUP6 DUP3 SLOAD AND OR SWAP1 SSTORE ADD SWAP3 MLOAD AND SWAP1 DUP3 SLOAD AND OR SWAP1 SSTORE PUSH1 0x40 MLOAD SWAP5 DUP6 SWAP5 DUP6 SWAP3 SWAP5 SWAP4 PUSH1 0x60 SWAP3 SWAP2 PUSH1 0x80 DUP6 ADD SWAP7 PUSH20 0xFFFFFFFFFFFFFFFFFFFFFFFFFFFFFFFFFFFFFFFF DUP1 SWAP5 DUP2 DUP1 SWAP5 AND DUP9 MSTORE AND PUSH1 0x20 DUP8 ADD MSTORE AND PUSH1 0x40 DUP6 ADD MSTORE AND SWAP2 ADD MSTORE JUMP JUMPDEST SUB SWAP1 LOG1 DUP1 RETURN JUMPDEST SWAP1 DUP1 SWAP4 SWAP10 POP DUP2 DUP2 SWAP9 SWAP8 SWAP7 SWAP6 SWAP4 SWAP9 RETURNDATASIZE DUP4 GT PUSH2 0x441 JUMPI JUMPDEST PUSH2 0x3EB DUP2 DUP4 PUSH2 0x1FE3 JUMP JUMPDEST DUP2 ADD SUB SLT PUSH2 0x43D JUMPI PUSH32 0xB6A8C784464BBDC8B94F70BE7CEB25DC9F5B72FC3B64BA76F6A0121D15C4BC85 SWAP10 PUSH1 0x1 SWAP10 DUP4 PUSH1 0x40 PUSH2 0x3C6 SWAP11 PUSH2 0x42A PUSH1 0x3 SWAP7 PUSH2 0x2110 JUMP JUMPDEST SWAP14 POP SWAP6 POP POP SWAP6 SWAP7 SWAP8 SWAP9 POP SWAP4 SWAP2 POP SWAP10 PUSH2 0x2CF JUMP JUMPDEST DUP7 DUP1 REVERT JUMPDEST POP RETURNDATASIZE PUSH2 0x3E1 JUMP JUMPDEST PUSH1 0x40 MLOAD RETURNDATASIZE DUP5 DUP3 RETURNDATACOPY RETURNDATASIZE SWAP1 REVERT JUMPDEST PUSH1 0x0 DUP1 REVERT JUMPDEST POP CALLVALUE PUSH2 0x1A4 JUMPI DUP1 PUSH32 0xFFFFFFFFFFFFFFFFFFFFFFFFFFFFFFFFFFFFFFFFFFFFFFFFFFFFFFFFFFFFFFFC CALLDATASIZE ADD SLT PUSH2 0x1A4 JUMPI PUSH1 0x20 PUSH1 0x40 MLOAD PUSH20 0xFFFFFFFFFFFFFFFFFFFFFFFFFFFFFFFFFFFFFFFF PUSH32 0x0 AND DUP2 MSTORE RETURN JUMPDEST POP CALLVALUE PUSH2 0x1A4 JUMPI DUP1 PUSH32 0xFFFFFFFFFFFFFFFFFFFFFFFFFFFFFFFFFFFFFFFFFFFFFFFFFFFFFFFFFFFFFFFC CALLDATASIZE ADD SLT PUSH2 0x1A4 JUMPI PUSH1 0x20 PUSH1 0x6 SLOAD PUSH1 0x40 MLOAD SWAP1 DUP2 MSTORE RETURN JUMPDEST POP CALLVALUE PUSH2 0x1A4 JUMPI DUP1 PUSH32 0xFFFFFFFFFFFFFFFFFFFFFFFFFFFFFFFFFFFFFFFFFFFFFFFFFFFFFFFFFFFFFFFC CALLDATASIZE ADD SLT PUSH2 0x1A4 JUMPI PUSH1 0x20 PUSH1 0x40 MLOAD PUSH20 0xFFFFFFFFFFFFFFFFFFFFFFFFFFFFFFFFFFFFFFFF PUSH32 0x0 AND DUP2 MSTORE RETURN JUMPDEST POP CALLVALUE PUSH2 0x1A4 JUMPI DUP1 PUSH32 0xFFFFFFFFFFFFFFFFFFFFFFFFFFFFFFFFFFFFFFFFFFFFFFFFFFFFFFFFFFFFFFFC CALLDATASIZE ADD SLT PUSH2 0x1A4 JUMPI PUSH1 0x20 PUSH1 0x2 SLOAD PUSH1 0x40 MLOAD SWAP1 DUP2 MSTORE RETURN JUMPDEST POP CALLVALUE PUSH2 0x1A4 JUMPI DUP1 PUSH32 0xFFFFFFFFFFFFFFFFFFFFFFFFFFFFFFFFFFFFFFFFFFFFFFFFFFFFFFFFFFFFFFFC CALLDATASIZE ADD SLT PUSH2 0x1A4 JUMPI PUSH1 0x20 PUSH1 0x40 MLOAD PUSH20 0x1111111254EEB25477B68FB85ED929F73A960582 DUP2 MSTORE RETURN JUMPDEST POP CALLVALUE PUSH2 0x1A4 JUMPI PUSH1 0x20 PUSH32 0xFFFFFFFFFFFFFFFFFFFFFFFFFFFFFFFFFFFFFFFFFFFFFFFFFFFFFFFFFFFFFFFC CALLDATASIZE ADD SLT PUSH2 0x1A4 JUMPI PUSH1 0x20 PUSH2 0x661 PUSH20 0xFFFFFFFFFFFFFFFFFFFFFFFFFFFFFFFFFFFFFFFF PUSH2 0x652 PUSH1 0x4 CALLDATALOAD PUSH1 0x2 PUSH2 0x20B1 JUMP JUMPDEST SWAP2 SWAP1 SLOAD ADDRESS SWAP3 PUSH1 0x3 SHL SHR AND PUSH2 0x2612 JUMP JUMPDEST PUSH1 0x40 MLOAD SWAP1 DUP2 MSTORE RETURN JUMPDEST POP CALLVALUE PUSH2 0x1A4 JUMPI DUP1 PUSH32 0xFFFFFFFFFFFFFFFFFFFFFFFFFFFFFFFFFFFFFFFFFFFFFFFFFFFFFFFFFFFFFFFC CALLDATASIZE ADD SLT PUSH2 0x1A4 JUMPI PUSH1 0x20 PUSH1 0x5 SLOAD PUSH1 0x40 MLOAD SWAP1 DUP2 MSTORE RETURN JUMPDEST POP CALLVALUE PUSH2 0x1A4 JUMPI PUSH1 0x20 PUSH32 0xFFFFFFFFFFFFFFFFFFFFFFFFFFFFFFFFFFFFFFFFFFFFFFFFFFFFFFFFFFFFFFFC CALLDATASIZE ADD SLT PUSH2 0x1A4 JUMPI PUSH1 0x4 CALLDATALOAD SWAP1 PUSH20 0xFFFFFFFFFFFFFFFFFFFFFFFFFFFFFFFFFFFFFFFF DUP3 AND DUP1 SWAP3 SUB PUSH2 0x453 JUMPI PUSH1 0x40 DUP2 PUSH1 0x20 SWAP4 PUSH1 0xFF SWAP4 MSTORE PUSH1 0x3 DUP5 MSTORE KECCAK256 SLOAD AND PUSH1 0x40 MLOAD SWAP1 ISZERO ISZERO DUP2 MSTORE RETURN JUMPDEST POP CALLVALUE PUSH2 0x1A4 JUMPI DUP1 PUSH32 0xFFFFFFFFFFFFFFFFFFFFFFFFFFFFFFFFFFFFFFFFFFFFFFFFFFFFFFFFFFFFFFFC CALLDATASIZE ADD SLT PUSH2 0x1A4 JUMPI PUSH1 0x20 PUSH1 0x4 SLOAD PUSH1 0x40 MLOAD SWAP1 DUP2 MSTORE RETURN JUMPDEST POP CALLVALUE PUSH2 0x1A4 JUMPI PUSH1 0x20 PUSH32 0xFFFFFFFFFFFFFFFFFFFFFFFFFFFFFFFFFFFFFFFFFFFFFFFFFFFFFFFFFFFFFFFC CALLDATASIZE ADD SLT PUSH2 0x1A4 JUMPI PUSH1 0x4 CALLDATALOAD PUSH2 0x789 PUSH2 0x2444 JUMP JUMPDEST PUSH8 0x6F05B59D3B20000 DUP2 GT PUSH2 0x7D2 JUMPI PUSH1 0x40 PUSH32 0xCDF0E2499BE1CF2F4ACFF51A3C1B2E66AF5D59C4D540BB5A36D9800D254A5C80 SWAP2 PUSH1 0x5 SLOAD SWAP1 DUP1 PUSH1 0x5 SSTORE DUP3 MLOAD SWAP2 DUP3 MSTORE PUSH1 0x20 DUP3 ADD MSTORE LOG1 DUP1 RETURN JUMPDEST PUSH1 0x4 PUSH1 0x40 MLOAD PUSH32 0x174D156B00000000000000000000000000000000000000000000000000000000 DUP2 MSTORE REVERT JUMPDEST POP CALLVALUE PUSH2 0x1A4 JUMPI DUP1 PUSH32 0xFFFFFFFFFFFFFFFFFFFFFFFFFFFFFFFFFFFFFFFFFFFFFFFFFFFFFFFFFFFFFFFC CALLDATASIZE ADD SLT PUSH2 0x1A4 JUMPI PUSH1 0x20 PUSH1 0xFF PUSH1 0x7 SLOAD AND PUSH1 0x40 MLOAD SWAP1 ISZERO ISZERO DUP2 MSTORE RETURN JUMPDEST POP CALLVALUE PUSH2 0x1A4 JUMPI PUSH1 0x20 PUSH32 0xFFFFFFFFFFFFFFFFFFFFFFFFFFFFFFFFFFFFFFFFFFFFFFFFFFFFFFFFFFFFFFFC CALLDATASIZE ADD SLT PUSH2 0x1A4 JUMPI PUSH1 0x4 CALLDATALOAD SWAP1 PUSH1 0x2 SLOAD DUP3 LT ISZERO PUSH2 0x1A4 JUMPI PUSH1 0x20 PUSH20 0xFFFFFFFFFFFFFFFFFFFFFFFFFFFFFFFFFFFFFFFF PUSH2 0x89D DUP5 PUSH1 0x2 PUSH2 0x20B1 JUMP JUMPDEST SWAP2 SWAP1 SLOAD PUSH1 0x40 MLOAD SWAP3 PUSH1 0x3 SHL SHR AND DUP2 MSTORE RETURN JUMPDEST POP CALLVALUE PUSH2 0x1A4 JUMPI PUSH1 0x20 PUSH32 0xFFFFFFFFFFFFFFFFFFFFFFFFFFFFFFFFFFFFFFFFFFFFFFFFFFFFFFFFFFFFFFFC CALLDATASIZE ADD SLT PUSH2 0x1A4 JUMPI PUSH1 0x4 CALLDATALOAD PUSH2 0x8E8 PUSH2 0x2444 JUMP JUMPDEST PUSH8 0x16345785D8A0000 DUP2 GT PUSH2 0x931 JUMPI PUSH1 0x40 PUSH32 0x65AE41069D2671929DEED6D59A7DFFA21E5300F58EED9CA4A481CCC94D4560E3 SWAP2 PUSH1 0x6 SLOAD SWAP1 DUP1 PUSH1 0x6 SSTORE DUP3 MLOAD SWAP2 DUP3 MSTORE PUSH1 0x20 DUP3 ADD MSTORE LOG1 DUP1 RETURN JUMPDEST PUSH1 0x4 PUSH1 0x40 MLOAD PUSH32 0xCA4BF1B800000000000000000000000000000000000000000000000000000000 DUP2 MSTORE REVERT JUMPDEST POP CALLVALUE PUSH2 0x1A4 JUMPI DUP1 PUSH32 0xFFFFFFFFFFFFFFFFFFFFFFFFFFFFFFFFFFFFFFFFFFFFFFFFFFFFFFFFFFFFFFFC CALLDATASIZE ADD SLT PUSH2 0x1A4 JUMPI DUP1 SLOAD PUSH1 0xFF DUP2 AND ISZERO PUSH2 0xB6F JUMPI PUSH32 0xFFFFFFFFFFFFFFFFFFFFFFFFFFFFFFFFFFFFFFFFFFFFFFFFFFFFFFFFFFFFFF00 DUP1 SWAP2 AND DUP3 SSTORE PUSH1 0x40 MLOAD SWAP1 DUP2 SWAP1 PUSH1 0x2 SLOAD DUP1 DUP5 MSTORE DUP3 PUSH1 0x20 DUP1 SWAP6 ADD PUSH1 0x2 DUP8 MSTORE PUSH32 0x405787FA12A823E0F2B7631CC41B3BA8828B3321CA811111FA75CD3AA3BB5ACE SWAP3 DUP8 JUMPDEST DUP8 DUP3 DUP3 LT PUSH2 0xB43 JUMPI POP POP POP PUSH2 0xA0C SWAP3 POP SUB DUP4 PUSH2 0x1FE3 JUMP JUMPDEST DUP4 JUMPDEST DUP3 MLOAD DUP2 LT ISZERO PUSH2 0xAF9 JUMPI DUP5 PUSH20 0xFFFFFFFFFFFFFFFFFFFFFFFFFFFFFFFFFFFFFFFF DUP1 PUSH2 0xA38 DUP5 DUP8 PUSH2 0x2222 JUMP JUMPDEST MLOAD AND SWAP1 PUSH2 0xA45 ADDRESS DUP4 PUSH2 0x2612 JUMP JUMPDEST DUP1 PUSH2 0xA5D JUMPI JUMPDEST POP POP POP POP PUSH2 0xA58 SWAP1 PUSH2 0x240A JUMP JUMPDEST PUSH2 0xA0E JUMP JUMPDEST PUSH2 0xA89 PUSH32 0x0 SWAP2 DUP3 DUP6 PUSH2 0x25C9 JUMP JUMPDEST AND SWAP1 DUP2 EXTCODESIZE ISZERO PUSH2 0xAF5 JUMPI DUP3 SWAP2 PUSH1 0x24 DUP4 SWAP3 PUSH1 0x40 MLOAD SWAP5 DUP6 SWAP4 DUP5 SWAP3 PUSH32 0x632447C900000000000000000000000000000000000000000000000000000000 DUP5 MSTORE PUSH1 0x4 DUP5 ADD MSTORE GAS CALL DUP1 ISZERO PUSH2 0x448 JUMPI PUSH2 0xADC JUMPI JUMPDEST DUP1 DUP1 PUSH2 0xA4B JUMP JUMPDEST DUP2 PUSH2 0xAE6 SWAP2 PUSH2 0x1FE3 JUMP JUMPDEST PUSH2 0xAF1 JUMPI DUP5 CODESIZE PUSH2 0xAD5 JUMP JUMPDEST DUP5 DUP1 REVERT JUMPDEST DUP3 DUP1 REVERT JUMPDEST DUP5 PUSH1 0x1 DUP4 PUSH32 0x16A9FD824A632BA02AF308C1F7597F156FA9EC25B50BF207E0C0C34D28D27AB6 PUSH1 0x60 DUP9 TIMESTAMP PUSH1 0x4 SSTORE PUSH1 0x2 SLOAD PUSH1 0x40 MLOAD SWAP2 TIMESTAMP DUP4 MSTORE CALLER SWAP1 DUP4 ADD MSTORE PUSH1 0x40 DUP3 ADD MSTORE LOG1 DUP3 SLOAD AND OR DUP2 SSTORE DUP1 RETURN JUMPDEST DUP6 SLOAD PUSH20 0xFFFFFFFFFFFFFFFFFFFFFFFFFFFFFFFFFFFFFFFF AND DUP5 MSTORE PUSH1 0x1 SWAP6 DUP7 ADD SWAP6 DUP9 SWAP6 POP SWAP4 ADD SWAP3 ADD PUSH2 0x9F5 JUMP JUMPDEST PUSH1 0x4 PUSH1 0x40 MLOAD PUSH32 0x37ED32E800000000000000000000000000000000000000000000000000000000 DUP2 MSTORE REVERT JUMPDEST POP CALLVALUE PUSH2 0x1A4 JUMPI PUSH1 0x20 PUSH32 0xFFFFFFFFFFFFFFFFFFFFFFFFFFFFFFFFFFFFFFFFFFFFFFFFFFFFFFFFFFFFFFFC CALLDATASIZE ADD SLT PUSH2 0x1A4 JUMPI PUSH1 0x4 CALLDATALOAD PUSH20 0xFFFFFFFFFFFFFFFFFFFFFFFFFFFFFFFFFFFFFFFF SWAP2 DUP3 DUP3 AND DUP1 SWAP3 SUB PUSH2 0x453 JUMPI PUSH1 0x40 SWAP2 DUP2 MSTORE PUSH1 0x1 PUSH1 0x20 MSTORE KECCAK256 PUSH2 0xC57 DUP3 DUP3 SLOAD AND SWAP2 DUP4 PUSH1 0x1 DUP3 ADD SLOAD AND SWAP4 PUSH1 0x3 DUP2 PUSH1 0x2 DUP5 ADD SLOAD AND SWAP3 ADD SLOAD AND SWAP1 PUSH1 0x40 MLOAD SWAP5 DUP6 SWAP5 DUP6 SWAP3 SWAP5 SWAP4 PUSH1 0x60 SWAP3 SWAP2 PUSH1 0x80 DUP6 ADD SWAP7 PUSH20 0xFFFFFFFFFFFFFFFFFFFFFFFFFFFFFFFFFFFFFFFF DUP1 SWAP5 DUP2 DUP1 SWAP5 AND DUP9 MSTORE AND PUSH1 0x20 DUP8 ADD MSTORE AND PUSH1 0x40 DUP6 ADD MSTORE AND SWAP2 ADD MSTORE JUMP JUMPDEST SUB SWAP1 RETURN JUMPDEST POP CALLVALUE PUSH2 0x1A4 JUMPI PUSH1 0x20 DUP1 PUSH32 0xFFFFFFFFFFFFFFFFFFFFFFFFFFFFFFFFFFFFFFFFFFFFFFFFFFFFFFFFFFFFFFFC CALLDATASIZE ADD SLT PUSH2 0xE26 JUMPI PUSH1 0x4 CALLDATALOAD PUSH20 0xFFFFFFFFFFFFFFFFFFFFFFFFFFFFFFFFFFFFFFFF DUP1 DUP3 AND DUP1 SWAP3 SUB PUSH2 0x453 JUMPI DUP4 SLOAD SWAP1 PUSH1 0xFF DUP3 AND ISZERO PUSH2 0xB6F JUMPI DUP5 DUP1 SWAP4 PUSH32 0xFFFFFFFFFFFFFFFFFFFFFFFFFFFFFFFFFFFFFFFFFFFFFFFFFFFFFFFFFFFFFF00 DUP1 SWAP5 AND DUP3 SSTORE PUSH1 0x4 PUSH1 0x40 MLOAD DUP1 SWAP7 DUP2 SWAP4 PUSH32 0x572B0CC00000000000000000000000000000000000000000000000000000000 DUP4 MSTORE GAS CALL SWAP3 DUP4 ISZERO PUSH2 0xE1B JUMPI DUP6 SWAP1 DUP7 SWAP5 PUSH2 0xDF4 JUMPI JUMPDEST POP DUP6 SWAP5 PUSH1 0x5 SLOAD SWAP7 JUMPDEST DUP6 MLOAD DUP2 LT ISZERO PUSH2 0xD72 JUMPI DUP1 PUSH2 0xD5D PUSH2 0xD4D DUP11 PUSH2 0xD47 PUSH2 0xD6D SWAP6 DUP12 PUSH2 0x2222 JUMP JUMPDEST MLOAD PUSH2 0x2527 JUMP JUMPDEST PUSH2 0xD57 DUP4 DUP11 PUSH2 0x2222 JUMP JUMPDEST MLOAD PUSH2 0x2437 JUMP JUMPDEST PUSH2 0xD67 DUP3 DUP10 PUSH2 0x2222 JUMP JUMPDEST MSTORE PUSH2 0x240A JUMP JUMPDEST PUSH2 0xD29 JUMP JUMPDEST POP DUP5 SWAP4 SWAP2 DUP7 SWAP2 PUSH1 0x1 DUP1 SWAP5 DUP5 SLOAD AND OR DUP4 SSTORE PUSH1 0x40 MLOAD SWAP5 PUSH1 0x40 DUP7 ADD PUSH1 0x40 DUP8 MSTORE DUP4 MLOAD DUP1 SWAP2 MSTORE DUP3 PUSH1 0x60 DUP9 ADD SWAP5 ADD SWAP2 DUP6 SWAP1 JUMPDEST DUP3 DUP3 LT PUSH2 0xDDD JUMPI POP POP POP POP DUP5 DUP3 SUB DUP2 DUP7 ADD MSTORE DUP1 DUP1 DUP8 MLOAD SWAP4 DUP5 DUP2 MSTORE ADD SWAP7 ADD SWAP3 JUMPDEST DUP3 DUP2 LT PUSH2 0xDCA JUMPI DUP6 DUP8 SUB DUP7 RETURN JUMPDEST DUP4 MLOAD DUP8 MSTORE SWAP6 DUP2 ADD SWAP6 SWAP3 DUP2 ADD SWAP3 DUP5 ADD PUSH2 0xDBD JUMP JUMPDEST DUP4 MLOAD DUP2 AND DUP7 MSTORE SWAP5 DUP5 ADD SWAP5 SWAP3 DUP5 ADD SWAP3 SWAP1 DUP8 ADD SWAP1 PUSH2 0xD9E JUMP JUMPDEST SWAP1 POP PUSH2 0xE13 SWAP2 SWAP4 POP RETURNDATASIZE DUP1 DUP8 DUP4 RETURNDATACOPY PUSH2 0xE0B DUP2 DUP4 PUSH2 0x1FE3 JUMP JUMPDEST DUP2 ADD SWAP1 PUSH2 0x2131 JUMP JUMPDEST SWAP3 SWAP1 CODESIZE PUSH2 0xD21 JUMP JUMPDEST PUSH1 0x40 MLOAD RETURNDATASIZE DUP8 DUP3 RETURNDATACOPY RETURNDATASIZE SWAP1 REVERT JUMPDEST POP DUP1 REVERT JUMPDEST POP CALLVALUE PUSH2 0x1A4 JUMPI DUP1 PUSH32 0xFFFFFFFFFFFFFFFFFFFFFFFFFFFFFFFFFFFFFFFFFFFFFFFFFFFFFFFFFFFFFFFC CALLDATASIZE ADD SLT PUSH2 0x1A4 JUMPI PUSH2 0xE61 PUSH2 0x2444 JUMP JUMPDEST PUSH32 0xFB8D0AF087D7B03D1F7BD996E77BA2CA8D33FF1ACB0C72A9D12C8987DF8652F2 PUSH1 0x20 PUSH1 0x7 SLOAD PUSH1 0xFF DUP1 DUP3 AND ISZERO AND DUP1 PUSH32 0xFFFFFFFFFFFFFFFFFFFFFFFFFFFFFFFFFFFFFFFFFFFFFFFFFFFFFFFFFFFFFF00 DUP4 AND OR PUSH1 0x7 SSTORE DUP5 PUSH1 0x40 MLOAD SWAP3 AND OR ISZERO ISZERO DUP2 MSTORE LOG1 DUP1 RETURN JUMPDEST POP CALLVALUE PUSH2 0x1A4 JUMPI PUSH1 0x20 PUSH32 0xFFFFFFFFFFFFFFFFFFFFFFFFFFFFFFFFFFFFFFFFFFFFFFFFFFFFFFFFFFFFFFFC CALLDATASIZE ADD SLT PUSH2 0x1A4 JUMPI PUSH20 0xFFFFFFFFFFFFFFFFFFFFFFFFFFFFFFFFFFFFFFFF PUSH1 0x4 CALLDATALOAD DUP2 DUP2 AND SWAP3 SWAP2 DUP4 DUP3 SUB PUSH2 0x453 JUMPI PUSH2 0xF21 PUSH2 0x2444 JUMP JUMPDEST DUP4 DUP4 MSTORE PUSH1 0x3 SWAP4 DUP5 PUSH1 0x20 MSTORE PUSH1 0xFF PUSH1 0x40 DUP6 KECCAK256 SLOAD AND ISZERO PUSH2 0x1114 JUMPI DUP1 DUP5 MSTORE DUP5 PUSH1 0x20 MSTORE PUSH1 0x40 DUP5 KECCAK256 PUSH32 0xFFFFFFFFFFFFFFFFFFFFFFFFFFFFFFFFFFFFFFFFFFFFFFFFFFFFFFFFFFFFFF00 DUP2 SLOAD AND SWAP1 SSTORE PUSH1 0x2 SWAP2 DUP3 SLOAD SWAP6 DUP6 JUMPDEST DUP8 DUP2 LT PUSH2 0xFCD JUMPI JUMPDEST DUP5 SLOAD PUSH1 0x40 DUP1 MLOAD PUSH20 0xFFFFFFFFFFFFFFFFFFFFFFFFFFFFFFFFFFFFFFFF DUP10 AND DUP2 MSTORE PUSH1 0x20 DUP2 ADD SWAP3 SWAP1 SWAP3 MSTORE DUP9 SWAP2 PUSH32 0xBE0D2CC926911D1413D431090D31DD4A56DE7770AFB1245163F0E0AC7916DB21 SWAP2 DUP2 SWAP1 DUP2 ADD PUSH2 0x3C6 JUMP JUMPDEST DUP4 DUP4 PUSH2 0xFD9 DUP4 DUP9 PUSH2 0x20B1 JUMP JUMPDEST SWAP1 SLOAD SWAP1 DUP6 SHL SHR AND EQ PUSH2 0xFF3 JUMPI PUSH2 0xFEE SWAP1 PUSH2 0x240A JUMP JUMPDEST PUSH2 0xF71 JUMP JUMPDEST SWAP3 POP PUSH32 0xFFFFFFFFFFFFFFFFFFFFFFFFFFFFFFFFFFFFFFFFFFFFFFFFFFFFFFFFFFFFFFFF SWAP7 DUP8 DUP2 ADD SWAP1 DUP2 GT PUSH2 0x10E7 JUMPI SWAP2 PUSH2 0x1041 SWAP2 PUSH2 0x1034 PUSH2 0x1073 SWAP6 SWAP5 DUP8 PUSH2 0x20B1 JUMP JUMPDEST SWAP1 SLOAD SWAP2 SHL SHR AND SWAP2 DUP5 PUSH2 0x20B1 JUMP JUMPDEST SWAP1 SWAP2 SWAP1 DUP3 SLOAD SWAP1 PUSH1 0x3 SHL SWAP2 PUSH20 0xFFFFFFFFFFFFFFFFFFFFFFFFFFFFFFFFFFFFFFFF SWAP3 DUP4 DUP2 SHL SWAP4 DUP5 SWAP3 AND SWAP1 SHL AND SWAP2 NOT AND OR SWAP1 SSTORE JUMP JUMPDEST DUP1 SLOAD SWAP4 DUP5 ISZERO PUSH2 0x10BA JUMPI PUSH32 0xBE0D2CC926911D1413D431090D31DD4A56DE7770AFB1245163F0E0AC7916DB21 SWAP4 SWAP5 ADD PUSH2 0x10AE DUP6 PUSH2 0x1041 DUP4 DUP6 PUSH2 0x20B1 JUMP JUMPDEST DUP2 SSTORE DUP4 SWAP3 CODESIZE DUP1 DUP1 PUSH2 0xF79 JUMP JUMPDEST PUSH1 0x24 DUP5 PUSH32 0x4E487B7100000000000000000000000000000000000000000000000000000000 DUP2 MSTORE PUSH1 0x31 PUSH1 0x4 MSTORE REVERT JUMPDEST PUSH1 0x24 DUP8 PUSH32 0x4E487B7100000000000000000000000000000000000000000000000000000000 DUP2 MSTORE PUSH1 0x11 PUSH1 0x4 MSTORE REVERT JUMPDEST PUSH1 0x4 PUSH1 0x40 MLOAD PUSH32 0xA4F731E000000000000000000000000000000000000000000000000000000000 DUP2 MSTORE REVERT JUMPDEST POP CALLVALUE PUSH2 0x1A4 JUMPI PUSH1 0x20 SWAP1 DUP2 PUSH32 0xFFFFFFFFFFFFFFFFFFFFFFFFFFFFFFFFFFFFFFFFFFFFFFFFFFFFFFFFFFFFFFFC CALLDATASIZE ADD SLT PUSH2 0x1A4 JUMPI PUSH1 0x4 CALLDATALOAD SWAP1 PUSH20 0xFFFFFFFFFFFFFFFFFFFFFFFFFFFFFFFFFFFFFFFF DUP1 DUP4 AND SWAP1 DUP2 DUP5 SUB PUSH2 0x453 JUMPI DUP3 SLOAD SWAP4 PUSH1 0xFF SWAP6 DUP7 DUP7 AND ISZERO PUSH2 0xB6F JUMPI PUSH32 0xFFFFFFFFFFFFFFFFFFFFFFFFFFFFFFFFFFFFFFFFFFFFFFFFFFFFFFFFFFFFFF00 DUP1 SWAP7 AND DUP6 SSTORE DUP7 PUSH1 0x7 SLOAD AND ISZERO PUSH2 0x1395 JUMPI DUP5 DUP1 SWAP5 PUSH1 0x4 PUSH1 0x40 MLOAD DUP1 SWAP8 DUP2 SWAP4 PUSH32 0x572B0CC00000000000000000000000000000000000000000000000000000000 DUP4 MSTORE GAS CALL SWAP7 DUP8 ISZERO PUSH2 0xE1B JUMPI DUP6 SWAP5 DUP7 SWAP9 PUSH2 0x1373 JUMPI JUMPDEST POP DUP6 JUMPDEST DUP6 MLOAD DUP2 LT ISZERO PUSH2 0x1366 JUMPI PUSH2 0x1229 DUP2 DUP11 PUSH2 0x2222 JUMP JUMPDEST MLOAD ISZERO ISZERO DUP1 PUSH2 0x1346 JUMPI JUMPDEST PUSH2 0x1245 JUMPI JUMPDEST PUSH2 0x1240 SWAP1 PUSH2 0x240A JUMP JUMPDEST PUSH2 0x1216 JUMP JUMPDEST DUP5 DUP2 PUSH2 0x12C0 DUP9 DUP13 DUP9 PUSH2 0x12BA DUP7 PUSH2 0x128B DUP8 PUSH2 0x126C PUSH2 0x1262 DUP3 DUP9 PUSH2 0x2222 JUMP JUMPDEST MLOAD PUSH1 0x6 SLOAD SWAP1 PUSH2 0x2527 JUMP JUMPDEST SWAP7 PUSH2 0x1286 DUP9 DUP6 PUSH2 0x127C DUP6 DUP6 PUSH2 0x2222 JUMP JUMPDEST MLOAD AND DUP9 CALLER SWAP2 PUSH2 0x2570 JUMP JUMPDEST PUSH2 0x2222 JUMP JUMPDEST MLOAD AND SWAP4 PUSH2 0xD57 PUSH32 0x0 SWAP8 DUP9 SWAP6 PUSH2 0x2222 JUMP JUMPDEST SWAP3 PUSH2 0x2570 JUMP JUMPDEST AND DUP6 PUSH2 0x12CC DUP4 DUP10 PUSH2 0x2222 JUMP JUMPDEST MLOAD AND DUP2 EXTCODESIZE ISZERO PUSH2 0x1342 JUMPI DUP9 SWAP2 PUSH1 0x24 DUP4 SWAP3 PUSH1 0x40 MLOAD SWAP5 DUP6 SWAP4 DUP5 SWAP3 PUSH32 0x632447C900000000000000000000000000000000000000000000000000000000 DUP5 MSTORE PUSH1 0x4 DUP5 ADD MSTORE GAS CALL DUP1 ISZERO PUSH2 0x1337 JUMPI SWAP1 DUP9 SWAP2 PUSH2 0x1322 JUMPI JUMPDEST POP POP PUSH2 0x1237 JUMP JUMPDEST DUP2 PUSH2 0x132C SWAP2 PUSH2 0x1FE3 JUMP JUMPDEST PUSH2 0x43D JUMPI DUP7 CODESIZE PUSH2 0x131B JUMP JUMPDEST PUSH1 0x40 MLOAD RETURNDATASIZE DUP11 DUP3 RETURNDATACOPY RETURNDATASIZE SWAP1 REVERT JUMPDEST DUP9 DUP1 REVERT JUMPDEST POP DUP5 PUSH2 0x1352 DUP3 DUP9 PUSH2 0x2222 JUMP JUMPDEST MLOAD AND DUP8 MSTORE PUSH1 0x3 DUP4 MSTORE DUP2 PUSH1 0x40 DUP9 KECCAK256 SLOAD AND PUSH2 0x1232 JUMP JUMPDEST DUP7 PUSH1 0x1 DUP10 DUP3 SLOAD AND OR DUP2 SSTORE DUP1 RETURN JUMPDEST SWAP1 SWAP8 POP PUSH2 0x138B SWAP2 SWAP5 POP RETURNDATASIZE DUP1 DUP8 DUP4 RETURNDATACOPY PUSH2 0xE0B DUP2 DUP4 PUSH2 0x1FE3 JUMP JUMPDEST SWAP4 SWAP1 SWAP4 SWAP7 CODESIZE PUSH2 0x1213 JUMP JUMPDEST PUSH1 0x4 PUSH1 0x40 MLOAD PUSH32 0xC8A2FF0000000000000000000000000000000000000000000000000000000000 DUP2 MSTORE REVERT JUMPDEST POP CALLVALUE PUSH2 0x1A4 JUMPI PUSH1 0x20 PUSH32 0xFFFFFFFFFFFFFFFFFFFFFFFFFFFFFFFFFFFFFFFFFFFFFFFFFFFFFFFFFFFFFFFC CALLDATASIZE ADD SLT PUSH2 0x1A4 JUMPI PUSH1 0x4 CALLDATALOAD SWAP1 PUSH20 0xFFFFFFFFFFFFFFFFFFFFFFFFFFFFFFFFFFFFFFFF DUP3 AND SWAP2 DUP3 DUP2 SUB PUSH2 0x453 JUMPI PUSH2 0x141A PUSH2 0x2444 JUMP JUMPDEST DUP3 DUP3 MSTORE PUSH1 0x3 PUSH1 0x20 MSTORE PUSH1 0xFF PUSH1 0x40 DUP4 KECCAK256 SLOAD AND PUSH2 0x150E JUMPI PUSH1 0x2 SLOAD SWAP3 PUSH9 0x10000000000000000 DUP5 LT ISZERO PUSH2 0x14E1 JUMPI PUSH2 0x147B DUP3 PUSH2 0x1041 DUP7 PUSH1 0x1 PUSH32 0x68E3E9397770D9DFA88C0953A34E1A70A05416B3895957F5B689787A920791C4 SWAP8 SWAP9 ADD PUSH1 0x2 SSTORE PUSH1 0x2 PUSH2 0x20B1 JUMP JUMPDEST DUP4 MSTORE PUSH1 0x3 PUSH1 0x20 SWAP1 DUP2 MSTORE PUSH1 0x40 DUP1 DUP6 KECCAK256 DUP1 SLOAD PUSH32 0xFFFFFFFFFFFFFFFFFFFFFFFFFFFFFFFFFFFFFFFFFFFFFFFFFFFFFFFFFFFFFF00 AND PUSH1 0x1 OR SWAP1 SSTORE PUSH1 0x2 SLOAD DUP2 MLOAD PUSH20 0xFFFFFFFFFFFFFFFFFFFFFFFFFFFFFFFFFFFFFFFF SWAP1 SWAP5 AND DUP5 MSTORE SWAP2 DUP4 ADD SWAP2 SWAP1 SWAP2 MSTORE DUP2 SWAP1 DUP2 ADD PUSH2 0x3C6 JUMP JUMPDEST PUSH1 0x24 DUP4 PUSH32 0x4E487B7100000000000000000000000000000000000000000000000000000000 DUP2 MSTORE PUSH1 0x41 PUSH1 0x4 MSTORE REVERT JUMPDEST PUSH1 0x4 PUSH1 0x40 MLOAD PUSH32 0x588FA2CC00000000000000000000000000000000000000000000000000000000 DUP2 MSTORE REVERT JUMPDEST POP CALLVALUE PUSH2 0x1A4 JUMPI DUP1 PUSH32 0xFFFFFFFFFFFFFFFFFFFFFFFFFFFFFFFFFFFFFFFFFFFFFFFFFFFFFFFFFFFFFFFC CALLDATASIZE ADD SLT PUSH2 0x1A4 JUMPI PUSH1 0x40 MLOAD SWAP1 DUP1 PUSH1 0x8 SLOAD SWAP2 PUSH1 0x1 DUP4 DUP2 SHR SWAP3 DUP2 DUP6 AND SWAP5 DUP6 ISZERO PUSH2 0x1691 JUMPI JUMPDEST PUSH1 0x20 SWAP6 DUP7 DUP7 LT DUP2 EQ PUSH2 0x1664 JUMPI DUP6 DUP9 MSTORE DUP8 SWAP5 SWAP4 SWAP3 SWAP2 DUP8 SWAP1 DUP3 ISZERO PUSH2 0x1623 JUMPI POP POP PUSH1 0x1 EQ PUSH2 0x15C9 JUMPI JUMPDEST POP POP PUSH2 0x15B5 SWAP3 POP SUB DUP4 PUSH2 0x1FE3 JUMP JUMPDEST PUSH2 0xC57 PUSH1 0x40 MLOAD SWAP3 DUP3 DUP5 SWAP4 DUP5 MSTORE DUP4 ADD SWAP1 PUSH2 0x2053 JUMP JUMPDEST SWAP1 DUP6 SWAP3 POP PUSH1 0x8 DUP3 MSTORE PUSH32 0xF3F7A9FE364FAAB93B216DA50A3214154F22A0A2B415B23A84C8169E8B636EE3 JUMPDEST DUP6 DUP4 LT PUSH2 0x160B JUMPI POP POP PUSH2 0x15B5 SWAP4 POP DUP3 ADD ADD CODESIZE DUP1 PUSH2 0x15A7 JUMP JUMPDEST DUP1 SLOAD DUP4 DUP10 ADD DUP6 ADD MSTORE DUP8 SWAP5 POP DUP7 SWAP4 SWAP1 SWAP3 ADD SWAP2 DUP2 ADD PUSH2 0x15F3 JUMP JUMPDEST SWAP2 POP SWAP4 POP PUSH2 0x15B5 SWAP6 SWAP3 POP PUSH32 0xFFFFFFFFFFFFFFFFFFFFFFFFFFFFFFFFFFFFFFFFFFFFFFFFFFFFFFFFFFFFFF00 SWAP2 POP AND DUP3 DUP5 ADD MSTORE ISZERO ISZERO PUSH1 0x5 SHL DUP3 ADD ADD CODESIZE DUP1 PUSH2 0x15A7 JUMP JUMPDEST PUSH1 0x24 DUP4 PUSH32 0x4E487B7100000000000000000000000000000000000000000000000000000000 DUP2 MSTORE PUSH1 0x22 PUSH1 0x4 MSTORE REVERT JUMPDEST SWAP4 PUSH1 0x7F AND SWAP4 PUSH2 0x1581 JUMP JUMPDEST DUP3 CALLVALUE PUSH2 0x1A4 JUMPI PUSH1 0x40 PUSH32 0xFFFFFFFFFFFFFFFFFFFFFFFFFFFFFFFFFFFFFFFFFFFFFFFFFFFFFFFFFFFFFFFC CALLDATASIZE ADD SLT PUSH2 0x1A4 JUMPI PUSH8 0xFFFFFFFFFFFFFFFF PUSH1 0x4 CALLDATALOAD GT PUSH2 0x1A4 JUMPI CALLDATASIZE PUSH1 0x23 PUSH1 0x4 CALLDATALOAD ADD SLT ISZERO PUSH2 0x1A4 JUMPI PUSH8 0xFFFFFFFFFFFFFFFF PUSH1 0x4 CALLDATALOAD PUSH1 0x4 ADD CALLDATALOAD GT PUSH2 0x1A4 JUMPI CALLDATASIZE PUSH1 0x24 PUSH1 0x4 CALLDATALOAD PUSH1 0x4 ADD CALLDATALOAD PUSH1 0x5 SHL PUSH1 0x4 CALLDATALOAD ADD ADD GT PUSH2 0x1A4 JUMPI PUSH1 0x24 CALLDATALOAD SWAP2 PUSH20 0xFFFFFFFFFFFFFFFFFFFFFFFFFFFFFFFFFFFFFFFF DUP4 AND DUP1 SWAP4 SUB PUSH2 0xE26 JUMPI DUP2 SLOAD SWAP1 PUSH1 0xFF DUP3 AND ISZERO PUSH2 0x1F9A JUMPI POP PUSH32 0xFFFFFFFFFFFFFFFFFFFFFFFFFFFFFFFFFFFFFFFFFFFFFFFFFFFFFFFFFFFFFF00 AND DUP2 SSTORE DUP1 SWAP2 DUP2 MSTORE PUSH1 0x1 PUSH1 0x20 MSTORE PUSH1 0x40 DUP2 KECCAK256 SWAP1 PUSH20 0xFFFFFFFFFFFFFFFFFFFFFFFFFFFFFFFFFFFFFFFF PUSH1 0x1 DUP4 ADD SLOAD AND ISZERO PUSH2 0x1F70 JUMPI DUP1 DUP1 PUSH20 0xFFFFFFFFFFFFFFFFFFFFFFFFFFFFFFFFFFFFFFFF DUP5 SLOAD AND PUSH1 0x4 PUSH1 0x40 MLOAD DUP1 SWAP5 DUP2 SWAP4 PUSH32 0x572B0CC00000000000000000000000000000000000000000000000000000000 DUP4 MSTORE GAS CALL SWAP3 DUP4 ISZERO PUSH2 0x448 JUMPI DUP3 SWAP2 DUP4 SWAP5 PUSH2 0x1F52 JUMPI JUMPDEST POP DUP3 JUMPDEST DUP3 MLOAD DUP2 LT ISZERO PUSH2 0x1E9B JUMPI PUSH2 0x1804 DUP2 DUP7 PUSH2 0x2222 JUMP JUMPDEST MLOAD ISZERO ISZERO DUP1 PUSH2 0x1E65 JUMPI JUMPDEST PUSH2 0x181A JUMPI JUMPDEST PUSH1 0x1 ADD PUSH2 0x17F1 JUMP JUMPDEST SWAP5 PUSH2 0x186B PUSH20 0xFFFFFFFFFFFFFFFFFFFFFFFFFFFFFFFFFFFFFFFF PUSH2 0x183D DUP9 DUP7 PUSH2 0x2222 JUMP JUMPDEST MLOAD AND PUSH20 0xFFFFFFFFFFFFFFFFFFFFFFFFFFFFFFFFFFFFFFFF DUP5 SLOAD AND SWAP1 PUSH2 0x1862 DUP10 DUP10 PUSH2 0x2222 JUMP JUMPDEST MLOAD SWAP2 ADDRESS SWAP2 PUSH2 0x2570 JUMP JUMPDEST PUSH2 0x18B4 PUSH20 0xFFFFFFFFFFFFFFFFFFFFFFFFFFFFFFFFFFFFFFFF PUSH2 0x188D DUP9 DUP7 PUSH2 0x2222 JUMP JUMPDEST MLOAD AND PUSH2 0x18A6 PUSH2 0x189C DUP10 DUP10 PUSH2 0x2222 JUMP JUMPDEST MLOAD PUSH1 0x5 SLOAD SWAP1 PUSH2 0x2527 JUMP JUMPDEST DUP1 PUSH2 0x1E34 JUMPI JUMPDEST POP ADDRESS SWAP1 PUSH2 0x2612 JUMP JUMPDEST PUSH20 0xFFFFFFFFFFFFFFFFFFFFFFFFFFFFFFFFFFFFFFFF PUSH2 0x18D3 DUP9 DUP7 PUSH2 0x2222 JUMP JUMPDEST MLOAD PUSH1 0x2 DUP6 ADD SLOAD PUSH20 0xFFFFFFFFFFFFFFFFFFFFFFFFFFFFFFFFFFFFFFFF AND SWAP2 AND DUP2 EQ PUSH2 0x1E21 JUMPI PUSH1 0x4 CALLDATALOAD PUSH1 0x4 ADD CALLDATALOAD DUP9 LT ISZERO PUSH2 0x1DF4 JUMPI PUSH1 0x24 DUP9 PUSH1 0x5 SHL PUSH1 0x4 CALLDATALOAD ADD ADD CALLDATALOAD SWAP2 PUSH32 0xFFFFFFFFFFFFFFFFFFFFFFFFFFFFFFFFFFFFFFFFFFFFFFFFFFFFFFFFFFFFFFBD PUSH1 0x4 CALLDATALOAD CALLDATASIZE SUB ADD DUP4 SLT ISZERO PUSH2 0x43D JUMPI PUSH8 0xFFFFFFFFFFFFFFFF PUSH1 0x24 DUP5 PUSH1 0x4 CALLDATALOAD ADD ADD CALLDATALOAD GT PUSH2 0x43D JUMPI PUSH1 0x4 CALLDATALOAD DUP4 ADD PUSH1 0x24 DUP2 ADD CALLDATALOAD CALLDATASIZE SUB PUSH1 0x44 SWAP1 SWAP2 ADD SGT PUSH2 0x43D JUMPI PUSH20 0xFFFFFFFFFFFFFFFFFFFFFFFFFFFFFFFFFFFFFFFF PUSH2 0x198C DUP11 DUP9 PUSH2 0x2222 JUMP JUMPDEST MLOAD PUSH1 0x3 DUP8 ADD SLOAD SWAP2 AND SWAP2 PUSH1 0x4 CALLDATALOAD DUP6 ADD PUSH1 0x24 DUP2 ADD CALLDATALOAD DUP2 ADD SUB SWAP2 PUSH20 0xFFFFFFFFFFFFFFFFFFFFFFFFFFFFFFFFFFFFFFFF AND PUSH2 0x140 DUP4 SLT PUSH2 0x1DF0 JUMPI PUSH1 0xE0 PUSH32 0xFFFFFFFFFFFFFFFFFFFFFFFFFFFFFFFFFFFFFFFFFFFFFFFFFFFFFFFFFFFFFFE0 PUSH2 0x19F5 PUSH1 0x44 DUP10 PUSH1 0x4 CALLDATALOAD ADD ADD PUSH2 0x1FC2 JUMP JUMPDEST SWAP5 ADD SLT PUSH2 0x1DF0 JUMPI PUSH1 0x40 MLOAD SWAP6 PUSH2 0x1A0B PUSH1 0xE0 DUP9 PUSH2 0x1FE3 JUMP JUMPDEST PUSH2 0x1A1B PUSH1 0x64 DUP3 PUSH1 0x4 CALLDATALOAD ADD ADD PUSH2 0x1FC2 JUMP JUMPDEST DUP8 MSTORE PUSH2 0x1A2D PUSH1 0x84 DUP3 PUSH1 0x4 CALLDATALOAD ADD ADD PUSH2 0x1FC2 JUMP JUMPDEST PUSH1 0x20 DUP9 ADD MSTORE PUSH2 0x1A42 PUSH1 0xA4 DUP3 PUSH1 0x4 CALLDATALOAD ADD ADD PUSH2 0x1FC2 JUMP JUMPDEST PUSH1 0x40 DUP9 ADD MSTORE PUSH2 0x1A57 PUSH1 0xC4 DUP3 PUSH1 0x4 CALLDATALOAD ADD ADD PUSH2 0x1FC2 JUMP JUMPDEST PUSH1 0x60 DUP9 ADD MSTORE PUSH1 0x4 CALLDATALOAD DUP2 ADD PUSH1 0xE4 DUP2 ADD CALLDATALOAD PUSH1 0x80 DUP10 ADD MSTORE PUSH2 0x104 DUP2 ADD CALLDATALOAD PUSH1 0xA0 DUP10 ADD MSTORE PUSH2 0x124 DUP2 ADD CALLDATALOAD PUSH1 0xC0 DUP10 ADD MSTORE PUSH8 0xFFFFFFFFFFFFFFFF PUSH2 0x144 SWAP1 SWAP2 ADD CALLDATALOAD GT PUSH2 0x1DEC JUMPI PUSH2 0x1AB8 PUSH1 0x4 CALLDATALOAD DUP3 ADD PUSH1 0x24 DUP2 ADD CALLDATALOAD DUP2 ADD PUSH1 0x44 SWAP1 DUP2 ADD SWAP2 PUSH2 0x144 DUP2 ADD CALLDATALOAD ADD ADD PUSH2 0x22AC JUMP JUMPDEST POP PUSH8 0xFFFFFFFFFFFFFFFF PUSH2 0x164 DUP3 PUSH1 0x4 CALLDATALOAD ADD ADD CALLDATALOAD GT PUSH2 0x1DEC JUMPI PUSH2 0x1AF3 SWAP1 PUSH1 0x4 CALLDATALOAD ADD PUSH1 0x24 DUP2 ADD CALLDATALOAD DUP2 ADD PUSH1 0x44 SWAP1 DUP2 ADD SWAP2 PUSH2 0x164 DUP2 ADD CALLDATALOAD ADD ADD PUSH2 0x22AC JUMP JUMPDEST SWAP5 DUP3 PUSH1 0x80 DUP9 ADD MLOAD SUB PUSH2 0x1DE1 JUMPI JUMPDEST DUP5 PUSH20 0xFFFFFFFFFFFFFFFFFFFFFFFFFFFFFFFFFFFFFFFF DUP9 MLOAD AND SUB PUSH2 0x1DB7 JUMPI PUSH20 0xFFFFFFFFFFFFFFFFFFFFFFFFFFFFFFFFFFFFFFFF PUSH1 0x20 DUP9 ADD MLOAD AND SUB PUSH2 0x1D8D JUMPI PUSH20 0xFFFFFFFFFFFFFFFFFFFFFFFFFFFFFFFFFFFFFFFF PUSH1 0x60 DUP8 ADD MLOAD AND SUB PUSH2 0x1D63 JUMPI PUSH1 0x40 SWAP4 PUSH2 0x1B98 PUSH2 0x1CF2 SWAP3 PUSH20 0x1111111254EEB25477B68FB85ED929F73A960582 PUSH20 0xFFFFFFFFFFFFFFFFFFFFFFFFFFFFFFFFFFFFFFFF SWAP7 PUSH2 0x22F3 JUMP JUMPDEST PUSH2 0x1CC1 PUSH2 0x1BA4 DUP12 PUSH2 0x2272 JUMP JUMPDEST PUSH2 0x1BB0 DUP8 MLOAD SWAP2 DUP3 PUSH2 0x1FE3 JUMP JUMPDEST DUP12 DUP2 MSTORE PUSH32 0xFFFFFFFFFFFFFFFFFFFFFFFFFFFFFFFFFFFFFFFFFFFFFFFFFFFFFFFFFFFFFFE0 PUSH2 0x1BDD DUP14 PUSH2 0x2272 JUMP JUMPDEST ADD CALLDATASIZE PUSH1 0x20 DUP4 ADD CALLDATACOPY PUSH1 0xC0 DUP8 MLOAD SWAP9 DUP10 SWAP8 DUP9 SWAP8 PUSH32 0x12AA3CAF00000000000000000000000000000000000000000000000000000000 DUP10 MSTORE AND PUSH1 0x4 DUP9 ADD MSTORE PUSH20 0xFFFFFFFFFFFFFFFFFFFFFFFFFFFFFFFFFFFFFFFF DUP2 MLOAD AND PUSH1 0x24 DUP9 ADD MSTORE PUSH20 0xFFFFFFFFFFFFFFFFFFFFFFFFFFFFFFFFFFFFFFFF PUSH1 0x20 DUP3 ADD MLOAD AND PUSH1 0x44 DUP9 ADD MSTORE PUSH20 0xFFFFFFFFFFFFFFFFFFFFFFFFFFFFFFFFFFFFFFFF DUP10 DUP3 ADD MLOAD AND PUSH1 0x64 DUP9 ADD MSTORE PUSH20 0xFFFFFFFFFFFFFFFFFFFFFFFFFFFFFFFFFFFFFFFF PUSH1 0x60 DUP3 ADD MLOAD AND PUSH1 0x84 DUP9 ADD MSTORE PUSH1 0x80 DUP2 ADD MLOAD PUSH1 0xA4 DUP9 ADD MSTORE PUSH1 0xA0 DUP2 ADD MLOAD PUSH1 0xC4 DUP9 ADD MSTORE ADD MLOAD PUSH1 0xE4 DUP7 ADD MSTORE PUSH2 0x140 PUSH2 0x104 DUP7 ADD MSTORE PUSH2 0x144 DUP6 ADD SWAP1 PUSH2 0x2053 JUMP JUMPDEST SWAP1 PUSH32 0xFFFFFFFFFFFFFFFFFFFFFFFFFFFFFFFFFFFFFFFFFFFFFFFFFFFFFFFFFFFFFFFC DUP5 DUP4 SUB ADD PUSH2 0x124 DUP6 ADD MSTORE PUSH2 0x2053 JUMP JUMPDEST SUB DUP2 DUP9 PUSH20 0x1111111254EEB25477B68FB85ED929F73A960582 GAS CALL SWAP1 DUP2 ISZERO PUSH2 0xE1B JUMPI DUP6 SWAP2 PUSH2 0x1D30 JUMPI JUMPDEST POP PUSH2 0x1D27 SWAP1 PUSH1 0x1 SWAP3 PUSH2 0x2236 JUMP JUMPDEST SWAP6 JUMPDEST SWAP1 POP PUSH2 0x1812 JUMP JUMPDEST SWAP1 POP PUSH1 0x40 DUP2 RETURNDATASIZE PUSH1 0x40 GT PUSH2 0x1D5B JUMPI JUMPDEST DUP2 PUSH2 0x1D4B PUSH1 0x40 SWAP4 DUP4 PUSH2 0x1FE3 JUMP JUMPDEST DUP2 ADD SUB SLT PUSH2 0xAF1 JUMPI MLOAD PUSH1 0x1 PUSH2 0x1D1A JUMP JUMPDEST RETURNDATASIZE SWAP2 POP PUSH2 0x1D3E JUMP JUMPDEST PUSH1 0x4 PUSH1 0x40 MLOAD PUSH32 0xAC71D77A00000000000000000000000000000000000000000000000000000000 DUP2 MSTORE REVERT JUMPDEST PUSH1 0x4 PUSH1 0x40 MLOAD PUSH32 0xB8806C1D00000000000000000000000000000000000000000000000000000000 DUP2 MSTORE REVERT JUMPDEST PUSH1 0x4 PUSH1 0x40 MLOAD PUSH32 0x84B1DDE800000000000000000000000000000000000000000000000000000000 DUP2 MSTORE REVERT JUMPDEST DUP3 PUSH1 0x80 DUP9 ADD MSTORE PUSH2 0x1B00 JUMP JUMPDEST DUP11 DUP1 REVERT JUMPDEST DUP10 DUP1 REVERT JUMPDEST PUSH1 0x24 DUP7 PUSH32 0x4E487B7100000000000000000000000000000000000000000000000000000000 DUP2 MSTORE PUSH1 0x32 PUSH1 0x4 MSTORE REVERT JUMPDEST POP PUSH2 0x1E2E SWAP1 PUSH1 0x1 SWAP3 PUSH2 0x2236 JUMP JUMPDEST SWAP6 PUSH2 0x1D29 JUMP JUMPDEST PUSH2 0x1E5F SWAP1 PUSH32 0x0 DUP4 PUSH2 0x25C9 JUMP JUMPDEST DUP9 PUSH2 0x18AC JUMP JUMPDEST POP PUSH20 0xFFFFFFFFFFFFFFFFFFFFFFFFFFFFFFFFFFFFFFFF PUSH2 0x1E85 DUP3 DUP6 PUSH2 0x2222 JUMP JUMPDEST MLOAD AND DUP5 MSTORE PUSH1 0x3 PUSH1 0x20 MSTORE PUSH1 0xFF PUSH1 0x40 DUP6 KECCAK256 SLOAD AND PUSH2 0x180D JUMP JUMPDEST DUP4 DUP7 DUP2 PUSH20 0xFFFFFFFFFFFFFFFFFFFFFFFFFFFFFFFFFFFFFFFF DUP6 SLOAD AND DUP1 EXTCODESIZE ISZERO PUSH2 0xE26 JUMPI DUP2 SWAP1 PUSH1 0x24 PUSH1 0x40 MLOAD DUP1 SWAP7 DUP2 SWAP4 PUSH32 0x81F5B6F400000000000000000000000000000000000000000000000000000000 DUP4 MSTORE DUP8 PUSH1 0x4 DUP5 ADD MSTORE GAS CALL SWAP3 DUP4 ISZERO PUSH2 0x1F45 JUMPI DUP2 PUSH1 0x20 SWAP5 PUSH2 0x1F35 JUMPI JUMPDEST SLOAD PUSH32 0xFFFFFFFFFFFFFFFFFFFFFFFFFFFFFFFFFFFFFFFFFFFFFFFFFFFFFFFFFFFFFF00 AND PUSH1 0x1 OR SWAP1 SWAP2 SSTORE POP PUSH1 0x40 MLOAD SWAP1 DUP2 MSTORE RETURN JUMPDEST PUSH2 0x1F3E SWAP2 PUSH2 0x1FE3 JUMP JUMPDEST DUP4 DUP2 PUSH2 0x1F03 JUMP JUMPDEST POP PUSH1 0x40 MLOAD SWAP1 RETURNDATASIZE SWAP1 DUP3 RETURNDATACOPY RETURNDATASIZE SWAP1 REVERT JUMPDEST SWAP1 SWAP4 POP PUSH2 0x1F69 SWAP2 POP RETURNDATASIZE DUP1 DUP5 DUP4 RETURNDATACOPY PUSH2 0xE0B DUP2 DUP4 PUSH2 0x1FE3 JUMP JUMPDEST SWAP3 DUP6 PUSH2 0x17EE JUMP JUMPDEST PUSH1 0x4 PUSH1 0x40 MLOAD PUSH32 0xFADA4A4700000000000000000000000000000000000000000000000000000000 DUP2 MSTORE REVERT JUMPDEST DUP1 PUSH32 0x37ED32E800000000000000000000000000000000000000000000000000000000 PUSH1 0x4 SWAP3 MSTORE REVERT JUMPDEST CALLDATALOAD SWAP1 PUSH20 0xFFFFFFFFFFFFFFFFFFFFFFFFFFFFFFFFFFFFFFFF DUP3 AND DUP3 SUB PUSH2 0x453 JUMPI JUMP JUMPDEST SWAP1 PUSH1 0x1F PUSH32 0xFFFFFFFFFFFFFFFFFFFFFFFFFFFFFFFFFFFFFFFFFFFFFFFFFFFFFFFFFFFFFFE0 SWAP2 ADD AND DUP2 ADD SWAP1 DUP2 LT PUSH8 0xFFFFFFFFFFFFFFFF DUP3 GT OR PUSH2 0x2024 JUMPI PUSH1 0x40 MSTORE JUMP JUMPDEST PUSH32 0x4E487B7100000000000000000000000000000000000000000000000000000000 PUSH1 0x0 MSTORE PUSH1 0x41 PUSH1 0x4 MSTORE PUSH1 0x24 PUSH1 0x0 REVERT JUMPDEST SWAP2 SWAP1 DUP3 MLOAD SWAP3 DUP4 DUP3 MSTORE PUSH1 0x0 JUMPDEST DUP5 DUP2 LT PUSH2 0x209D JUMPI POP POP PUSH32 0xFFFFFFFFFFFFFFFFFFFFFFFFFFFFFFFFFFFFFFFFFFFFFFFFFFFFFFFFFFFFFFE0 PUSH1 0x1F DUP5 PUSH1 0x0 PUSH1 0x20 DUP1 SWAP7 SWAP8 DUP7 ADD ADD MSTORE ADD AND ADD ADD SWAP1 JUMP JUMPDEST PUSH1 0x20 DUP2 DUP4 ADD DUP2 ADD MLOAD DUP5 DUP4 ADD DUP3 ADD MSTORE ADD PUSH2 0x205E JUMP JUMPDEST DUP1 SLOAD DUP3 LT ISZERO PUSH2 0x20C9 JUMPI PUSH1 0x0 MSTORE PUSH1 0x20 PUSH1 0x0 KECCAK256 ADD SWAP1 PUSH1 0x0 SWAP1 JUMP JUMPDEST PUSH32 0x4E487B7100000000000000000000000000000000000000000000000000000000 PUSH1 0x0 MSTORE PUSH1 0x32 PUSH1 0x4 MSTORE PUSH1 0x24 PUSH1 0x0 REVERT JUMPDEST PUSH8 0xFFFFFFFFFFFFFFFF DUP2 GT PUSH2 0x2024 JUMPI PUSH1 0x5 SHL PUSH1 0x20 ADD SWAP1 JUMP JUMPDEST MLOAD SWAP1 PUSH20 0xFFFFFFFFFFFFFFFFFFFFFFFFFFFFFFFFFFFFFFFF DUP3 AND DUP3 SUB PUSH2 0x453 JUMPI JUMP JUMPDEST SWAP2 SWAP1 PUSH1 0x40 DUP4 DUP3 SUB SLT PUSH2 0x453 JUMPI DUP3 MLOAD PUSH8 0xFFFFFFFFFFFFFFFF SWAP1 DUP2 DUP2 GT PUSH2 0x453 JUMPI DUP5 ADD SWAP1 DUP3 PUSH1 0x1F DUP4 ADD SLT ISZERO PUSH2 0x453 JUMPI DUP2 MLOAD SWAP2 PUSH2 0x216A DUP4 PUSH2 0x20F8 JUMP JUMPDEST SWAP1 PUSH2 0x2178 PUSH1 0x40 MLOAD SWAP3 DUP4 PUSH2 0x1FE3 JUMP JUMPDEST DUP4 DUP3 MSTORE PUSH1 0x20 SWAP4 DUP5 DUP1 DUP5 ADD SWAP2 PUSH1 0x5 SHL DUP4 ADD ADD SWAP2 DUP7 DUP4 GT PUSH2 0x453 JUMPI DUP6 DUP1 SWAP2 ADD SWAP2 JUMPDEST DUP4 DUP4 LT PUSH2 0x220A JUMPI POP POP POP POP SWAP5 DUP3 DUP2 ADD MLOAD SWAP2 DUP3 GT PUSH2 0x453 JUMPI ADD SWAP2 DUP1 PUSH1 0x1F DUP5 ADD SLT ISZERO PUSH2 0x453 JUMPI DUP3 MLOAD PUSH2 0x21C6 DUP2 PUSH2 0x20F8 JUMP JUMPDEST SWAP4 PUSH2 0x21D4 PUSH1 0x40 MLOAD SWAP6 DUP7 PUSH2 0x1FE3 JUMP JUMPDEST DUP2 DUP6 MSTORE DUP4 DUP1 DUP7 ADD SWAP3 PUSH1 0x5 SHL DUP3 ADD ADD SWAP3 DUP4 GT PUSH2 0x453 JUMPI DUP4 ADD SWAP1 JUMPDEST DUP3 DUP3 LT PUSH2 0x21FB JUMPI POP POP POP POP SWAP1 JUMP JUMPDEST DUP2 MLOAD DUP2 MSTORE SWAP1 DUP4 ADD SWAP1 DUP4 ADD PUSH2 0x21ED JUMP JUMPDEST DUP2 SWAP1 PUSH2 0x2215 DUP5 PUSH2 0x2110 JUMP JUMPDEST DUP2 MSTORE ADD SWAP2 ADD SWAP1 DUP6 SWAP1 PUSH2 0x2197 JUMP JUMPDEST DUP1 MLOAD DUP3 LT ISZERO PUSH2 0x20C9 JUMPI PUSH1 0x20 SWAP2 PUSH1 0x5 SHL ADD ADD SWAP1 JUMP JUMPDEST SWAP2 SWAP1 DUP3 ADD DUP1 SWAP3 GT PUSH2 0x2243 JUMPI JUMP JUMPDEST PUSH32 0x4E487B7100000000000000000000000000000000000000000000000000000000 PUSH1 0x0 MSTORE PUSH1 0x11 PUSH1 0x4 MSTORE PUSH1 0x24 PUSH1 0x0 REVERT JUMPDEST PUSH8 0xFFFFFFFFFFFFFFFF DUP2 GT PUSH2 0x2024 JUMPI PUSH1 0x1F ADD PUSH32 0xFFFFFFFFFFFFFFFFFFFFFFFFFFFFFFFFFFFFFFFFFFFFFFFFFFFFFFFFFFFFFFE0 AND PUSH1 0x20 ADD SWAP1 JUMP JUMPDEST DUP2 PUSH1 0x1F DUP3 ADD SLT ISZERO PUSH2 0x453 JUMPI DUP1 CALLDATALOAD SWAP1 PUSH2 0x22C3 DUP3 PUSH2 0x2272 JUMP JUMPDEST SWAP3 PUSH2 0x22D1 PUSH1 0x40 MLOAD SWAP5 DUP6 PUSH2 0x1FE3 JUMP JUMPDEST DUP3 DUP5 MSTORE PUSH1 0x20 DUP4 DUP4 ADD ADD GT PUSH2 0x453 JUMPI DUP2 PUSH1 0x0 SWAP3 PUSH1 0x20 DUP1 SWAP4 ADD DUP4 DUP7 ADD CALLDATACOPY DUP4 ADD ADD MSTORE SWAP1 JUMP JUMPDEST SWAP1 SWAP2 PUSH1 0x40 MLOAD PUSH32 0xDD62ED3E00000000000000000000000000000000000000000000000000000000 DUP2 MSTORE ADDRESS PUSH1 0x4 DUP3 ADD MSTORE PUSH1 0x20 DUP2 PUSH1 0x44 DUP2 PUSH20 0xFFFFFFFFFFFFFFFFFFFFFFFFFFFFFFFFFFFFFFFF DUP1 DUP10 AND PUSH1 0x24 DUP4 ADD MSTORE DUP8 AND GAS STATICCALL SWAP1 DUP2 ISZERO PUSH2 0x23FE JUMPI PUSH1 0x0 SWAP2 PUSH2 0x23CD JUMPI JUMPDEST POP LT ISZERO PUSH2 0x23C9 JUMPI PUSH1 0x44 PUSH1 0x10 PUSH1 0x0 DUP1 SWAP4 PUSH1 0x20 SWAP6 PUSH1 0x14 MSTORE PUSH32 0xFFFFFFFFFFFFFFFFFFFFFFFFFFFFFFFFFFFFFFFFFFFFFFFFFFFFFFFFFFFFFFFF PUSH1 0x34 MSTORE PUSH16 0x95EA7B3000000000000000000000000 DUP3 MSTORE GAS CALL RETURNDATASIZE ISZERO PUSH1 0x1 PUSH1 0x0 MLOAD EQ OR AND ISZERO PUSH2 0x23BB JUMPI PUSH1 0x0 PUSH1 0x34 MSTORE JUMP JUMPDEST PUSH4 0x3E3F8F73 PUSH1 0x0 MSTORE PUSH1 0x4 PUSH1 0x1C REVERT JUMPDEST POP POP JUMP JUMPDEST SWAP1 PUSH1 0x20 DUP3 RETURNDATASIZE DUP3 GT PUSH2 0x23F6 JUMPI JUMPDEST DUP2 PUSH2 0x23E6 PUSH1 0x20 SWAP4 DUP4 PUSH2 0x1FE3 JUMP JUMPDEST DUP2 ADD SUB SLT PUSH2 0x1A4 JUMPI POP MLOAD CODESIZE PUSH2 0x2357 JUMP JUMPDEST RETURNDATASIZE SWAP2 POP PUSH2 0x23D9 JUMP JUMPDEST PUSH1 0x40 MLOAD RETURNDATASIZE PUSH1 0x0 DUP3 RETURNDATACOPY RETURNDATASIZE SWAP1 REVERT JUMPDEST PUSH32 0xFFFFFFFFFFFFFFFFFFFFFFFFFFFFFFFFFFFFFFFFFFFFFFFFFFFFFFFFFFFFFFFF DUP2 EQ PUSH2 0x2243 JUMPI PUSH1 0x1 ADD SWAP1 JUMP JUMPDEST SWAP2 SWAP1 DUP3 SUB SWAP2 DUP3 GT PUSH2 0x2243 JUMPI JUMP JUMPDEST PUSH1 0x40 MLOAD PUSH32 0xF851A44000000000000000000000000000000000000000000000000000000000 DUP2 MSTORE PUSH20 0xFFFFFFFFFFFFFFFFFFFFFFFFFFFFFFFFFFFFFFFF SWAP1 PUSH1 0x20 DUP2 PUSH1 0x4 DUP2 DUP6 PUSH32 0x0 AND GAS STATICCALL SWAP1 DUP2 ISZERO PUSH2 0x23FE JUMPI PUSH1 0x0 SWAP2 PUSH2 0x24EE JUMPI JUMPDEST POP AND CALLER SUB PUSH2 0x24C4 JUMPI JUMP JUMPDEST PUSH1 0x4 PUSH1 0x40 MLOAD PUSH32 0xB73DC6CA00000000000000000000000000000000000000000000000000000000 DUP2 MSTORE REVERT JUMPDEST SWAP1 PUSH1 0x20 DUP3 RETURNDATASIZE DUP3 GT PUSH2 0x251F JUMPI JUMPDEST DUP2 PUSH2 0x2507 PUSH1 0x20 SWAP4 DUP4 PUSH2 0x1FE3 JUMP JUMPDEST DUP2 ADD SUB SLT PUSH2 0x1A4 JUMPI POP PUSH2 0x2519 SWAP1 PUSH2 0x2110 JUMP JUMPDEST CODESIZE PUSH2 0x24BA JUMP JUMPDEST RETURNDATASIZE SWAP2 POP PUSH2 0x24FA JUMP JUMPDEST SWAP1 DUP1 PUSH32 0xFFFFFFFFFFFFFFFFFFFFFFFFFFFFFFFFFFFFFFFFFFFFFFFFFFFFFFFFFFFFFFFF DIV DUP3 GT DUP2 MUL PUSH2 0x2562 JUMPI PUSH8 0xDE0B6B3A7640000 SWAP2 MUL DIV SWAP1 JUMP JUMPDEST PUSH4 0xBAC65E5B PUSH1 0x0 MSTORE PUSH1 0x4 PUSH1 0x1C REVERT JUMPDEST PUSH1 0x1C PUSH1 0x0 PUSH1 0x64 SWAP3 DUP2 SWAP5 PUSH1 0x20 SWAP7 PUSH1 0x40 MLOAD SWAP9 PUSH1 0x60 MSTORE PUSH1 0x40 MSTORE PUSH1 0x60 SHL PUSH1 0x2C MSTORE PUSH16 0x23B872DD000000000000000000000000 PUSH1 0xC MSTORE GAS CALL RETURNDATASIZE ISZERO PUSH1 0x1 PUSH1 0x0 MLOAD EQ OR AND ISZERO PUSH2 0x25BB JUMPI PUSH1 0x0 PUSH1 0x60 MSTORE PUSH1 0x40 MSTORE JUMP JUMPDEST PUSH4 0x7939F424 PUSH1 0x0 MSTORE PUSH1 0x4 PUSH1 0x1C REVERT JUMPDEST PUSH1 0x10 SWAP3 PUSH1 0x20 SWAP3 PUSH1 0x14 MSTORE PUSH1 0x34 MSTORE PUSH1 0x44 PUSH1 0x0 SWAP4 DUP5 DUP1 SWAP4 PUSH16 0xA9059CBB000000000000000000000000 DUP3 MSTORE GAS CALL RETURNDATASIZE ISZERO PUSH1 0x1 DUP4 MLOAD EQ OR AND ISZERO PUSH2 0x2605 JUMPI PUSH1 0x34 MSTORE JUMP JUMPDEST PUSH4 0x90B8EC18 SWAP1 MSTORE PUSH1 0x4 PUSH1 0x1C REVERT JUMPDEST PUSH1 0x24 PUSH1 0x10 PUSH1 0x20 SWAP4 SWAP3 DUP5 SWAP4 PUSH1 0x14 MSTORE PUSH16 0x70A08231000000000000000000000000 PUSH1 0x0 MSTORE GAS STATICCALL PUSH1 0x1F RETURNDATASIZE GT AND PUSH1 0x20 MLOAD MUL SWAP1 JUMP INVALID LOG1 PUSH5 0x736F6C6343 STOP ADDMOD GT STOP EXP "},"methodIdentifiers":{"ONE_INCH_ROUTER_V5()":"bdcb9932","addRewardToken(address)":"1c03e6cc","allRewardTokens(uint256)":"9ee80c5c","collectX1RewardsAll()":"97f4e01b","cygnusX1Vault()":"c73ef9e8","getRewards(address)":"79ee54f7","hangar18()":"e8a24e1d","harvestToX1Vault(address)":"2c733d87","harvesterReward()":"cccd8960","harvesters(address)":"87976583","isRewardToken(address)":"b5fd73f8","lastX1Collect()":"b5b946e3","name()":"06fdde03","nativeToken()":"e1758bd8","reinvestRewards(bytes[],address)":"03e7020e","removeRewardToken(address)":"3d509c97","rewardTokenBalanceAtIndex(uint256)":"ba3f30c6","rewardTokensLength()":"bf199e62","setTerminalHarvester(address,address,address)":"dae275b6","setWeightHarvester(uint256)":"9c486bd0","setWeightX1Vault(uint256)":"a52ada84","simpleHarvest()":"a3f11a9a","switchSimpleHarvest()":"567ac8d5","usd()":"d63a6ccd","x1VaultReward()":"b7218b37"}}}}}