{"contracts/cygnus-harvesters/AlgebraHarvester.sol":{"AlgebraHarvester":{"abi":[{"inputs":[{"internalType":"contract IHangar18","name":"_hangar18","type":"address"}],"stateMutability":"nonpayable","type":"constructor"},{"inputs":[],"name":"CygnusHarvester__DstReceiverNotValid","type":"error"},{"inputs":[],"name":"CygnusHarvester__DstTokenNotValid","type":"error"},{"inputs":[],"name":"CygnusHarvester__HarvestRewardTooHigh","type":"error"},{"inputs":[],"name":"CygnusHarvester__HarvesterNotSet","type":"error"},{"inputs":[],"name":"CygnusHarvester__MsgSenderNotAdmin","type":"error"},{"inputs":[],"name":"CygnusHarvester__OnlyEOAAllowed","type":"error"},{"inputs":[],"name":"CygnusHarvester__ParaswapTransactionFailed","type":"error"},{"inputs":[],"name":"CygnusHarvester__RewardTokenAlreadyAdded","type":"error"},{"inputs":[],"name":"CygnusHarvester__RewardTokenNotAdded","type":"error"},{"inputs":[],"name":"CygnusHarvester__SimpleHarvestNotEnabled","type":"error"},{"inputs":[],"name":"CygnusHarvester__SrcTokenNotValid","type":"error"},{"inputs":[],"name":"CygnusHarvester__X1VaultRewardTooHigh","type":"error"},{"inputs":[],"name":"ReentrantCall","type":"error"},{"anonymous":false,"inputs":[{"indexed":false,"internalType":"uint256","name":"timestamp","type":"uint256"},{"indexed":false,"internalType":"address","name":"sender","type":"address"},{"indexed":false,"internalType":"uint256","name":"tokensLength","type":"uint256"}],"name":"CygnusX1VaultCollect","type":"event"},{"anonymous":false,"inputs":[{"indexed":false,"internalType":"address","name":"terminal","type":"address"},{"indexed":false,"internalType":"address","name":"underlying","type":"address"},{"indexed":false,"internalType":"address","name":"wantToken","type":"address"},{"indexed":false,"internalType":"address","name":"receiver","type":"address"}],"name":"NewHarvester","type":"event"},{"anonymous":false,"inputs":[{"indexed":false,"internalType":"uint256","name":"oldWeight","type":"uint256"},{"indexed":false,"internalType":"uint256","name":"newWeight","type":"uint256"}],"name":"NewHarvesterWeight","type":"event"},{"anonymous":false,"inputs":[{"indexed":false,"internalType":"uint256","name":"oldWeight","type":"uint256"},{"indexed":false,"internalType":"uint256","name":"newWeight","type":"uint256"}],"name":"NewX1VaultWeight","type":"event"},{"anonymous":false,"inputs":[{"indexed":false,"internalType":"address","name":"token","type":"address"},{"indexed":false,"internalType":"uint256","name":"length","type":"uint256"}],"name":"RewardTokenAdded","type":"event"},{"anonymous":false,"inputs":[{"indexed":false,"internalType":"address","name":"token","type":"address"},{"indexed":false,"internalType":"uint256","name":"length","type":"uint256"}],"name":"RewardTokenRemoved","type":"event"},{"anonymous":false,"inputs":[{"indexed":false,"internalType":"bool","name":"_simpleHarvest","type":"bool"}],"name":"SimpleHarvestSwitch","type":"event"},{"stateMutability":"payable","type":"fallback"},{"inputs":[],"name":"ONE_INCH_ROUTER_V5","outputs":[{"internalType":"address","name":"","type":"address"}],"stateMutability":"view","type":"function"},{"inputs":[{"internalType":"address","name":"rewardToken","type":"address"}],"name":"addRewardToken","outputs":[],"stateMutability":"nonpayable","type":"function"},{"inputs":[{"internalType":"uint256","name":"","type":"uint256"}],"name":"allRewardTokens","outputs":[{"internalType":"address","name":"","type":"address"}],"stateMutability":"view","type":"function"},{"inputs":[],"name":"collectX1RewardsAll","outputs":[],"stateMutability":"nonpayable","type":"function"},{"inputs":[],"name":"cygnusX1Vault","outputs":[{"internalType":"address","name":"","type":"address"}],"stateMutability":"view","type":"function"},{"inputs":[{"internalType":"address","name":"terminal","type":"address"}],"name":"getRewards","outputs":[{"internalType":"address[]","name":"tokens","type":"address[]"},{"internalType":"uint256[]","name":"amounts","type":"uint256[]"}],"stateMutability":"nonpayable","type":"function"},{"inputs":[],"name":"hangar18","outputs":[{"internalType":"contract IHangar18","name":"","type":"address"}],"stateMutability":"view","type":"function"},{"inputs":[{"internalType":"address","name":"terminal","type":"address"}],"name":"harvestToX1Vault","outputs":[],"stateMutability":"nonpayable","type":"function"},{"inputs":[],"name":"harvesterReward","outputs":[{"internalType":"uint256","name":"","type":"uint256"}],"stateMutability":"view","type":"function"},{"inputs":[{"internalType":"address","name":"","type":"address"}],"name":"harvesters","outputs":[{"internalType":"address","name":"terminal","type":"address"},{"internalType":"address","name":"underlying","type":"address"},{"internalType":"address","name":"wantToken","type":"address"},{"internalType":"address","name":"receiver","type":"address"}],"stateMutability":"view","type":"function"},{"inputs":[{"internalType":"address","name":"","type":"address"}],"name":"isRewardToken","outputs":[{"internalType":"bool","name":"","type":"bool"}],"stateMutability":"view","type":"function"},{"inputs":[],"name":"lastX1Collect","outputs":[{"internalType":"uint256","name":"","type":"uint256"}],"stateMutability":"view","type":"function"},{"inputs":[],"name":"name","outputs":[{"internalType":"string","name":"","type":"string"}],"stateMutability":"view","type":"function"},{"inputs":[],"name":"nativeToken","outputs":[{"internalType":"address","name":"","type":"address"}],"stateMutability":"view","type":"function"},{"inputs":[{"internalType":"bytes[]","name":"swapdata","type":"bytes[]"},{"internalType":"address","name":"collateral","type":"address"}],"name":"reinvestRewards","outputs":[{"internalType":"uint256","name":"liquidity","type":"uint256"}],"stateMutability":"nonpayable","type":"function"},{"inputs":[{"internalType":"address","name":"rewardToken","type":"address"}],"name":"removeRewardToken","outputs":[],"stateMutability":"nonpayable","type":"function"},{"inputs":[{"internalType":"uint256","name":"index","type":"uint256"}],"name":"rewardTokenBalanceAtIndex","outputs":[{"internalType":"uint256","name":"","type":"uint256"}],"stateMutability":"view","type":"function"},{"inputs":[],"name":"rewardTokensLength","outputs":[{"internalType":"uint256","name":"","type":"uint256"}],"stateMutability":"view","type":"function"},{"inputs":[{"internalType":"address","name":"terminal","type":"address"},{"internalType":"address","name":"wantToken","type":"address"},{"internalType":"address","name":"receiver","type":"address"}],"name":"setTerminalHarvester","outputs":[],"stateMutability":"nonpayable","type":"function"},{"inputs":[{"internalType":"uint256","name":"newWeight","type":"uint256"}],"name":"setWeightHarvester","outputs":[],"stateMutability":"nonpayable","type":"function"},{"inputs":[{"internalType":"uint256","name":"newWeight","type":"uint256"}],"name":"setWeightX1Vault","outputs":[],"stateMutability":"nonpayable","type":"function"},{"inputs":[],"name":"simpleHarvest","outputs":[{"internalType":"bool","name":"","type":"bool"}],"stateMutability":"view","type":"function"},{"inputs":[],"name":"switchSimpleHarvest","outputs":[],"stateMutability":"nonpayable","type":"function"},{"inputs":[],"name":"usd","outputs":[{"internalType":"address","name":"","type":"address"}],"stateMutability":"view","type":"function"},{"inputs":[],"name":"x1VaultReward","outputs":[{"internalType":"uint256","name":"","type":"uint256"}],"stateMutability":"view","type":"function"},{"stateMutability":"payable","type":"receive"}],"evm":{"bytecode":{"linkReferences":{},"object":"610100604081815234620002765781620035c180380380916200002382856200027b565b8339602093849181010312620002765751916001600160a01b0383169081840362000276576001916000948360ff1987541617865567030d98d59a960000600555666a94d74f4300006006556080528351631c2eb17b60e31b81528281600481855afa9081156200024a57869162000254575b5060c052835163d63a6ccd60e01b81528281600481855afa9182156200024a576004928492889162000228575b5060a05285516318e7df3d60e31b815292839182905afa9081156200021e578591620001ea575b5060e0526008548281811c91168015620001df575b82821014620001cb57601f81116200019c575b50657669736f722960d01b9293604d60085560088152207f4379676e75733a20416c6765627261204861727665737465722028487970657281550155516132ea9081620002d7823960805181818161018001526130e2015260a051816104a3015260c051816101f2015260e05181818161054e01528181610a6201528181611293015261197a0152f35b600885526002601f838720920160051c820191015b818110620001c0575062000112565b8581558301620001b1565b634e487b7160e01b85526022600452602485fd5b90607f1690620000ff565b6200020f9150823d841162000216575b6200020681836200027b565b810190620002b5565b38620000ea565b503d620001fa565b84513d87823e3d90fd5b620002439150833d851162000216576200020681836200027b565b38620000c3565b85513d88823e3d90fd5b6200026f9150833d851162000216576200020681836200027b565b3862000096565b600080fd5b601f909101601f19168101906001600160401b038211908210176200029f57604052565b634e487b7160e01b600052604160045260246000fd5b908160209103126200027657516001600160a01b038116810362000276579056fe608080604052600436101561001a575b50361561001857005b005b600090813560e01c90816303e7020e1461169b5750806306fdde03146115385780631c03e6cc146113bf5780632c733d871461113e5780633d509c9714610ec5578063567ac8d514610e2a57806379ee54f714610c5b5780638797658314610b9957806397f4e01b1461095b5780639c486bd0146108ad5780639ee80c5c1461083d578063a3f11a9a146107fc578063a52ada841461074e578063b5b946e314610712578063b5fd73f8146106a5578063b7218b3714610669578063ba3f30c6146105fb578063bdcb9932146105ae578063bf199e6214610572578063c73ef9e814610503578063cccd8960146104c7578063d63a6ccd14610458578063dae275b614610216578063e1758bd8146101a75763e8a24e1d0361000f57346101a457807ffffffffffffffffffffffffffffffffffffffffffffffffffffffffffffffffc3601126101a457602060405173ffffffffffffffffffffffffffffffffffffffff7f0000000000000000000000000000000000000000000000000000000000000000168152f35b80fd5b50346101a457807ffffffffffffffffffffffffffffffffffffffffffffffffffffffffffffffffc3601126101a457602060405173ffffffffffffffffffffffffffffffffffffffff7f0000000000000000000000000000000000000000000000000000000000000000168152f35b50346101a45760607ffffffffffffffffffffffffffffffffffffffffffffffffffffffffffffffffc3601126101a45760043573ffffffffffffffffffffffffffffffffffffffff808216918281036104535760243591808316928381036104535760443591808316908184036104535761028f61309d565b604051957f6f307dc300000000000000000000000000000000000000000000000000000000875288602080896004818d5afa9889156104485782996103cc575b507fb6a8c784464bbdc8b94f70be7ceb25dc9f5b72fc3b64ba76f6a0121d15c4bc859989938560406103c69a9998979560016003968351966103126080896126ed565b808852858289019b168b52848801968752606088019b8c5283525220925116947fffffffffffffffffffffffff0000000000000000000000000000000000000000958684541617835584600184019151168682541617905583600283019151168582541617905501925116908254161790556040519485948592949360609291608085019673ffffffffffffffffffffffffffffffffffffffff809481809416885216602087015216604085015216910152565b0390a180f35b908093995081819897969593983d8311610441575b6103eb81836126ed565b8101031261043d577fb6a8c784464bbdc8b94f70be7ceb25dc9f5b72fc3b64ba76f6a0121d15c4bc85996001998360406103c69a61042a60039661281a565b9d509550509596979850939150996102cf565b8680fd5b503d6103e1565b6040513d84823e3d90fd5b600080fd5b50346101a457807ffffffffffffffffffffffffffffffffffffffffffffffffffffffffffffffffc3601126101a457602060405173ffffffffffffffffffffffffffffffffffffffff7f0000000000000000000000000000000000000000000000000000000000000000168152f35b50346101a457807ffffffffffffffffffffffffffffffffffffffffffffffffffffffffffffffffc3601126101a4576020600654604051908152f35b50346101a457807ffffffffffffffffffffffffffffffffffffffffffffffffffffffffffffffffc3601126101a457602060405173ffffffffffffffffffffffffffffffffffffffff7f0000000000000000000000000000000000000000000000000000000000000000168152f35b50346101a457807ffffffffffffffffffffffffffffffffffffffffffffffffffffffffffffffffc3601126101a4576020600254604051908152f35b50346101a457807ffffffffffffffffffffffffffffffffffffffffffffffffffffffffffffffffc3601126101a4576020604051731111111254eeb25477b68fb85ed929f73a9605828152f35b50346101a45760207ffffffffffffffffffffffffffffffffffffffffffffffffffffffffffffffffc3601126101a457602061066173ffffffffffffffffffffffffffffffffffffffff61065260043560026127bb565b919054309260031b1c166132ae565b604051908152f35b50346101a457807ffffffffffffffffffffffffffffffffffffffffffffffffffffffffffffffffc3601126101a4576020600554604051908152f35b50346101a45760207ffffffffffffffffffffffffffffffffffffffffffffffffffffffffffffffffc3601126101a4576004359073ffffffffffffffffffffffffffffffffffffffff82168092036104535760408160209360ff9352600384522054166040519015158152f35b50346101a457807ffffffffffffffffffffffffffffffffffffffffffffffffffffffffffffffffc3601126101a4576020600454604051908152f35b50346101a45760207ffffffffffffffffffffffffffffffffffffffffffffffffffffffffffffffffc3601126101a45760043561078961309d565b6706f05b59d3b2000081116107d25760407fcdf0e2499be1cf2f4acff51a3c1b2e66af5d59c4d540bb5a36d9800d254a5c8091600554908060055582519182526020820152a180f35b60046040517f174d156b000000000000000000000000000000000000000000000000000000008152fd5b50346101a457807ffffffffffffffffffffffffffffffffffffffffffffffffffffffffffffffffc3601126101a457602060ff600754166040519015158152f35b50346101a45760207ffffffffffffffffffffffffffffffffffffffffffffffffffffffffffffffffc3601126101a457600435906002548210156101a457602073ffffffffffffffffffffffffffffffffffffffff61089d8460026127bb565b9190546040519260031b1c168152f35b50346101a45760207ffffffffffffffffffffffffffffffffffffffffffffffffffffffffffffffffc3601126101a4576004356108e861309d565b67016345785d8a000081116109315760407f65ae41069d2671929deed6d59a7dffa21e5300f58eed9ca4a481ccc94d4560e391600654908060065582519182526020820152a180f35b60046040517fca4bf1b8000000000000000000000000000000000000000000000000000000008152fd5b50346101a457807ffffffffffffffffffffffffffffffffffffffffffffffffffffffffffffffffc3601126101a457805460ff811615610b6f577fffffffffffffffffffffffffffffffffffffffffffffffffffffffffffffff008091168255604051908190600254808452826020809501600287527f405787fa12a823e0f2b7631cc41b3ba8828b3321ca811111fa75cd3aa3bb5ace92875b87828210610b4357505050610a0c925003836126ed565b835b8251811015610af9578473ffffffffffffffffffffffffffffffffffffffff80610a38848761292c565b511690610a4530836132ae565b80610a5d575b50505050610a5890613070565b610a0e565b610a897f0000000000000000000000000000000000000000000000000000000000000000918285613265565b1690813b15610af55782916024839260405194859384927f632447c900000000000000000000000000000000000000000000000000000000845260048401525af1801561044857610adc575b8080610a4b565b81610ae6916126ed565b610af1578438610ad5565b8480fd5b8280fd5b846001837f16a9fd824a632ba02af308c1f7597f156fa9ec25b50bf207e0c0c34d28d27ab6606088426004556002546040519142835233908301526040820152a182541617815580f35b855473ffffffffffffffffffffffffffffffffffffffff168452600195860195889550930192016109f5565b60046040517f37ed32e8000000000000000000000000000000000000000000000000000000008152fd5b50346101a45760207ffffffffffffffffffffffffffffffffffffffffffffffffffffffffffffffffc3601126101a45760043573ffffffffffffffffffffffffffffffffffffffff91828216809203610453576040918152600160205220610c578282541691836001820154169360038160028401541692015416906040519485948592949360609291608085019673ffffffffffffffffffffffffffffffffffffffff809481809416885216602087015216604085015216910152565b0390f35b50346101a4576020807ffffffffffffffffffffffffffffffffffffffffffffffffffffffffffffffffc360112610e265760043573ffffffffffffffffffffffffffffffffffffffff8082168092036104535783549060ff821615610b6f578480937fffffffffffffffffffffffffffffffffffffffffffffffffffffffffffffff0080941682556004604051809681937f0572b0cc0000000000000000000000000000000000000000000000000000000083525af1928315610e1b5785908694610df4575b508594600554965b8551811015610d725780610d5d610d4d8a610d47610d6d958b61292c565b51613180565b610d57838a61292c565b516129dc565b610d67828961292c565b52613070565b610d29565b508493918691600180948454161783556040519460408601604087528351809152826060880194019185905b828210610ddd5750505050848203818601528080875193848152019601925b828110610dca5785870386f35b8351875295810195928101928401610dbd565b835181168652948401949284019290870190610d9e565b9050610e139193503d8087833e610e0b81836126ed565b81019061283b565b929038610d21565b6040513d87823e3d90fd5b5080fd5b50346101a457807ffffffffffffffffffffffffffffffffffffffffffffffffffffffffffffffffc3601126101a457610e6161309d565b7ffb8d0af087d7b03d1f7bd996e77ba2ca8d33ff1acb0c72a9d12c8987df8652f2602060075460ff8082161516807fffffffffffffffffffffffffffffffffffffffffffffffffffffffffffffff008316176007558460405192161715158152a180f35b50346101a45760207ffffffffffffffffffffffffffffffffffffffffffffffffffffffffffffffffc3601126101a45773ffffffffffffffffffffffffffffffffffffffff600435818116929183820361045357610f2161309d565b8383526003938460205260ff604085205416156111145780845284602052604084207fffffffffffffffffffffffffffffffffffffffffffffffffffffffffffffff008154169055600291825495855b878110610fcd575b84546040805173ffffffffffffffffffffffffffffffffffffffff89168152602081019290925288917fbe0d2cc926911d1413d431090d31dd4a56de7770afb1245163f0e0ac7916db2191819081016103c6565b8383610fd983886127bb565b905490851b1c1614610ff357610fee90613070565b610f71565b92507fffffffffffffffffffffffffffffffffffffffffffffffffffffffffffffffff968781019081116110e75791611041916110346110739594876127bb565b9054911b1c1691846127bb565b90919082549060031b9173ffffffffffffffffffffffffffffffffffffffff9283811b93849216901b16911916179055565b80549384156110ba577fbe0d2cc926911d1413d431090d31dd4a56de7770afb1245163f0e0ac7916db219394016110ae8561104183856127bb565b81558392388080610f79565b6024847f4e487b710000000000000000000000000000000000000000000000000000000081526031600452fd5b6024877f4e487b710000000000000000000000000000000000000000000000000000000081526011600452fd5b60046040517fa4f731e0000000000000000000000000000000000000000000000000000000008152fd5b50346101a457602090817ffffffffffffffffffffffffffffffffffffffffffffffffffffffffffffffffc3601126101a4576004359073ffffffffffffffffffffffffffffffffffffffff808316908184036104535782549360ff9586861615610b6f577fffffffffffffffffffffffffffffffffffffffffffffffffffffffffffffff008096168555866007541615611395578480946004604051809781937f0572b0cc0000000000000000000000000000000000000000000000000000000083525af1968715610e1b5785948698611373575b50855b855181101561136657611229818a61292c565b51151580611346575b611245575b61124090613070565b611216565b84816112c0888c886112ba8661128b8761126c611262828861292c565b5160065490613180565b96611286888561127c858561292c565b511688339161320c565b61292c565b511693610d577f000000000000000000000000000000000000000000000000000000000000000097889561292c565b9261320c565b16856112cc838961292c565b5116813b156113425788916024839260405194859384927f632447c900000000000000000000000000000000000000000000000000000000845260048401525af1801561133757908891611322575b5050611237565b8161132c916126ed565b61043d57863861131b565b6040513d8a823e3d90fd5b8880fd5b5084611352828861292c565b511687526003835281604088205416611232565b8660018982541617815580f35b90975061138b9194503d8087833e610e0b81836126ed565b9390939638611213565b60046040517fc8a2ff00000000000000000000000000000000000000000000000000000000008152fd5b50346101a45760207ffffffffffffffffffffffffffffffffffffffffffffffffffffffffffffffffc3601126101a4576004359073ffffffffffffffffffffffffffffffffffffffff8216918281036104535761141a61309d565b828252600360205260ff60408320541661150e5760025492680100000000000000008410156114e15761147b826110418660017f68e3e9397770d9dfa88c0953a34e1a70a05416b3895957f5b689787a920791c497980160025560026127bb565b835260036020908152604080852080547fffffffffffffffffffffffffffffffffffffffffffffffffffffffffffffff00166001179055600254815173ffffffffffffffffffffffffffffffffffffffff909416845291830191909152819081016103c6565b6024837f4e487b710000000000000000000000000000000000000000000000000000000081526041600452fd5b60046040517f588fa2cc000000000000000000000000000000000000000000000000000000008152fd5b50346101a457807ffffffffffffffffffffffffffffffffffffffffffffffffffffffffffffffffc3601126101a457604051908060085491600183811c92818516948515611691575b6020958686108114611664578588528794939291879082156116235750506001146115c9575b50506115b5925003836126ed565b610c5760405192828493845283019061275d565b90859250600882527ff3f7a9fe364faab93b216da50a3214154f22a0a2b415b23a84c8169e8b636ee35b85831061160b5750506115b5935082010138806115a7565b805483890185015287945086939092019181016115f3565b915093506115b59592507fffffffffffffffffffffffffffffffffffffffffffffffffffffffffffffff0091501682840152151560051b82010138806115a7565b6024837f4e487b710000000000000000000000000000000000000000000000000000000081526022600452fd5b93607f1693611581565b905034610e265760407ffffffffffffffffffffffffffffffffffffffffffffffffffffffffffffffffc360112610e265767ffffffffffffffff8060043511610af557366023600435011215610af5576004356004013511610e26573660246004356004013560051b600435010111610e26576024359073ffffffffffffffffffffffffffffffffffffffff8216809203610af55782549060ff8216156126a457507fffffffffffffffffffffffffffffffffffffffffffffffffffffffffffffff00168255819082526001602052604082209073ffffffffffffffffffffffffffffffffffffffff6001830154161561267a5782908173ffffffffffffffffffffffffffffffffffffffff8454166004604051809581937f0572b0cc0000000000000000000000000000000000000000000000000000000083525af1801561266f578492859161264f575b50845b83518110156119dc57836117fe828461292c565b511515806119a5575b611815575b506001016117ea565b819361186973ffffffffffffffffffffffffffffffffffffffff61183b6001958561292c565b511673ffffffffffffffffffffffffffffffffffffffff89541690611860888861292c565b5191309161320c565b6118b273ffffffffffffffffffffffffffffffffffffffff61188b878561292c565b51166118a461189a888861292c565b5160055490613180565b80611974575b5030906132ae565b73ffffffffffffffffffffffffffffffffffffffff6118d1878561292c565b5160028a015473ffffffffffffffffffffffffffffffffffffffff16929116821461195657926119469161194c948a8973ffffffffffffffffffffffffffffffffffffffff60038161193a611932856004356004013560246004350161297c565b95909961292c565b51169301541694612c90565b90612940565b925b90508361180c565b505061196e9150611967858561292c565b5190612940565b9261194e565b61199f907f000000000000000000000000000000000000000000000000000000000000000083613265565b386118aa565b506119c58273ffffffffffffffffffffffffffffffffffffffff9261292c565b5116865260036020528360ff604088205416611807565b85838673ffffffffffffffffffffffffffffffffffffffff600182015416604051907f0dfe1681000000000000000000000000000000000000000000000000000000008252602082600481845afa918215610e1b578592612613575b50604051937fd21220a7000000000000000000000000000000000000000000000000000000008552602085600481855afa9485156126085786956125c8575b50604051917f86a29081000000000000000000000000000000000000000000000000000000008352602083600481845afa9283156125bd578793612581575b5073ffffffffffffffffffffffffffffffffffffffff6002860154169073ffffffffffffffffffffffffffffffffffffffff600387015416936040517f313ce56700000000000000000000000000000000000000000000000000000000815260208160048173ffffffffffffffffffffffffffffffffffffffff8b165afa8015612576578a90612537575b611b4b91506129f7565b6040517f313ce56700000000000000000000000000000000000000000000000000000000815260208160048173ffffffffffffffffffffffffffffffffffffffff8e165afa801561252c578b906124ed575b611ba791506129f7565b91611bb283836131c9565b64e8d4a510008111156124e757620f4240905b8c6040517f16f0115b0000000000000000000000000000000000000000000000000000000081526020816004818b5afa908115610448578291612495575b5060e073ffffffffffffffffffffffffffffffffffffffff916004604051809481937fe76c01e4000000000000000000000000000000000000000000000000000000008352165afa91821561248957916123c2575b507fffffffffffffffffffffffffffffffffffffffffffffffffffffffffffffffff600273ffffffffffffffffffffffffffffffffffffffff611c9b9316612a17565b90821561239557928a73ffffffffffffffffffffffffffffffffffffffff8f969385611cd4611cdc92604098611d3d9d9c9a0490612acf565b60c01c612acf565b978551998a95869485937f5ccfb71d0000000000000000000000000000000000000000000000000000000085526004850160409194939294606082019573ffffffffffffffffffffffffffffffffffffffff80921683521660208201520152565b0392165afa93841561044857611d709483611d6392611d6b959192612373575b50612940565b60011c6131c9565b6131c9565b91670de0b6b3a764000092838101809111612319578015612346576ec097ce7bc90715b34b9f1000000000048084039384116123195790611db481611dba93613180565b93613180565b9173ffffffffffffffffffffffffffffffffffffffff8516820361227c57506004803501357fffffffffffffffffffffffffffffffffffffffffffffffffffffffffffffffff8101116110e757611e4b92918691611e4560048035908101357fffffffffffffffffffffffffffffffffffffffffffffffffffffffffffffffff81019160240161297c565b90612c90565b505b73ffffffffffffffffffffffffffffffffffffffff6001830154169273ffffffffffffffffffffffffffffffffffffffff83541693611e8c30846132ae565b94611e9730846132ae565b92611ea3878487612af8565b611eae848483612af8565b6040517f86a29081000000000000000000000000000000000000000000000000000000008152602081600481875afa9586156122085788918a97612237575b50604080517f5ccfb71d00000000000000000000000000000000000000000000000000000000815273ffffffffffffffffffffffffffffffffffffffff808816600483015290921660248301526044820192909252908180606481015b038173ffffffffffffffffffffffffffffffffffffffff8a165afa9182156122085785918a908b94612213575b508210612151575b508110612149575b508694939160409693965191611f9e6080846126ed565b8683528660208401528660408401528660608401526040519788957f8e3c92e400000000000000000000000000000000000000000000000000000000875260048701526024860152604485015260648401526084830185905b6004821061212d5750505090610104818573ffffffffffffffffffffffffffffffffffffffff602095165af19283156104485782936120e5575b505473ffffffffffffffffffffffffffffffffffffffff16803b15610e265781906024604051809681937f81f5b6f40000000000000000000000000000000000000000000000000000000083528760048401525af19283156120d857816020946120c8575b547fffffffffffffffffffffffffffffffffffffffffffffffffffffffffffffff001660011790915550604051908152f35b6120d1916126ed565b8381612096565b50604051903d90823e3d90fd5b9092506020813d602011612125575b81612101602093836126ed565b81010312610e2657519173ffffffffffffffffffffffffffffffffffffffff612031565b3d91506120f4565b8251815288965087945060209283019260019092019101611ff7565b925087611f87565b604080517f5ccfb71d00000000000000000000000000000000000000000000000000000000815273ffffffffffffffffffffffffffffffffffffffff87811660048301529283166024820152604481019390935290829060649082908a165afa9081156122085789916121d7575b508088116121cf575b8490611f7f565b9650886121c8565b6121f9915060403d604011612201575b6121f181836126ed565b810190612ae2565b9050896121bf565b503d6121e7565b6040513d8b823e3d90fd5b905061222f91935060403d604011612201576121f181836126ed565b92908b611f77565b915095506020813d602011612274575b81612254602093836126ed565b810103126113425760408861226b611f4a9361281a565b97915091611eed565b3d9150612247565b915073ffffffffffffffffffffffffffffffffffffffff861681146122a4575b505050611e4d565b6004803501357fffffffffffffffffffffffffffffffffffffffffffffffffffffffffffffffff8101116110e75761231092918491611e4560048035908101357fffffffffffffffffffffffffffffffffffffffffffffffffffffffffffffffff81019160240161297c565b5084808061229c565b6024897f4e487b710000000000000000000000000000000000000000000000000000000081526011600452fd5b6024897f4e487b710000000000000000000000000000000000000000000000000000000081526012600452fd5b905061238e915060403d604011612201576121f181836126ed565b908e611d5d565b60248e7f4e487b710000000000000000000000000000000000000000000000000000000081526012600452fd5b905060e0813d8211612481575b816123dc60e093836126ed565b810103126124795780519073ffffffffffffffffffffffffffffffffffffffff8216820361247d5760208101518060020b0361247d5780612421604060c09301612a08565b5061242e60608201612a08565b5061243b608082016129e9565b5061244860a082016129e9565b50015180151503612479577fffffffffffffffffffffffffffffffffffffffffffffffffffffffffffffffff611c58565b8d80fd5b8e80fd5b3d91506123cf565b604051903d90823e3d90fd5b90506020813d6020116124df575b816124b0602093836126ed565b81010312610e265760e06124d873ffffffffffffffffffffffffffffffffffffffff9261281a565b9150611c03565b3d91506124a3565b80611bc5565b506020813d602011612524575b81612507602093836126ed565b810103126125205761251b611ba7916129e9565b611b9d565b8a80fd5b3d91506124fa565b6040513d8d823e3d90fd5b506020813d60201161256e575b81612551602093836126ed565b8101031261256a57612565611b4b916129e9565b611b41565b8980fd5b3d9150612544565b6040513d8c823e3d90fd5b9092506020813d6020116125b5575b8161259d602093836126ed565b8101031261043d576125ae9061281a565b9187611ab6565b3d9150612590565b6040513d89823e3d90fd5b9094506020813d602011612600575b816125e4602093836126ed565b810103126125fc576125f59061281a565b9386611a77565b8580fd5b3d91506125d7565b6040513d88823e3d90fd5b9091506020813d602011612647575b8161262f602093836126ed565b81010312610af1576126409061281a565b9085611a38565b3d9150612622565b90506126669192503d8086833e610e0b81836126ed565b919091386117e7565b6040513d86823e3d90fd5b60046040517ffada4a47000000000000000000000000000000000000000000000000000000008152fd5b807f37ed32e80000000000000000000000000000000000000000000000000000000060049252fd5b359073ffffffffffffffffffffffffffffffffffffffff8216820361045357565b90601f7fffffffffffffffffffffffffffffffffffffffffffffffffffffffffffffffe0910116810190811067ffffffffffffffff82111761272e57604052565b7f4e487b7100000000000000000000000000000000000000000000000000000000600052604160045260246000fd5b919082519283825260005b8481106127a75750507fffffffffffffffffffffffffffffffffffffffffffffffffffffffffffffffe0601f8460006020809697860101520116010190565b602081830181015184830182015201612768565b80548210156127d35760005260206000200190600090565b7f4e487b7100000000000000000000000000000000000000000000000000000000600052603260045260246000fd5b67ffffffffffffffff811161272e5760051b60200190565b519073ffffffffffffffffffffffffffffffffffffffff8216820361045357565b919060408382031261045357825167ffffffffffffffff908181116104535784019082601f830112156104535781519161287483612802565b9061288260405192836126ed565b838252602093848084019160051b830101918683116104535785809101915b8383106129145750505050948281015191821161045357019180601f840112156104535782516128d081612802565b936128de60405195866126ed565b818552838086019260051b820101928311610453578301905b828210612905575050505090565b815181529083019083016128f7565b819061291f8461281a565b81520191019085906128a1565b80518210156127d35760209160051b010190565b9190820180921161294d57565b7f4e487b7100000000000000000000000000000000000000000000000000000000600052601160045260246000fd5b91908110156127d35760051b810135907fffffffffffffffffffffffffffffffffffffffffffffffffffffffffffffffe18136030182121561045357019081359167ffffffffffffffff8311610453576020018236038113610453579190565b9190820391821161294d57565b519060ff8216820361045357565b60ff16604d811161294d57600a0a90565b519061ffff8216820361045357565b908015612ac7578115612abf578180600114612ab657600214612a9c5760208110610133831016604e8210600b84101617612a90579091600191825b808211612a69575050829004811161294d570290565b9093808304811161294d57818516612a87575b800293811c90612a53565b80930292612a7c565b900a9190821161294d57565b905060ff819392931161294d576001901b91821161294d57565b50505050600190565b505050600090565b505050600190565b8181029291811591840414171561294d57565b9190826040910312610453576020825192015190565b90916040517fdd62ed3e00000000000000000000000000000000000000000000000000000000815230600482015260208160448173ffffffffffffffffffffffffffffffffffffffff808916602483015287165afa908115612c0357600091612bd2575b501015612bce5760446010600080936020956014527fffffffffffffffffffffffffffffffffffffffffffffffffffffffffffffffff6034526f095ea7b300000000000000000000000082525af13d15600160005114171615612bc0576000603452565b633e3f8f736000526004601cfd5b5050565b906020823d8211612bfb575b81612beb602093836126ed565b810103126101a457505138612b5c565b3d9150612bde565b6040513d6000823e3d90fd5b67ffffffffffffffff811161272e57601f017fffffffffffffffffffffffffffffffffffffffffffffffffffffffffffffffe01660200190565b81601f8201121561045357803590612c6082612c0f565b92612c6e60405194856126ed565b8284526020838301011161045357816000926020809301838601378301015290565b9192908201948286039261014084126104535760e07fffffffffffffffffffffffffffffffffffffffffffffffffffffffffffffffe0612ccf836126cc565b9501126104535760405196612ce560e0896126ed565b612cf1602083016126cc565b8852612cff604083016126cc565b6020890152612d10606083016126cc565b6040890152612d21608083016126cc565b606089015260a0820135608089015260c082013560a089015260e082013560c089015261010082013567ffffffffffffffff908181116104535782612d67918501612c49565b5061012083013590811161045357612d7f9201612c49565b9482608088015103613065575b73ffffffffffffffffffffffffffffffffffffffff87511673ffffffffffffffffffffffffffffffffffffffff86160361303b5773ffffffffffffffffffffffffffffffffffffffff806020890151169116036130115773ffffffffffffffffffffffffffffffffffffffff80606088015116911603612fe757604093612e40612f9d92731111111254eeb25477b68fb85ed929f73a96058273ffffffffffffffffffffffffffffffffffffffff96612af8565b612f6c612e4d6000612c0f565b612e59875191826126ed565b600081527fffffffffffffffffffffffffffffffffffffffffffffffffffffffffffffffe0612e886000612c0f565b0136602083013760c0875198899788977f12aa3caf00000000000000000000000000000000000000000000000000000000895216600488015273ffffffffffffffffffffffffffffffffffffffff815116602488015273ffffffffffffffffffffffffffffffffffffffff602082015116604488015273ffffffffffffffffffffffffffffffffffffffff8982015116606488015273ffffffffffffffffffffffffffffffffffffffff6060820151166084880152608081015160a488015260a081015160c4880152015160e486015261014061010486015261014485019061275d565b907ffffffffffffffffffffffffffffffffffffffffffffffffffffffffffffffffc8483030161012485015261275d565b03816000731111111254eeb25477b68fb85ed929f73a9605825af1908115612c0357600091612fca575090565b612fe3915060403d604011612201576121f181836126ed565b5090565b60046040517fac71d77a000000000000000000000000000000000000000000000000000000008152fd5b60046040517fb8806c1d000000000000000000000000000000000000000000000000000000008152fd5b60046040517f84b1dde8000000000000000000000000000000000000000000000000000000008152fd5b826080880152612d8c565b7fffffffffffffffffffffffffffffffffffffffffffffffffffffffffffffffff811461294d5760010190565b6040517ff851a44000000000000000000000000000000000000000000000000000000000815273ffffffffffffffffffffffffffffffffffffffff90602081600481857f0000000000000000000000000000000000000000000000000000000000000000165afa908115612c0357600091613147575b5016330361311d57565b60046040517fb73dc6ca000000000000000000000000000000000000000000000000000000008152fd5b906020823d8211613178575b81613160602093836126ed565b810103126101a457506131729061281a565b38613113565b3d9150613153565b90807fffffffffffffffffffffffffffffffffffffffffffffffffffffffffffffffff04821181026131bb57670de0b6b3a764000091020490565b63bac65e5b6000526004601cfd5b670de0b6b3a7640000907812725dd1d243aba0e75fe645cc4873f9e65afe688c928e1f2181118202158302156131fe57020490565b637c5f487d6000526004601cfd5b601c600060649281946020966040519860605260405260601b602c526f23b872dd000000000000000000000000600c525af13d15600160005114171615613257576000606052604052565b637939f4246000526004601cfd5b60109260209260145260345260446000938480936fa9059cbb00000000000000000000000082525af13d1560018351141716156132a157603452565b6390b8ec1890526004601cfd5b602460106020939284936014526f70a082310000000000000000000000006000525afa601f3d1116602051029056fea164736f6c6343000811000a","opcodes":"PUSH2 0x100 PUSH1 0x40 DUP2 DUP2 MSTORE CALLVALUE PUSH3 0x276 JUMPI DUP2 PUSH3 0x35C1 DUP1 CODESIZE SUB DUP1 SWAP2 PUSH3 0x23 DUP3 DUP6 PUSH3 0x27B JUMP JUMPDEST DUP4 CODECOPY PUSH1 0x20 SWAP4 DUP5 SWAP2 DUP2 ADD SUB SLT PUSH3 0x276 JUMPI MLOAD SWAP2 PUSH1 0x1 PUSH1 0x1 PUSH1 0xA0 SHL SUB DUP4 AND SWAP1 DUP2 DUP5 SUB PUSH3 0x276 JUMPI PUSH1 0x1 SWAP2 PUSH1 0x0 SWAP5 DUP4 PUSH1 0xFF NOT DUP8 SLOAD AND OR DUP7 SSTORE PUSH8 0x30D98D59A960000 PUSH1 0x5 SSTORE PUSH7 0x6A94D74F430000 PUSH1 0x6 SSTORE PUSH1 0x80 MSTORE DUP4 MLOAD PUSH4 0x1C2EB17B PUSH1 0xE3 SHL DUP2 MSTORE DUP3 DUP2 PUSH1 0x4 DUP2 DUP6 GAS STATICCALL SWAP1 DUP2 ISZERO PUSH3 0x24A JUMPI DUP7 SWAP2 PUSH3 0x254 JUMPI JUMPDEST POP PUSH1 0xC0 MSTORE DUP4 MLOAD PUSH4 0xD63A6CCD PUSH1 0xE0 SHL DUP2 MSTORE DUP3 DUP2 PUSH1 0x4 DUP2 DUP6 GAS STATICCALL SWAP2 DUP3 ISZERO PUSH3 0x24A JUMPI PUSH1 0x4 SWAP3 DUP5 SWAP3 DUP9 SWAP2 PUSH3 0x228 JUMPI JUMPDEST POP PUSH1 0xA0 MSTORE DUP6 MLOAD PUSH4 0x18E7DF3D PUSH1 0xE3 SHL DUP2 MSTORE SWAP3 DUP4 SWAP2 DUP3 SWAP1 GAS STATICCALL SWAP1 DUP2 ISZERO PUSH3 0x21E JUMPI DUP6 SWAP2 PUSH3 0x1EA JUMPI JUMPDEST POP PUSH1 0xE0 MSTORE PUSH1 0x8 SLOAD DUP3 DUP2 DUP2 SHR SWAP2 AND DUP1 ISZERO PUSH3 0x1DF JUMPI JUMPDEST DUP3 DUP3 LT EQ PUSH3 0x1CB JUMPI PUSH1 0x1F DUP2 GT PUSH3 0x19C JUMPI JUMPDEST POP PUSH6 0x7669736F7229 PUSH1 0xD0 SHL SWAP3 SWAP4 PUSH1 0x4D PUSH1 0x8 SSTORE PUSH1 0x8 DUP2 MSTORE KECCAK256 PUSH32 0x4379676E75733A20416C67656272612048617276657374657220284879706572 DUP2 SSTORE ADD SSTORE MLOAD PUSH2 0x32EA SWAP1 DUP2 PUSH3 0x2D7 DUP3 CODECOPY PUSH1 0x80 MLOAD DUP2 DUP2 DUP2 PUSH2 0x180 ADD MSTORE PUSH2 0x30E2 ADD MSTORE PUSH1 0xA0 MLOAD DUP2 PUSH2 0x4A3 ADD MSTORE PUSH1 0xC0 MLOAD DUP2 PUSH2 0x1F2 ADD MSTORE PUSH1 0xE0 MLOAD DUP2 DUP2 DUP2 PUSH2 0x54E ADD MSTORE DUP2 DUP2 PUSH2 0xA62 ADD MSTORE DUP2 DUP2 PUSH2 0x1293 ADD MSTORE PUSH2 0x197A ADD MSTORE RETURN JUMPDEST PUSH1 0x8 DUP6 MSTORE PUSH1 0x2 PUSH1 0x1F DUP4 DUP8 KECCAK256 SWAP3 ADD PUSH1 0x5 SHR DUP3 ADD SWAP2 ADD JUMPDEST DUP2 DUP2 LT PUSH3 0x1C0 JUMPI POP PUSH3 0x112 JUMP JUMPDEST DUP6 DUP2 SSTORE DUP4 ADD PUSH3 0x1B1 JUMP JUMPDEST PUSH4 0x4E487B71 PUSH1 0xE0 SHL DUP6 MSTORE PUSH1 0x22 PUSH1 0x4 MSTORE PUSH1 0x24 DUP6 REVERT JUMPDEST SWAP1 PUSH1 0x7F AND SWAP1 PUSH3 0xFF JUMP JUMPDEST PUSH3 0x20F SWAP2 POP DUP3 RETURNDATASIZE DUP5 GT PUSH3 0x216 JUMPI JUMPDEST PUSH3 0x206 DUP2 DUP4 PUSH3 0x27B JUMP JUMPDEST DUP2 ADD SWAP1 PUSH3 0x2B5 JUMP JUMPDEST CODESIZE PUSH3 0xEA JUMP JUMPDEST POP RETURNDATASIZE PUSH3 0x1FA JUMP JUMPDEST DUP5 MLOAD RETURNDATASIZE DUP8 DUP3 RETURNDATACOPY RETURNDATASIZE SWAP1 REVERT JUMPDEST PUSH3 0x243 SWAP2 POP DUP4 RETURNDATASIZE DUP6 GT PUSH3 0x216 JUMPI PUSH3 0x206 DUP2 DUP4 PUSH3 0x27B JUMP JUMPDEST CODESIZE PUSH3 0xC3 JUMP JUMPDEST DUP6 MLOAD RETURNDATASIZE DUP9 DUP3 RETURNDATACOPY RETURNDATASIZE SWAP1 REVERT JUMPDEST PUSH3 0x26F SWAP2 POP DUP4 RETURNDATASIZE DUP6 GT PUSH3 0x216 JUMPI PUSH3 0x206 DUP2 DUP4 PUSH3 0x27B JUMP JUMPDEST CODESIZE PUSH3 0x96 JUMP JUMPDEST PUSH1 0x0 DUP1 REVERT JUMPDEST PUSH1 0x1F SWAP1 SWAP2 ADD PUSH1 0x1F NOT AND DUP2 ADD SWAP1 PUSH1 0x1 PUSH1 0x1 PUSH1 0x40 SHL SUB DUP3 GT SWAP1 DUP3 LT OR PUSH3 0x29F JUMPI PUSH1 0x40 MSTORE JUMP JUMPDEST PUSH4 0x4E487B71 PUSH1 0xE0 SHL PUSH1 0x0 MSTORE PUSH1 0x41 PUSH1 0x4 MSTORE PUSH1 0x24 PUSH1 0x0 REVERT JUMPDEST SWAP1 DUP2 PUSH1 0x20 SWAP2 SUB SLT PUSH3 0x276 JUMPI MLOAD PUSH1 0x1 PUSH1 0x1 PUSH1 0xA0 SHL SUB DUP2 AND DUP2 SUB PUSH3 0x276 JUMPI SWAP1 JUMP INVALID PUSH1 0x80 DUP1 PUSH1 0x40 MSTORE PUSH1 0x4 CALLDATASIZE LT ISZERO PUSH2 0x1A JUMPI JUMPDEST POP CALLDATASIZE ISZERO PUSH2 0x18 JUMPI STOP JUMPDEST STOP JUMPDEST PUSH1 0x0 SWAP1 DUP2 CALLDATALOAD PUSH1 0xE0 SHR SWAP1 DUP2 PUSH4 0x3E7020E EQ PUSH2 0x169B JUMPI POP DUP1 PUSH4 0x6FDDE03 EQ PUSH2 0x1538 JUMPI DUP1 PUSH4 0x1C03E6CC EQ PUSH2 0x13BF JUMPI DUP1 PUSH4 0x2C733D87 EQ PUSH2 0x113E JUMPI DUP1 PUSH4 0x3D509C97 EQ PUSH2 0xEC5 JUMPI DUP1 PUSH4 0x567AC8D5 EQ PUSH2 0xE2A JUMPI DUP1 PUSH4 0x79EE54F7 EQ PUSH2 0xC5B JUMPI DUP1 PUSH4 0x87976583 EQ PUSH2 0xB99 JUMPI DUP1 PUSH4 0x97F4E01B EQ PUSH2 0x95B JUMPI DUP1 PUSH4 0x9C486BD0 EQ PUSH2 0x8AD JUMPI DUP1 PUSH4 0x9EE80C5C EQ PUSH2 0x83D JUMPI DUP1 PUSH4 0xA3F11A9A EQ PUSH2 0x7FC JUMPI DUP1 PUSH4 0xA52ADA84 EQ PUSH2 0x74E JUMPI DUP1 PUSH4 0xB5B946E3 EQ PUSH2 0x712 JUMPI DUP1 PUSH4 0xB5FD73F8 EQ PUSH2 0x6A5 JUMPI DUP1 PUSH4 0xB7218B37 EQ PUSH2 0x669 JUMPI DUP1 PUSH4 0xBA3F30C6 EQ PUSH2 0x5FB JUMPI DUP1 PUSH4 0xBDCB9932 EQ PUSH2 0x5AE JUMPI DUP1 PUSH4 0xBF199E62 EQ PUSH2 0x572 JUMPI DUP1 PUSH4 0xC73EF9E8 EQ PUSH2 0x503 JUMPI DUP1 PUSH4 0xCCCD8960 EQ PUSH2 0x4C7 JUMPI DUP1 PUSH4 0xD63A6CCD EQ PUSH2 0x458 JUMPI DUP1 PUSH4 0xDAE275B6 EQ PUSH2 0x216 JUMPI DUP1 PUSH4 0xE1758BD8 EQ PUSH2 0x1A7 JUMPI PUSH4 0xE8A24E1D SUB PUSH2 0xF JUMPI CALLVALUE PUSH2 0x1A4 JUMPI DUP1 PUSH32 0xFFFFFFFFFFFFFFFFFFFFFFFFFFFFFFFFFFFFFFFFFFFFFFFFFFFFFFFFFFFFFFFC CALLDATASIZE ADD SLT PUSH2 0x1A4 JUMPI PUSH1 0x20 PUSH1 0x40 MLOAD PUSH20 0xFFFFFFFFFFFFFFFFFFFFFFFFFFFFFFFFFFFFFFFF PUSH32 0x0 AND DUP2 MSTORE RETURN JUMPDEST DUP1 REVERT JUMPDEST POP CALLVALUE PUSH2 0x1A4 JUMPI DUP1 PUSH32 0xFFFFFFFFFFFFFFFFFFFFFFFFFFFFFFFFFFFFFFFFFFFFFFFFFFFFFFFFFFFFFFFC CALLDATASIZE ADD SLT PUSH2 0x1A4 JUMPI PUSH1 0x20 PUSH1 0x40 MLOAD PUSH20 0xFFFFFFFFFFFFFFFFFFFFFFFFFFFFFFFFFFFFFFFF PUSH32 0x0 AND DUP2 MSTORE RETURN JUMPDEST POP CALLVALUE PUSH2 0x1A4 JUMPI PUSH1 0x60 PUSH32 0xFFFFFFFFFFFFFFFFFFFFFFFFFFFFFFFFFFFFFFFFFFFFFFFFFFFFFFFFFFFFFFFC CALLDATASIZE ADD SLT PUSH2 0x1A4 JUMPI PUSH1 0x4 CALLDATALOAD PUSH20 0xFFFFFFFFFFFFFFFFFFFFFFFFFFFFFFFFFFFFFFFF DUP1 DUP3 AND SWAP2 DUP3 DUP2 SUB PUSH2 0x453 JUMPI PUSH1 0x24 CALLDATALOAD SWAP2 DUP1 DUP4 AND SWAP3 DUP4 DUP2 SUB PUSH2 0x453 JUMPI PUSH1 0x44 CALLDATALOAD SWAP2 DUP1 DUP4 AND SWAP1 DUP2 DUP5 SUB PUSH2 0x453 JUMPI PUSH2 0x28F PUSH2 0x309D JUMP JUMPDEST PUSH1 0x40 MLOAD SWAP6 PUSH32 0x6F307DC300000000000000000000000000000000000000000000000000000000 DUP8 MSTORE DUP9 PUSH1 0x20 DUP1 DUP10 PUSH1 0x4 DUP2 DUP14 GAS STATICCALL SWAP9 DUP10 ISZERO PUSH2 0x448 JUMPI DUP3 SWAP10 PUSH2 0x3CC JUMPI JUMPDEST POP PUSH32 0xB6A8C784464BBDC8B94F70BE7CEB25DC9F5B72FC3B64BA76F6A0121D15C4BC85 SWAP10 DUP10 SWAP4 DUP6 PUSH1 0x40 PUSH2 0x3C6 SWAP11 SWAP10 SWAP9 SWAP8 SWAP6 PUSH1 0x1 PUSH1 0x3 SWAP7 DUP4 MLOAD SWAP7 PUSH2 0x312 PUSH1 0x80 DUP10 PUSH2 0x26ED JUMP JUMPDEST DUP1 DUP9 MSTORE DUP6 DUP3 DUP10 ADD SWAP12 AND DUP12 MSTORE DUP5 DUP9 ADD SWAP7 DUP8 MSTORE PUSH1 0x60 DUP9 ADD SWAP12 DUP13 MSTORE DUP4 MSTORE MSTORE KECCAK256 SWAP3 MLOAD AND SWAP5 PUSH32 0xFFFFFFFFFFFFFFFFFFFFFFFF0000000000000000000000000000000000000000 SWAP6 DUP7 DUP5 SLOAD AND OR DUP4 SSTORE DUP5 PUSH1 0x1 DUP5 ADD SWAP2 MLOAD AND DUP7 DUP3 SLOAD AND OR SWAP1 SSTORE DUP4 PUSH1 0x2 DUP4 ADD SWAP2 MLOAD AND DUP6 DUP3 SLOAD AND OR SWAP1 SSTORE ADD SWAP3 MLOAD AND SWAP1 DUP3 SLOAD AND OR SWAP1 SSTORE PUSH1 0x40 MLOAD SWAP5 DUP6 SWAP5 DUP6 SWAP3 SWAP5 SWAP4 PUSH1 0x60 SWAP3 SWAP2 PUSH1 0x80 DUP6 ADD SWAP7 PUSH20 0xFFFFFFFFFFFFFFFFFFFFFFFFFFFFFFFFFFFFFFFF DUP1 SWAP5 DUP2 DUP1 SWAP5 AND DUP9 MSTORE AND PUSH1 0x20 DUP8 ADD MSTORE AND PUSH1 0x40 DUP6 ADD MSTORE AND SWAP2 ADD MSTORE JUMP JUMPDEST SUB SWAP1 LOG1 DUP1 RETURN JUMPDEST SWAP1 DUP1 SWAP4 SWAP10 POP DUP2 DUP2 SWAP9 SWAP8 SWAP7 SWAP6 SWAP4 SWAP9 RETURNDATASIZE DUP4 GT PUSH2 0x441 JUMPI JUMPDEST PUSH2 0x3EB DUP2 DUP4 PUSH2 0x26ED JUMP JUMPDEST DUP2 ADD SUB SLT PUSH2 0x43D JUMPI PUSH32 0xB6A8C784464BBDC8B94F70BE7CEB25DC9F5B72FC3B64BA76F6A0121D15C4BC85 SWAP10 PUSH1 0x1 SWAP10 DUP4 PUSH1 0x40 PUSH2 0x3C6 SWAP11 PUSH2 0x42A PUSH1 0x3 SWAP7 PUSH2 0x281A JUMP JUMPDEST SWAP14 POP SWAP6 POP POP SWAP6 SWAP7 SWAP8 SWAP9 POP SWAP4 SWAP2 POP SWAP10 PUSH2 0x2CF JUMP JUMPDEST DUP7 DUP1 REVERT JUMPDEST POP RETURNDATASIZE PUSH2 0x3E1 JUMP JUMPDEST PUSH1 0x40 MLOAD RETURNDATASIZE DUP5 DUP3 RETURNDATACOPY RETURNDATASIZE SWAP1 REVERT JUMPDEST PUSH1 0x0 DUP1 REVERT JUMPDEST POP CALLVALUE PUSH2 0x1A4 JUMPI DUP1 PUSH32 0xFFFFFFFFFFFFFFFFFFFFFFFFFFFFFFFFFFFFFFFFFFFFFFFFFFFFFFFFFFFFFFFC CALLDATASIZE ADD SLT PUSH2 0x1A4 JUMPI PUSH1 0x20 PUSH1 0x40 MLOAD PUSH20 0xFFFFFFFFFFFFFFFFFFFFFFFFFFFFFFFFFFFFFFFF PUSH32 0x0 AND DUP2 MSTORE RETURN JUMPDEST POP CALLVALUE PUSH2 0x1A4 JUMPI DUP1 PUSH32 0xFFFFFFFFFFFFFFFFFFFFFFFFFFFFFFFFFFFFFFFFFFFFFFFFFFFFFFFFFFFFFFFC CALLDATASIZE ADD SLT PUSH2 0x1A4 JUMPI PUSH1 0x20 PUSH1 0x6 SLOAD PUSH1 0x40 MLOAD SWAP1 DUP2 MSTORE RETURN JUMPDEST POP CALLVALUE PUSH2 0x1A4 JUMPI DUP1 PUSH32 0xFFFFFFFFFFFFFFFFFFFFFFFFFFFFFFFFFFFFFFFFFFFFFFFFFFFFFFFFFFFFFFFC CALLDATASIZE ADD SLT PUSH2 0x1A4 JUMPI PUSH1 0x20 PUSH1 0x40 MLOAD PUSH20 0xFFFFFFFFFFFFFFFFFFFFFFFFFFFFFFFFFFFFFFFF PUSH32 0x0 AND DUP2 MSTORE RETURN JUMPDEST POP CALLVALUE PUSH2 0x1A4 JUMPI DUP1 PUSH32 0xFFFFFFFFFFFFFFFFFFFFFFFFFFFFFFFFFFFFFFFFFFFFFFFFFFFFFFFFFFFFFFFC CALLDATASIZE ADD SLT PUSH2 0x1A4 JUMPI PUSH1 0x20 PUSH1 0x2 SLOAD PUSH1 0x40 MLOAD SWAP1 DUP2 MSTORE RETURN JUMPDEST POP CALLVALUE PUSH2 0x1A4 JUMPI DUP1 PUSH32 0xFFFFFFFFFFFFFFFFFFFFFFFFFFFFFFFFFFFFFFFFFFFFFFFFFFFFFFFFFFFFFFFC CALLDATASIZE ADD SLT PUSH2 0x1A4 JUMPI PUSH1 0x20 PUSH1 0x40 MLOAD PUSH20 0x1111111254EEB25477B68FB85ED929F73A960582 DUP2 MSTORE RETURN JUMPDEST POP CALLVALUE PUSH2 0x1A4 JUMPI PUSH1 0x20 PUSH32 0xFFFFFFFFFFFFFFFFFFFFFFFFFFFFFFFFFFFFFFFFFFFFFFFFFFFFFFFFFFFFFFFC CALLDATASIZE ADD SLT PUSH2 0x1A4 JUMPI PUSH1 0x20 PUSH2 0x661 PUSH20 0xFFFFFFFFFFFFFFFFFFFFFFFFFFFFFFFFFFFFFFFF PUSH2 0x652 PUSH1 0x4 CALLDATALOAD PUSH1 0x2 PUSH2 0x27BB JUMP JUMPDEST SWAP2 SWAP1 SLOAD ADDRESS SWAP3 PUSH1 0x3 SHL SHR AND PUSH2 0x32AE JUMP JUMPDEST PUSH1 0x40 MLOAD SWAP1 DUP2 MSTORE RETURN JUMPDEST POP CALLVALUE PUSH2 0x1A4 JUMPI DUP1 PUSH32 0xFFFFFFFFFFFFFFFFFFFFFFFFFFFFFFFFFFFFFFFFFFFFFFFFFFFFFFFFFFFFFFFC CALLDATASIZE ADD SLT PUSH2 0x1A4 JUMPI PUSH1 0x20 PUSH1 0x5 SLOAD PUSH1 0x40 MLOAD SWAP1 DUP2 MSTORE RETURN JUMPDEST POP CALLVALUE PUSH2 0x1A4 JUMPI PUSH1 0x20 PUSH32 0xFFFFFFFFFFFFFFFFFFFFFFFFFFFFFFFFFFFFFFFFFFFFFFFFFFFFFFFFFFFFFFFC CALLDATASIZE ADD SLT PUSH2 0x1A4 JUMPI PUSH1 0x4 CALLDATALOAD SWAP1 PUSH20 0xFFFFFFFFFFFFFFFFFFFFFFFFFFFFFFFFFFFFFFFF DUP3 AND DUP1 SWAP3 SUB PUSH2 0x453 JUMPI PUSH1 0x40 DUP2 PUSH1 0x20 SWAP4 PUSH1 0xFF SWAP4 MSTORE PUSH1 0x3 DUP5 MSTORE KECCAK256 SLOAD AND PUSH1 0x40 MLOAD SWAP1 ISZERO ISZERO DUP2 MSTORE RETURN JUMPDEST POP CALLVALUE PUSH2 0x1A4 JUMPI DUP1 PUSH32 0xFFFFFFFFFFFFFFFFFFFFFFFFFFFFFFFFFFFFFFFFFFFFFFFFFFFFFFFFFFFFFFFC CALLDATASIZE ADD SLT PUSH2 0x1A4 JUMPI PUSH1 0x20 PUSH1 0x4 SLOAD PUSH1 0x40 MLOAD SWAP1 DUP2 MSTORE RETURN JUMPDEST POP CALLVALUE PUSH2 0x1A4 JUMPI PUSH1 0x20 PUSH32 0xFFFFFFFFFFFFFFFFFFFFFFFFFFFFFFFFFFFFFFFFFFFFFFFFFFFFFFFFFFFFFFFC CALLDATASIZE ADD SLT PUSH2 0x1A4 JUMPI PUSH1 0x4 CALLDATALOAD PUSH2 0x789 PUSH2 0x309D JUMP JUMPDEST PUSH8 0x6F05B59D3B20000 DUP2 GT PUSH2 0x7D2 JUMPI PUSH1 0x40 PUSH32 0xCDF0E2499BE1CF2F4ACFF51A3C1B2E66AF5D59C4D540BB5A36D9800D254A5C80 SWAP2 PUSH1 0x5 SLOAD SWAP1 DUP1 PUSH1 0x5 SSTORE DUP3 MLOAD SWAP2 DUP3 MSTORE PUSH1 0x20 DUP3 ADD MSTORE LOG1 DUP1 RETURN JUMPDEST PUSH1 0x4 PUSH1 0x40 MLOAD PUSH32 0x174D156B00000000000000000000000000000000000000000000000000000000 DUP2 MSTORE REVERT JUMPDEST POP CALLVALUE PUSH2 0x1A4 JUMPI DUP1 PUSH32 0xFFFFFFFFFFFFFFFFFFFFFFFFFFFFFFFFFFFFFFFFFFFFFFFFFFFFFFFFFFFFFFFC CALLDATASIZE ADD SLT PUSH2 0x1A4 JUMPI PUSH1 0x20 PUSH1 0xFF PUSH1 0x7 SLOAD AND PUSH1 0x40 MLOAD SWAP1 ISZERO ISZERO DUP2 MSTORE RETURN JUMPDEST POP CALLVALUE PUSH2 0x1A4 JUMPI PUSH1 0x20 PUSH32 0xFFFFFFFFFFFFFFFFFFFFFFFFFFFFFFFFFFFFFFFFFFFFFFFFFFFFFFFFFFFFFFFC CALLDATASIZE ADD SLT PUSH2 0x1A4 JUMPI PUSH1 0x4 CALLDATALOAD SWAP1 PUSH1 0x2 SLOAD DUP3 LT ISZERO PUSH2 0x1A4 JUMPI PUSH1 0x20 PUSH20 0xFFFFFFFFFFFFFFFFFFFFFFFFFFFFFFFFFFFFFFFF PUSH2 0x89D DUP5 PUSH1 0x2 PUSH2 0x27BB JUMP JUMPDEST SWAP2 SWAP1 SLOAD PUSH1 0x40 MLOAD SWAP3 PUSH1 0x3 SHL SHR AND DUP2 MSTORE RETURN JUMPDEST POP CALLVALUE PUSH2 0x1A4 JUMPI PUSH1 0x20 PUSH32 0xFFFFFFFFFFFFFFFFFFFFFFFFFFFFFFFFFFFFFFFFFFFFFFFFFFFFFFFFFFFFFFFC CALLDATASIZE ADD SLT PUSH2 0x1A4 JUMPI PUSH1 0x4 CALLDATALOAD PUSH2 0x8E8 PUSH2 0x309D JUMP JUMPDEST PUSH8 0x16345785D8A0000 DUP2 GT PUSH2 0x931 JUMPI PUSH1 0x40 PUSH32 0x65AE41069D2671929DEED6D59A7DFFA21E5300F58EED9CA4A481CCC94D4560E3 SWAP2 PUSH1 0x6 SLOAD SWAP1 DUP1 PUSH1 0x6 SSTORE DUP3 MLOAD SWAP2 DUP3 MSTORE PUSH1 0x20 DUP3 ADD MSTORE LOG1 DUP1 RETURN JUMPDEST PUSH1 0x4 PUSH1 0x40 MLOAD PUSH32 0xCA4BF1B800000000000000000000000000000000000000000000000000000000 DUP2 MSTORE REVERT JUMPDEST POP CALLVALUE PUSH2 0x1A4 JUMPI DUP1 PUSH32 0xFFFFFFFFFFFFFFFFFFFFFFFFFFFFFFFFFFFFFFFFFFFFFFFFFFFFFFFFFFFFFFFC CALLDATASIZE ADD SLT PUSH2 0x1A4 JUMPI DUP1 SLOAD PUSH1 0xFF DUP2 AND ISZERO PUSH2 0xB6F JUMPI PUSH32 0xFFFFFFFFFFFFFFFFFFFFFFFFFFFFFFFFFFFFFFFFFFFFFFFFFFFFFFFFFFFFFF00 DUP1 SWAP2 AND DUP3 SSTORE PUSH1 0x40 MLOAD SWAP1 DUP2 SWAP1 PUSH1 0x2 SLOAD DUP1 DUP5 MSTORE DUP3 PUSH1 0x20 DUP1 SWAP6 ADD PUSH1 0x2 DUP8 MSTORE PUSH32 0x405787FA12A823E0F2B7631CC41B3BA8828B3321CA811111FA75CD3AA3BB5ACE SWAP3 DUP8 JUMPDEST DUP8 DUP3 DUP3 LT PUSH2 0xB43 JUMPI POP POP POP PUSH2 0xA0C SWAP3 POP SUB DUP4 PUSH2 0x26ED JUMP JUMPDEST DUP4 JUMPDEST DUP3 MLOAD DUP2 LT ISZERO PUSH2 0xAF9 JUMPI DUP5 PUSH20 0xFFFFFFFFFFFFFFFFFFFFFFFFFFFFFFFFFFFFFFFF DUP1 PUSH2 0xA38 DUP5 DUP8 PUSH2 0x292C JUMP JUMPDEST MLOAD AND SWAP1 PUSH2 0xA45 ADDRESS DUP4 PUSH2 0x32AE JUMP JUMPDEST DUP1 PUSH2 0xA5D JUMPI JUMPDEST POP POP POP POP PUSH2 0xA58 SWAP1 PUSH2 0x3070 JUMP JUMPDEST PUSH2 0xA0E JUMP JUMPDEST PUSH2 0xA89 PUSH32 0x0 SWAP2 DUP3 DUP6 PUSH2 0x3265 JUMP JUMPDEST AND SWAP1 DUP2 EXTCODESIZE ISZERO PUSH2 0xAF5 JUMPI DUP3 SWAP2 PUSH1 0x24 DUP4 SWAP3 PUSH1 0x40 MLOAD SWAP5 DUP6 SWAP4 DUP5 SWAP3 PUSH32 0x632447C900000000000000000000000000000000000000000000000000000000 DUP5 MSTORE PUSH1 0x4 DUP5 ADD MSTORE GAS CALL DUP1 ISZERO PUSH2 0x448 JUMPI PUSH2 0xADC JUMPI JUMPDEST DUP1 DUP1 PUSH2 0xA4B JUMP JUMPDEST DUP2 PUSH2 0xAE6 SWAP2 PUSH2 0x26ED JUMP JUMPDEST PUSH2 0xAF1 JUMPI DUP5 CODESIZE PUSH2 0xAD5 JUMP JUMPDEST DUP5 DUP1 REVERT JUMPDEST DUP3 DUP1 REVERT JUMPDEST DUP5 PUSH1 0x1 DUP4 PUSH32 0x16A9FD824A632BA02AF308C1F7597F156FA9EC25B50BF207E0C0C34D28D27AB6 PUSH1 0x60 DUP9 TIMESTAMP PUSH1 0x4 SSTORE PUSH1 0x2 SLOAD PUSH1 0x40 MLOAD SWAP2 TIMESTAMP DUP4 MSTORE CALLER SWAP1 DUP4 ADD MSTORE PUSH1 0x40 DUP3 ADD MSTORE LOG1 DUP3 SLOAD AND OR DUP2 SSTORE DUP1 RETURN JUMPDEST DUP6 SLOAD PUSH20 0xFFFFFFFFFFFFFFFFFFFFFFFFFFFFFFFFFFFFFFFF AND DUP5 MSTORE PUSH1 0x1 SWAP6 DUP7 ADD SWAP6 DUP9 SWAP6 POP SWAP4 ADD SWAP3 ADD PUSH2 0x9F5 JUMP JUMPDEST PUSH1 0x4 PUSH1 0x40 MLOAD PUSH32 0x37ED32E800000000000000000000000000000000000000000000000000000000 DUP2 MSTORE REVERT JUMPDEST POP CALLVALUE PUSH2 0x1A4 JUMPI PUSH1 0x20 PUSH32 0xFFFFFFFFFFFFFFFFFFFFFFFFFFFFFFFFFFFFFFFFFFFFFFFFFFFFFFFFFFFFFFFC CALLDATASIZE ADD SLT PUSH2 0x1A4 JUMPI PUSH1 0x4 CALLDATALOAD PUSH20 0xFFFFFFFFFFFFFFFFFFFFFFFFFFFFFFFFFFFFFFFF SWAP2 DUP3 DUP3 AND DUP1 SWAP3 SUB PUSH2 0x453 JUMPI PUSH1 0x40 SWAP2 DUP2 MSTORE PUSH1 0x1 PUSH1 0x20 MSTORE KECCAK256 PUSH2 0xC57 DUP3 DUP3 SLOAD AND SWAP2 DUP4 PUSH1 0x1 DUP3 ADD SLOAD AND SWAP4 PUSH1 0x3 DUP2 PUSH1 0x2 DUP5 ADD SLOAD AND SWAP3 ADD SLOAD AND SWAP1 PUSH1 0x40 MLOAD SWAP5 DUP6 SWAP5 DUP6 SWAP3 SWAP5 SWAP4 PUSH1 0x60 SWAP3 SWAP2 PUSH1 0x80 DUP6 ADD SWAP7 PUSH20 0xFFFFFFFFFFFFFFFFFFFFFFFFFFFFFFFFFFFFFFFF DUP1 SWAP5 DUP2 DUP1 SWAP5 AND DUP9 MSTORE AND PUSH1 0x20 DUP8 ADD MSTORE AND PUSH1 0x40 DUP6 ADD MSTORE AND SWAP2 ADD MSTORE JUMP JUMPDEST SUB SWAP1 RETURN JUMPDEST POP CALLVALUE PUSH2 0x1A4 JUMPI PUSH1 0x20 DUP1 PUSH32 0xFFFFFFFFFFFFFFFFFFFFFFFFFFFFFFFFFFFFFFFFFFFFFFFFFFFFFFFFFFFFFFFC CALLDATASIZE ADD SLT PUSH2 0xE26 JUMPI PUSH1 0x4 CALLDATALOAD PUSH20 0xFFFFFFFFFFFFFFFFFFFFFFFFFFFFFFFFFFFFFFFF DUP1 DUP3 AND DUP1 SWAP3 SUB PUSH2 0x453 JUMPI DUP4 SLOAD SWAP1 PUSH1 0xFF DUP3 AND ISZERO PUSH2 0xB6F JUMPI DUP5 DUP1 SWAP4 PUSH32 0xFFFFFFFFFFFFFFFFFFFFFFFFFFFFFFFFFFFFFFFFFFFFFFFFFFFFFFFFFFFFFF00 DUP1 SWAP5 AND DUP3 SSTORE PUSH1 0x4 PUSH1 0x40 MLOAD DUP1 SWAP7 DUP2 SWAP4 PUSH32 0x572B0CC00000000000000000000000000000000000000000000000000000000 DUP4 MSTORE GAS CALL SWAP3 DUP4 ISZERO PUSH2 0xE1B JUMPI DUP6 SWAP1 DUP7 SWAP5 PUSH2 0xDF4 JUMPI JUMPDEST POP DUP6 SWAP5 PUSH1 0x5 SLOAD SWAP7 JUMPDEST DUP6 MLOAD DUP2 LT ISZERO PUSH2 0xD72 JUMPI DUP1 PUSH2 0xD5D PUSH2 0xD4D DUP11 PUSH2 0xD47 PUSH2 0xD6D SWAP6 DUP12 PUSH2 0x292C JUMP JUMPDEST MLOAD PUSH2 0x3180 JUMP JUMPDEST PUSH2 0xD57 DUP4 DUP11 PUSH2 0x292C JUMP JUMPDEST MLOAD PUSH2 0x29DC JUMP JUMPDEST PUSH2 0xD67 DUP3 DUP10 PUSH2 0x292C JUMP JUMPDEST MSTORE PUSH2 0x3070 JUMP JUMPDEST PUSH2 0xD29 JUMP JUMPDEST POP DUP5 SWAP4 SWAP2 DUP7 SWAP2 PUSH1 0x1 DUP1 SWAP5 DUP5 SLOAD AND OR DUP4 SSTORE PUSH1 0x40 MLOAD SWAP5 PUSH1 0x40 DUP7 ADD PUSH1 0x40 DUP8 MSTORE DUP4 MLOAD DUP1 SWAP2 MSTORE DUP3 PUSH1 0x60 DUP9 ADD SWAP5 ADD SWAP2 DUP6 SWAP1 JUMPDEST DUP3 DUP3 LT PUSH2 0xDDD JUMPI POP POP POP POP DUP5 DUP3 SUB DUP2 DUP7 ADD MSTORE DUP1 DUP1 DUP8 MLOAD SWAP4 DUP5 DUP2 MSTORE ADD SWAP7 ADD SWAP3 JUMPDEST DUP3 DUP2 LT PUSH2 0xDCA JUMPI DUP6 DUP8 SUB DUP7 RETURN JUMPDEST DUP4 MLOAD DUP8 MSTORE SWAP6 DUP2 ADD SWAP6 SWAP3 DUP2 ADD SWAP3 DUP5 ADD PUSH2 0xDBD JUMP JUMPDEST DUP4 MLOAD DUP2 AND DUP7 MSTORE SWAP5 DUP5 ADD SWAP5 SWAP3 DUP5 ADD SWAP3 SWAP1 DUP8 ADD SWAP1 PUSH2 0xD9E JUMP JUMPDEST SWAP1 POP PUSH2 0xE13 SWAP2 SWAP4 POP RETURNDATASIZE DUP1 DUP8 DUP4 RETURNDATACOPY PUSH2 0xE0B DUP2 DUP4 PUSH2 0x26ED JUMP JUMPDEST DUP2 ADD SWAP1 PUSH2 0x283B JUMP JUMPDEST SWAP3 SWAP1 CODESIZE PUSH2 0xD21 JUMP JUMPDEST PUSH1 0x40 MLOAD RETURNDATASIZE DUP8 DUP3 RETURNDATACOPY RETURNDATASIZE SWAP1 REVERT JUMPDEST POP DUP1 REVERT JUMPDEST POP CALLVALUE PUSH2 0x1A4 JUMPI DUP1 PUSH32 0xFFFFFFFFFFFFFFFFFFFFFFFFFFFFFFFFFFFFFFFFFFFFFFFFFFFFFFFFFFFFFFFC CALLDATASIZE ADD SLT PUSH2 0x1A4 JUMPI PUSH2 0xE61 PUSH2 0x309D JUMP JUMPDEST PUSH32 0xFB8D0AF087D7B03D1F7BD996E77BA2CA8D33FF1ACB0C72A9D12C8987DF8652F2 PUSH1 0x20 PUSH1 0x7 SLOAD PUSH1 0xFF DUP1 DUP3 AND ISZERO AND DUP1 PUSH32 0xFFFFFFFFFFFFFFFFFFFFFFFFFFFFFFFFFFFFFFFFFFFFFFFFFFFFFFFFFFFFFF00 DUP4 AND OR PUSH1 0x7 SSTORE DUP5 PUSH1 0x40 MLOAD SWAP3 AND OR ISZERO ISZERO DUP2 MSTORE LOG1 DUP1 RETURN JUMPDEST POP CALLVALUE PUSH2 0x1A4 JUMPI PUSH1 0x20 PUSH32 0xFFFFFFFFFFFFFFFFFFFFFFFFFFFFFFFFFFFFFFFFFFFFFFFFFFFFFFFFFFFFFFFC CALLDATASIZE ADD SLT PUSH2 0x1A4 JUMPI PUSH20 0xFFFFFFFFFFFFFFFFFFFFFFFFFFFFFFFFFFFFFFFF PUSH1 0x4 CALLDATALOAD DUP2 DUP2 AND SWAP3 SWAP2 DUP4 DUP3 SUB PUSH2 0x453 JUMPI PUSH2 0xF21 PUSH2 0x309D JUMP JUMPDEST DUP4 DUP4 MSTORE PUSH1 0x3 SWAP4 DUP5 PUSH1 0x20 MSTORE PUSH1 0xFF PUSH1 0x40 DUP6 KECCAK256 SLOAD AND ISZERO PUSH2 0x1114 JUMPI DUP1 DUP5 MSTORE DUP5 PUSH1 0x20 MSTORE PUSH1 0x40 DUP5 KECCAK256 PUSH32 0xFFFFFFFFFFFFFFFFFFFFFFFFFFFFFFFFFFFFFFFFFFFFFFFFFFFFFFFFFFFFFF00 DUP2 SLOAD AND SWAP1 SSTORE PUSH1 0x2 SWAP2 DUP3 SLOAD SWAP6 DUP6 JUMPDEST DUP8 DUP2 LT PUSH2 0xFCD JUMPI JUMPDEST DUP5 SLOAD PUSH1 0x40 DUP1 MLOAD PUSH20 0xFFFFFFFFFFFFFFFFFFFFFFFFFFFFFFFFFFFFFFFF DUP10 AND DUP2 MSTORE PUSH1 0x20 DUP2 ADD SWAP3 SWAP1 SWAP3 MSTORE DUP9 SWAP2 PUSH32 0xBE0D2CC926911D1413D431090D31DD4A56DE7770AFB1245163F0E0AC7916DB21 SWAP2 DUP2 SWAP1 DUP2 ADD PUSH2 0x3C6 JUMP JUMPDEST DUP4 DUP4 PUSH2 0xFD9 DUP4 DUP9 PUSH2 0x27BB JUMP JUMPDEST SWAP1 SLOAD SWAP1 DUP6 SHL SHR AND EQ PUSH2 0xFF3 JUMPI PUSH2 0xFEE SWAP1 PUSH2 0x3070 JUMP JUMPDEST PUSH2 0xF71 JUMP JUMPDEST SWAP3 POP PUSH32 0xFFFFFFFFFFFFFFFFFFFFFFFFFFFFFFFFFFFFFFFFFFFFFFFFFFFFFFFFFFFFFFFF SWAP7 DUP8 DUP2 ADD SWAP1 DUP2 GT PUSH2 0x10E7 JUMPI SWAP2 PUSH2 0x1041 SWAP2 PUSH2 0x1034 PUSH2 0x1073 SWAP6 SWAP5 DUP8 PUSH2 0x27BB JUMP JUMPDEST SWAP1 SLOAD SWAP2 SHL SHR AND SWAP2 DUP5 PUSH2 0x27BB JUMP JUMPDEST SWAP1 SWAP2 SWAP1 DUP3 SLOAD SWAP1 PUSH1 0x3 SHL SWAP2 PUSH20 0xFFFFFFFFFFFFFFFFFFFFFFFFFFFFFFFFFFFFFFFF SWAP3 DUP4 DUP2 SHL SWAP4 DUP5 SWAP3 AND SWAP1 SHL AND SWAP2 NOT AND OR SWAP1 SSTORE JUMP JUMPDEST DUP1 SLOAD SWAP4 DUP5 ISZERO PUSH2 0x10BA JUMPI PUSH32 0xBE0D2CC926911D1413D431090D31DD4A56DE7770AFB1245163F0E0AC7916DB21 SWAP4 SWAP5 ADD PUSH2 0x10AE DUP6 PUSH2 0x1041 DUP4 DUP6 PUSH2 0x27BB JUMP JUMPDEST DUP2 SSTORE DUP4 SWAP3 CODESIZE DUP1 DUP1 PUSH2 0xF79 JUMP JUMPDEST PUSH1 0x24 DUP5 PUSH32 0x4E487B7100000000000000000000000000000000000000000000000000000000 DUP2 MSTORE PUSH1 0x31 PUSH1 0x4 MSTORE REVERT JUMPDEST PUSH1 0x24 DUP8 PUSH32 0x4E487B7100000000000000000000000000000000000000000000000000000000 DUP2 MSTORE PUSH1 0x11 PUSH1 0x4 MSTORE REVERT JUMPDEST PUSH1 0x4 PUSH1 0x40 MLOAD PUSH32 0xA4F731E000000000000000000000000000000000000000000000000000000000 DUP2 MSTORE REVERT JUMPDEST POP CALLVALUE PUSH2 0x1A4 JUMPI PUSH1 0x20 SWAP1 DUP2 PUSH32 0xFFFFFFFFFFFFFFFFFFFFFFFFFFFFFFFFFFFFFFFFFFFFFFFFFFFFFFFFFFFFFFFC CALLDATASIZE ADD SLT PUSH2 0x1A4 JUMPI PUSH1 0x4 CALLDATALOAD SWAP1 PUSH20 0xFFFFFFFFFFFFFFFFFFFFFFFFFFFFFFFFFFFFFFFF DUP1 DUP4 AND SWAP1 DUP2 DUP5 SUB PUSH2 0x453 JUMPI DUP3 SLOAD SWAP4 PUSH1 0xFF SWAP6 DUP7 DUP7 AND ISZERO PUSH2 0xB6F JUMPI PUSH32 0xFFFFFFFFFFFFFFFFFFFFFFFFFFFFFFFFFFFFFFFFFFFFFFFFFFFFFFFFFFFFFF00 DUP1 SWAP7 AND DUP6 SSTORE DUP7 PUSH1 0x7 SLOAD AND ISZERO PUSH2 0x1395 JUMPI DUP5 DUP1 SWAP5 PUSH1 0x4 PUSH1 0x40 MLOAD DUP1 SWAP8 DUP2 SWAP4 PUSH32 0x572B0CC00000000000000000000000000000000000000000000000000000000 DUP4 MSTORE GAS CALL SWAP7 DUP8 ISZERO PUSH2 0xE1B JUMPI DUP6 SWAP5 DUP7 SWAP9 PUSH2 0x1373 JUMPI JUMPDEST POP DUP6 JUMPDEST DUP6 MLOAD DUP2 LT ISZERO PUSH2 0x1366 JUMPI PUSH2 0x1229 DUP2 DUP11 PUSH2 0x292C JUMP JUMPDEST MLOAD ISZERO ISZERO DUP1 PUSH2 0x1346 JUMPI JUMPDEST PUSH2 0x1245 JUMPI JUMPDEST PUSH2 0x1240 SWAP1 PUSH2 0x3070 JUMP JUMPDEST PUSH2 0x1216 JUMP JUMPDEST DUP5 DUP2 PUSH2 0x12C0 DUP9 DUP13 DUP9 PUSH2 0x12BA DUP7 PUSH2 0x128B DUP8 PUSH2 0x126C PUSH2 0x1262 DUP3 DUP9 PUSH2 0x292C JUMP JUMPDEST MLOAD PUSH1 0x6 SLOAD SWAP1 PUSH2 0x3180 JUMP JUMPDEST SWAP7 PUSH2 0x1286 DUP9 DUP6 PUSH2 0x127C DUP6 DUP6 PUSH2 0x292C JUMP JUMPDEST MLOAD AND DUP9 CALLER SWAP2 PUSH2 0x320C JUMP JUMPDEST PUSH2 0x292C JUMP JUMPDEST MLOAD AND SWAP4 PUSH2 0xD57 PUSH32 0x0 SWAP8 DUP9 SWAP6 PUSH2 0x292C JUMP JUMPDEST SWAP3 PUSH2 0x320C JUMP JUMPDEST AND DUP6 PUSH2 0x12CC DUP4 DUP10 PUSH2 0x292C JUMP JUMPDEST MLOAD AND DUP2 EXTCODESIZE ISZERO PUSH2 0x1342 JUMPI DUP9 SWAP2 PUSH1 0x24 DUP4 SWAP3 PUSH1 0x40 MLOAD SWAP5 DUP6 SWAP4 DUP5 SWAP3 PUSH32 0x632447C900000000000000000000000000000000000000000000000000000000 DUP5 MSTORE PUSH1 0x4 DUP5 ADD MSTORE GAS CALL DUP1 ISZERO PUSH2 0x1337 JUMPI SWAP1 DUP9 SWAP2 PUSH2 0x1322 JUMPI JUMPDEST POP POP PUSH2 0x1237 JUMP JUMPDEST DUP2 PUSH2 0x132C SWAP2 PUSH2 0x26ED JUMP JUMPDEST PUSH2 0x43D JUMPI DUP7 CODESIZE PUSH2 0x131B JUMP JUMPDEST PUSH1 0x40 MLOAD RETURNDATASIZE DUP11 DUP3 RETURNDATACOPY RETURNDATASIZE SWAP1 REVERT JUMPDEST DUP9 DUP1 REVERT JUMPDEST POP DUP5 PUSH2 0x1352 DUP3 DUP9 PUSH2 0x292C JUMP JUMPDEST MLOAD AND DUP8 MSTORE PUSH1 0x3 DUP4 MSTORE DUP2 PUSH1 0x40 DUP9 KECCAK256 SLOAD AND PUSH2 0x1232 JUMP JUMPDEST DUP7 PUSH1 0x1 DUP10 DUP3 SLOAD AND OR DUP2 SSTORE DUP1 RETURN JUMPDEST SWAP1 SWAP8 POP PUSH2 0x138B SWAP2 SWAP5 POP RETURNDATASIZE DUP1 DUP8 DUP4 RETURNDATACOPY PUSH2 0xE0B DUP2 DUP4 PUSH2 0x26ED JUMP JUMPDEST SWAP4 SWAP1 SWAP4 SWAP7 CODESIZE PUSH2 0x1213 JUMP JUMPDEST PUSH1 0x4 PUSH1 0x40 MLOAD PUSH32 0xC8A2FF0000000000000000000000000000000000000000000000000000000000 DUP2 MSTORE REVERT JUMPDEST POP CALLVALUE PUSH2 0x1A4 JUMPI PUSH1 0x20 PUSH32 0xFFFFFFFFFFFFFFFFFFFFFFFFFFFFFFFFFFFFFFFFFFFFFFFFFFFFFFFFFFFFFFFC CALLDATASIZE ADD SLT PUSH2 0x1A4 JUMPI PUSH1 0x4 CALLDATALOAD SWAP1 PUSH20 0xFFFFFFFFFFFFFFFFFFFFFFFFFFFFFFFFFFFFFFFF DUP3 AND SWAP2 DUP3 DUP2 SUB PUSH2 0x453 JUMPI PUSH2 0x141A PUSH2 0x309D JUMP JUMPDEST DUP3 DUP3 MSTORE PUSH1 0x3 PUSH1 0x20 MSTORE PUSH1 0xFF PUSH1 0x40 DUP4 KECCAK256 SLOAD AND PUSH2 0x150E JUMPI PUSH1 0x2 SLOAD SWAP3 PUSH9 0x10000000000000000 DUP5 LT ISZERO PUSH2 0x14E1 JUMPI PUSH2 0x147B DUP3 PUSH2 0x1041 DUP7 PUSH1 0x1 PUSH32 0x68E3E9397770D9DFA88C0953A34E1A70A05416B3895957F5B689787A920791C4 SWAP8 SWAP9 ADD PUSH1 0x2 SSTORE PUSH1 0x2 PUSH2 0x27BB JUMP JUMPDEST DUP4 MSTORE PUSH1 0x3 PUSH1 0x20 SWAP1 DUP2 MSTORE PUSH1 0x40 DUP1 DUP6 KECCAK256 DUP1 SLOAD PUSH32 0xFFFFFFFFFFFFFFFFFFFFFFFFFFFFFFFFFFFFFFFFFFFFFFFFFFFFFFFFFFFFFF00 AND PUSH1 0x1 OR SWAP1 SSTORE PUSH1 0x2 SLOAD DUP2 MLOAD PUSH20 0xFFFFFFFFFFFFFFFFFFFFFFFFFFFFFFFFFFFFFFFF SWAP1 SWAP5 AND DUP5 MSTORE SWAP2 DUP4 ADD SWAP2 SWAP1 SWAP2 MSTORE DUP2 SWAP1 DUP2 ADD PUSH2 0x3C6 JUMP JUMPDEST PUSH1 0x24 DUP4 PUSH32 0x4E487B7100000000000000000000000000000000000000000000000000000000 DUP2 MSTORE PUSH1 0x41 PUSH1 0x4 MSTORE REVERT JUMPDEST PUSH1 0x4 PUSH1 0x40 MLOAD PUSH32 0x588FA2CC00000000000000000000000000000000000000000000000000000000 DUP2 MSTORE REVERT JUMPDEST POP CALLVALUE PUSH2 0x1A4 JUMPI DUP1 PUSH32 0xFFFFFFFFFFFFFFFFFFFFFFFFFFFFFFFFFFFFFFFFFFFFFFFFFFFFFFFFFFFFFFFC CALLDATASIZE ADD SLT PUSH2 0x1A4 JUMPI PUSH1 0x40 MLOAD SWAP1 DUP1 PUSH1 0x8 SLOAD SWAP2 PUSH1 0x1 DUP4 DUP2 SHR SWAP3 DUP2 DUP6 AND SWAP5 DUP6 ISZERO PUSH2 0x1691 JUMPI JUMPDEST PUSH1 0x20 SWAP6 DUP7 DUP7 LT DUP2 EQ PUSH2 0x1664 JUMPI DUP6 DUP9 MSTORE DUP8 SWAP5 SWAP4 SWAP3 SWAP2 DUP8 SWAP1 DUP3 ISZERO PUSH2 0x1623 JUMPI POP POP PUSH1 0x1 EQ PUSH2 0x15C9 JUMPI JUMPDEST POP POP PUSH2 0x15B5 SWAP3 POP SUB DUP4 PUSH2 0x26ED JUMP JUMPDEST PUSH2 0xC57 PUSH1 0x40 MLOAD SWAP3 DUP3 DUP5 SWAP4 DUP5 MSTORE DUP4 ADD SWAP1 PUSH2 0x275D JUMP JUMPDEST SWAP1 DUP6 SWAP3 POP PUSH1 0x8 DUP3 MSTORE PUSH32 0xF3F7A9FE364FAAB93B216DA50A3214154F22A0A2B415B23A84C8169E8B636EE3 JUMPDEST DUP6 DUP4 LT PUSH2 0x160B JUMPI POP POP PUSH2 0x15B5 SWAP4 POP DUP3 ADD ADD CODESIZE DUP1 PUSH2 0x15A7 JUMP JUMPDEST DUP1 SLOAD DUP4 DUP10 ADD DUP6 ADD MSTORE DUP8 SWAP5 POP DUP7 SWAP4 SWAP1 SWAP3 ADD SWAP2 DUP2 ADD PUSH2 0x15F3 JUMP JUMPDEST SWAP2 POP SWAP4 POP PUSH2 0x15B5 SWAP6 SWAP3 POP PUSH32 0xFFFFFFFFFFFFFFFFFFFFFFFFFFFFFFFFFFFFFFFFFFFFFFFFFFFFFFFFFFFFFF00 SWAP2 POP AND DUP3 DUP5 ADD MSTORE ISZERO ISZERO PUSH1 0x5 SHL DUP3 ADD ADD CODESIZE DUP1 PUSH2 0x15A7 JUMP JUMPDEST PUSH1 0x24 DUP4 PUSH32 0x4E487B7100000000000000000000000000000000000000000000000000000000 DUP2 MSTORE PUSH1 0x22 PUSH1 0x4 MSTORE REVERT JUMPDEST SWAP4 PUSH1 0x7F AND SWAP4 PUSH2 0x1581 JUMP JUMPDEST SWAP1 POP CALLVALUE PUSH2 0xE26 JUMPI PUSH1 0x40 PUSH32 0xFFFFFFFFFFFFFFFFFFFFFFFFFFFFFFFFFFFFFFFFFFFFFFFFFFFFFFFFFFFFFFFC CALLDATASIZE ADD SLT PUSH2 0xE26 JUMPI PUSH8 0xFFFFFFFFFFFFFFFF DUP1 PUSH1 0x4 CALLDATALOAD GT PUSH2 0xAF5 JUMPI CALLDATASIZE PUSH1 0x23 PUSH1 0x4 CALLDATALOAD ADD SLT ISZERO PUSH2 0xAF5 JUMPI PUSH1 0x4 CALLDATALOAD PUSH1 0x4 ADD CALLDATALOAD GT PUSH2 0xE26 JUMPI CALLDATASIZE PUSH1 0x24 PUSH1 0x4 CALLDATALOAD PUSH1 0x4 ADD CALLDATALOAD PUSH1 0x5 SHL PUSH1 0x4 CALLDATALOAD ADD ADD GT PUSH2 0xE26 JUMPI PUSH1 0x24 CALLDATALOAD SWAP1 PUSH20 0xFFFFFFFFFFFFFFFFFFFFFFFFFFFFFFFFFFFFFFFF DUP3 AND DUP1 SWAP3 SUB PUSH2 0xAF5 JUMPI DUP3 SLOAD SWAP1 PUSH1 0xFF DUP3 AND ISZERO PUSH2 0x26A4 JUMPI POP PUSH32 0xFFFFFFFFFFFFFFFFFFFFFFFFFFFFFFFFFFFFFFFFFFFFFFFFFFFFFFFFFFFFFF00 AND DUP3 SSTORE DUP2 SWAP1 DUP3 MSTORE PUSH1 0x1 PUSH1 0x20 MSTORE PUSH1 0x40 DUP3 KECCAK256 SWAP1 PUSH20 0xFFFFFFFFFFFFFFFFFFFFFFFFFFFFFFFFFFFFFFFF PUSH1 0x1 DUP4 ADD SLOAD AND ISZERO PUSH2 0x267A JUMPI DUP3 SWAP1 DUP2 PUSH20 0xFFFFFFFFFFFFFFFFFFFFFFFFFFFFFFFFFFFFFFFF DUP5 SLOAD AND PUSH1 0x4 PUSH1 0x40 MLOAD DUP1 SWAP6 DUP2 SWAP4 PUSH32 0x572B0CC00000000000000000000000000000000000000000000000000000000 DUP4 MSTORE GAS CALL DUP1 ISZERO PUSH2 0x266F JUMPI DUP5 SWAP3 DUP6 SWAP2 PUSH2 0x264F JUMPI JUMPDEST POP DUP5 JUMPDEST DUP4 MLOAD DUP2 LT ISZERO PUSH2 0x19DC JUMPI DUP4 PUSH2 0x17FE DUP3 DUP5 PUSH2 0x292C JUMP JUMPDEST MLOAD ISZERO ISZERO DUP1 PUSH2 0x19A5 JUMPI JUMPDEST PUSH2 0x1815 JUMPI JUMPDEST POP PUSH1 0x1 ADD PUSH2 0x17EA JUMP JUMPDEST DUP2 SWAP4 PUSH2 0x1869 PUSH20 0xFFFFFFFFFFFFFFFFFFFFFFFFFFFFFFFFFFFFFFFF PUSH2 0x183B PUSH1 0x1 SWAP6 DUP6 PUSH2 0x292C JUMP JUMPDEST MLOAD AND PUSH20 0xFFFFFFFFFFFFFFFFFFFFFFFFFFFFFFFFFFFFFFFF DUP10 SLOAD AND SWAP1 PUSH2 0x1860 DUP9 DUP9 PUSH2 0x292C JUMP JUMPDEST MLOAD SWAP2 ADDRESS SWAP2 PUSH2 0x320C JUMP JUMPDEST PUSH2 0x18B2 PUSH20 0xFFFFFFFFFFFFFFFFFFFFFFFFFFFFFFFFFFFFFFFF PUSH2 0x188B DUP8 DUP6 PUSH2 0x292C JUMP JUMPDEST MLOAD AND PUSH2 0x18A4 PUSH2 0x189A DUP9 DUP9 PUSH2 0x292C JUMP JUMPDEST MLOAD PUSH1 0x5 SLOAD SWAP1 PUSH2 0x3180 JUMP JUMPDEST DUP1 PUSH2 0x1974 JUMPI JUMPDEST POP ADDRESS SWAP1 PUSH2 0x32AE JUMP JUMPDEST PUSH20 0xFFFFFFFFFFFFFFFFFFFFFFFFFFFFFFFFFFFFFFFF PUSH2 0x18D1 DUP8 DUP6 PUSH2 0x292C JUMP JUMPDEST MLOAD PUSH1 0x2 DUP11 ADD SLOAD PUSH20 0xFFFFFFFFFFFFFFFFFFFFFFFFFFFFFFFFFFFFFFFF AND SWAP3 SWAP2 AND DUP3 EQ PUSH2 0x1956 JUMPI SWAP3 PUSH2 0x1946 SWAP2 PUSH2 0x194C SWAP5 DUP11 DUP10 PUSH20 0xFFFFFFFFFFFFFFFFFFFFFFFFFFFFFFFFFFFFFFFF PUSH1 0x3 DUP2 PUSH2 0x193A PUSH2 0x1932 DUP6 PUSH1 0x4 CALLDATALOAD PUSH1 0x4 ADD CALLDATALOAD PUSH1 0x24 PUSH1 0x4 CALLDATALOAD ADD PUSH2 0x297C JUMP JUMPDEST SWAP6 SWAP1 SWAP10 PUSH2 0x292C JUMP JUMPDEST MLOAD AND SWAP4 ADD SLOAD AND SWAP5 PUSH2 0x2C90 JUMP JUMPDEST SWAP1 PUSH2 0x2940 JUMP JUMPDEST SWAP3 JUMPDEST SWAP1 POP DUP4 PUSH2 0x180C JUMP JUMPDEST POP POP PUSH2 0x196E SWAP2 POP PUSH2 0x1967 DUP6 DUP6 PUSH2 0x292C JUMP JUMPDEST MLOAD SWAP1 PUSH2 0x2940 JUMP JUMPDEST SWAP3 PUSH2 0x194E JUMP JUMPDEST PUSH2 0x199F SWAP1 PUSH32 0x0 DUP4 PUSH2 0x3265 JUMP JUMPDEST CODESIZE PUSH2 0x18AA JUMP JUMPDEST POP PUSH2 0x19C5 DUP3 PUSH20 0xFFFFFFFFFFFFFFFFFFFFFFFFFFFFFFFFFFFFFFFF SWAP3 PUSH2 0x292C JUMP JUMPDEST MLOAD AND DUP7 MSTORE PUSH1 0x3 PUSH1 0x20 MSTORE DUP4 PUSH1 0xFF PUSH1 0x40 DUP9 KECCAK256 SLOAD AND PUSH2 0x1807 JUMP JUMPDEST DUP6 DUP4 DUP7 PUSH20 0xFFFFFFFFFFFFFFFFFFFFFFFFFFFFFFFFFFFFFFFF PUSH1 0x1 DUP3 ADD SLOAD AND PUSH1 0x40 MLOAD SWAP1 PUSH32 0xDFE168100000000000000000000000000000000000000000000000000000000 DUP3 MSTORE PUSH1 0x20 DUP3 PUSH1 0x4 DUP2 DUP5 GAS STATICCALL SWAP2 DUP3 ISZERO PUSH2 0xE1B JUMPI DUP6 SWAP3 PUSH2 0x2613 JUMPI JUMPDEST POP PUSH1 0x40 MLOAD SWAP4 PUSH32 0xD21220A700000000000000000000000000000000000000000000000000000000 DUP6 MSTORE PUSH1 0x20 DUP6 PUSH1 0x4 DUP2 DUP6 GAS STATICCALL SWAP5 DUP6 ISZERO PUSH2 0x2608 JUMPI DUP7 SWAP6 PUSH2 0x25C8 JUMPI JUMPDEST POP PUSH1 0x40 MLOAD SWAP2 PUSH32 0x86A2908100000000000000000000000000000000000000000000000000000000 DUP4 MSTORE PUSH1 0x20 DUP4 PUSH1 0x4 DUP2 DUP5 GAS STATICCALL SWAP3 DUP4 ISZERO PUSH2 0x25BD JUMPI DUP8 SWAP4 PUSH2 0x2581 JUMPI JUMPDEST POP PUSH20 0xFFFFFFFFFFFFFFFFFFFFFFFFFFFFFFFFFFFFFFFF PUSH1 0x2 DUP7 ADD SLOAD AND SWAP1 PUSH20 0xFFFFFFFFFFFFFFFFFFFFFFFFFFFFFFFFFFFFFFFF PUSH1 0x3 DUP8 ADD SLOAD AND SWAP4 PUSH1 0x40 MLOAD PUSH32 0x313CE56700000000000000000000000000000000000000000000000000000000 DUP2 MSTORE PUSH1 0x20 DUP2 PUSH1 0x4 DUP2 PUSH20 0xFFFFFFFFFFFFFFFFFFFFFFFFFFFFFFFFFFFFFFFF DUP12 AND GAS STATICCALL DUP1 ISZERO PUSH2 0x2576 JUMPI DUP11 SWAP1 PUSH2 0x2537 JUMPI JUMPDEST PUSH2 0x1B4B SWAP2 POP PUSH2 0x29F7 JUMP JUMPDEST PUSH1 0x40 MLOAD PUSH32 0x313CE56700000000000000000000000000000000000000000000000000000000 DUP2 MSTORE PUSH1 0x20 DUP2 PUSH1 0x4 DUP2 PUSH20 0xFFFFFFFFFFFFFFFFFFFFFFFFFFFFFFFFFFFFFFFF DUP15 AND GAS STATICCALL DUP1 ISZERO PUSH2 0x252C JUMPI DUP12 SWAP1 PUSH2 0x24ED JUMPI JUMPDEST PUSH2 0x1BA7 SWAP2 POP PUSH2 0x29F7 JUMP JUMPDEST SWAP2 PUSH2 0x1BB2 DUP4 DUP4 PUSH2 0x31C9 JUMP JUMPDEST PUSH5 0xE8D4A51000 DUP2 GT ISZERO PUSH2 0x24E7 JUMPI PUSH3 0xF4240 SWAP1 JUMPDEST DUP13 PUSH1 0x40 MLOAD PUSH32 0x16F0115B00000000000000000000000000000000000000000000000000000000 DUP2 MSTORE PUSH1 0x20 DUP2 PUSH1 0x4 DUP2 DUP12 GAS STATICCALL SWAP1 DUP2 ISZERO PUSH2 0x448 JUMPI DUP3 SWAP2 PUSH2 0x2495 JUMPI JUMPDEST POP PUSH1 0xE0 PUSH20 0xFFFFFFFFFFFFFFFFFFFFFFFFFFFFFFFFFFFFFFFF SWAP2 PUSH1 0x4 PUSH1 0x40 MLOAD DUP1 SWAP5 DUP2 SWAP4 PUSH32 0xE76C01E400000000000000000000000000000000000000000000000000000000 DUP4 MSTORE AND GAS STATICCALL SWAP2 DUP3 ISZERO PUSH2 0x2489 JUMPI SWAP2 PUSH2 0x23C2 JUMPI JUMPDEST POP PUSH32 0xFFFFFFFFFFFFFFFFFFFFFFFFFFFFFFFFFFFFFFFFFFFFFFFFFFFFFFFFFFFFFFFF PUSH1 0x2 PUSH20 0xFFFFFFFFFFFFFFFFFFFFFFFFFFFFFFFFFFFFFFFF PUSH2 0x1C9B SWAP4 AND PUSH2 0x2A17 JUMP JUMPDEST SWAP1 DUP3 ISZERO PUSH2 0x2395 JUMPI SWAP3 DUP11 PUSH20 0xFFFFFFFFFFFFFFFFFFFFFFFFFFFFFFFFFFFFFFFF DUP16 SWAP7 SWAP4 DUP6 PUSH2 0x1CD4 PUSH2 0x1CDC SWAP3 PUSH1 0x40 SWAP9 PUSH2 0x1D3D SWAP14 SWAP13 SWAP11 DIV SWAP1 PUSH2 0x2ACF JUMP JUMPDEST PUSH1 0xC0 SHR PUSH2 0x2ACF JUMP JUMPDEST SWAP8 DUP6 MLOAD SWAP10 DUP11 SWAP6 DUP7 SWAP5 DUP6 SWAP4 PUSH32 0x5CCFB71D00000000000000000000000000000000000000000000000000000000 DUP6 MSTORE PUSH1 0x4 DUP6 ADD PUSH1 0x40 SWAP2 SWAP5 SWAP4 SWAP3 SWAP5 PUSH1 0x60 DUP3 ADD SWAP6 PUSH20 0xFFFFFFFFFFFFFFFFFFFFFFFFFFFFFFFFFFFFFFFF DUP1 SWAP3 AND DUP4 MSTORE AND PUSH1 0x20 DUP3 ADD MSTORE ADD MSTORE JUMP JUMPDEST SUB SWAP3 AND GAS STATICCALL SWAP4 DUP5 ISZERO PUSH2 0x448 JUMPI PUSH2 0x1D70 SWAP5 DUP4 PUSH2 0x1D63 SWAP3 PUSH2 0x1D6B SWAP6 SWAP2 SWAP3 PUSH2 0x2373 JUMPI JUMPDEST POP PUSH2 0x2940 JUMP JUMPDEST PUSH1 0x1 SHR PUSH2 0x31C9 JUMP JUMPDEST PUSH2 0x31C9 JUMP JUMPDEST SWAP2 PUSH8 0xDE0B6B3A7640000 SWAP3 DUP4 DUP2 ADD DUP1 SWAP2 GT PUSH2 0x2319 JUMPI DUP1 ISZERO PUSH2 0x2346 JUMPI PUSH15 0xC097CE7BC90715B34B9F1000000000 DIV DUP1 DUP5 SUB SWAP4 DUP5 GT PUSH2 0x2319 JUMPI SWAP1 PUSH2 0x1DB4 DUP2 PUSH2 0x1DBA SWAP4 PUSH2 0x3180 JUMP JUMPDEST SWAP4 PUSH2 0x3180 JUMP JUMPDEST SWAP2 PUSH20 0xFFFFFFFFFFFFFFFFFFFFFFFFFFFFFFFFFFFFFFFF DUP6 AND DUP3 SUB PUSH2 0x227C JUMPI POP PUSH1 0x4 DUP1 CALLDATALOAD ADD CALLDATALOAD PUSH32 0xFFFFFFFFFFFFFFFFFFFFFFFFFFFFFFFFFFFFFFFFFFFFFFFFFFFFFFFFFFFFFFFF DUP2 ADD GT PUSH2 0x10E7 JUMPI PUSH2 0x1E4B SWAP3 SWAP2 DUP7 SWAP2 PUSH2 0x1E45 PUSH1 0x4 DUP1 CALLDATALOAD SWAP1 DUP2 ADD CALLDATALOAD PUSH32 0xFFFFFFFFFFFFFFFFFFFFFFFFFFFFFFFFFFFFFFFFFFFFFFFFFFFFFFFFFFFFFFFF DUP2 ADD SWAP2 PUSH1 0x24 ADD PUSH2 0x297C JUMP JUMPDEST SWAP1 PUSH2 0x2C90 JUMP JUMPDEST POP JUMPDEST PUSH20 0xFFFFFFFFFFFFFFFFFFFFFFFFFFFFFFFFFFFFFFFF PUSH1 0x1 DUP4 ADD SLOAD AND SWAP3 PUSH20 0xFFFFFFFFFFFFFFFFFFFFFFFFFFFFFFFFFFFFFFFF DUP4 SLOAD AND SWAP4 PUSH2 0x1E8C ADDRESS DUP5 PUSH2 0x32AE JUMP JUMPDEST SWAP5 PUSH2 0x1E97 ADDRESS DUP5 PUSH2 0x32AE JUMP JUMPDEST SWAP3 PUSH2 0x1EA3 DUP8 DUP5 DUP8 PUSH2 0x2AF8 JUMP JUMPDEST PUSH2 0x1EAE DUP5 DUP5 DUP4 PUSH2 0x2AF8 JUMP JUMPDEST PUSH1 0x40 MLOAD PUSH32 0x86A2908100000000000000000000000000000000000000000000000000000000 DUP2 MSTORE PUSH1 0x20 DUP2 PUSH1 0x4 DUP2 DUP8 GAS STATICCALL SWAP6 DUP7 ISZERO PUSH2 0x2208 JUMPI DUP9 SWAP2 DUP11 SWAP8 PUSH2 0x2237 JUMPI JUMPDEST POP PUSH1 0x40 DUP1 MLOAD PUSH32 0x5CCFB71D00000000000000000000000000000000000000000000000000000000 DUP2 MSTORE PUSH20 0xFFFFFFFFFFFFFFFFFFFFFFFFFFFFFFFFFFFFFFFF DUP1 DUP9 AND PUSH1 0x4 DUP4 ADD MSTORE SWAP1 SWAP3 AND PUSH1 0x24 DUP4 ADD MSTORE PUSH1 0x44 DUP3 ADD SWAP3 SWAP1 SWAP3 MSTORE SWAP1 DUP2 DUP1 PUSH1 0x64 DUP2 ADD JUMPDEST SUB DUP2 PUSH20 0xFFFFFFFFFFFFFFFFFFFFFFFFFFFFFFFFFFFFFFFF DUP11 AND GAS STATICCALL SWAP2 DUP3 ISZERO PUSH2 0x2208 JUMPI DUP6 SWAP2 DUP11 SWAP1 DUP12 SWAP5 PUSH2 0x2213 JUMPI JUMPDEST POP DUP3 LT PUSH2 0x2151 JUMPI JUMPDEST POP DUP2 LT PUSH2 0x2149 JUMPI JUMPDEST POP DUP7 SWAP5 SWAP4 SWAP2 PUSH1 0x40 SWAP7 SWAP4 SWAP7 MLOAD SWAP2 PUSH2 0x1F9E PUSH1 0x80 DUP5 PUSH2 0x26ED JUMP JUMPDEST DUP7 DUP4 MSTORE DUP7 PUSH1 0x20 DUP5 ADD MSTORE DUP7 PUSH1 0x40 DUP5 ADD MSTORE DUP7 PUSH1 0x60 DUP5 ADD MSTORE PUSH1 0x40 MLOAD SWAP8 DUP9 SWAP6 PUSH32 0x8E3C92E400000000000000000000000000000000000000000000000000000000 DUP8 MSTORE PUSH1 0x4 DUP8 ADD MSTORE PUSH1 0x24 DUP7 ADD MSTORE PUSH1 0x44 DUP6 ADD MSTORE PUSH1 0x64 DUP5 ADD MSTORE PUSH1 0x84 DUP4 ADD DUP6 SWAP1 JUMPDEST PUSH1 0x4 DUP3 LT PUSH2 0x212D JUMPI POP POP POP SWAP1 PUSH2 0x104 DUP2 DUP6 PUSH20 0xFFFFFFFFFFFFFFFFFFFFFFFFFFFFFFFFFFFFFFFF PUSH1 0x20 SWAP6 AND GAS CALL SWAP3 DUP4 ISZERO PUSH2 0x448 JUMPI DUP3 SWAP4 PUSH2 0x20E5 JUMPI JUMPDEST POP SLOAD PUSH20 0xFFFFFFFFFFFFFFFFFFFFFFFFFFFFFFFFFFFFFFFF AND DUP1 EXTCODESIZE ISZERO PUSH2 0xE26 JUMPI DUP2 SWAP1 PUSH1 0x24 PUSH1 0x40 MLOAD DUP1 SWAP7 DUP2 SWAP4 PUSH32 0x81F5B6F400000000000000000000000000000000000000000000000000000000 DUP4 MSTORE DUP8 PUSH1 0x4 DUP5 ADD MSTORE GAS CALL SWAP3 DUP4 ISZERO PUSH2 0x20D8 JUMPI DUP2 PUSH1 0x20 SWAP5 PUSH2 0x20C8 JUMPI JUMPDEST SLOAD PUSH32 0xFFFFFFFFFFFFFFFFFFFFFFFFFFFFFFFFFFFFFFFFFFFFFFFFFFFFFFFFFFFFFF00 AND PUSH1 0x1 OR SWAP1 SWAP2 SSTORE POP PUSH1 0x40 MLOAD SWAP1 DUP2 MSTORE RETURN JUMPDEST PUSH2 0x20D1 SWAP2 PUSH2 0x26ED JUMP JUMPDEST DUP4 DUP2 PUSH2 0x2096 JUMP JUMPDEST POP PUSH1 0x40 MLOAD SWAP1 RETURNDATASIZE SWAP1 DUP3 RETURNDATACOPY RETURNDATASIZE SWAP1 REVERT JUMPDEST SWAP1 SWAP3 POP PUSH1 0x20 DUP2 RETURNDATASIZE PUSH1 0x20 GT PUSH2 0x2125 JUMPI JUMPDEST DUP2 PUSH2 0x2101 PUSH1 0x20 SWAP4 DUP4 PUSH2 0x26ED JUMP JUMPDEST DUP2 ADD SUB SLT PUSH2 0xE26 JUMPI MLOAD SWAP2 PUSH20 0xFFFFFFFFFFFFFFFFFFFFFFFFFFFFFFFFFFFFFFFF PUSH2 0x2031 JUMP JUMPDEST RETURNDATASIZE SWAP2 POP PUSH2 0x20F4 JUMP JUMPDEST DUP3 MLOAD DUP2 MSTORE DUP9 SWAP7 POP DUP8 SWAP5 POP PUSH1 0x20 SWAP3 DUP4 ADD SWAP3 PUSH1 0x1 SWAP1 SWAP3 ADD SWAP2 ADD PUSH2 0x1FF7 JUMP JUMPDEST SWAP3 POP DUP8 PUSH2 0x1F87 JUMP JUMPDEST PUSH1 0x40 DUP1 MLOAD PUSH32 0x5CCFB71D00000000000000000000000000000000000000000000000000000000 DUP2 MSTORE PUSH20 0xFFFFFFFFFFFFFFFFFFFFFFFFFFFFFFFFFFFFFFFF DUP8 DUP2 AND PUSH1 0x4 DUP4 ADD MSTORE SWAP3 DUP4 AND PUSH1 0x24 DUP3 ADD MSTORE PUSH1 0x44 DUP2 ADD SWAP4 SWAP1 SWAP4 MSTORE SWAP1 DUP3 SWAP1 PUSH1 0x64 SWAP1 DUP3 SWAP1 DUP11 AND GAS STATICCALL SWAP1 DUP2 ISZERO PUSH2 0x2208 JUMPI DUP10 SWAP2 PUSH2 0x21D7 JUMPI JUMPDEST POP DUP1 DUP9 GT PUSH2 0x21CF JUMPI JUMPDEST DUP5 SWAP1 PUSH2 0x1F7F JUMP JUMPDEST SWAP7 POP DUP9 PUSH2 0x21C8 JUMP JUMPDEST PUSH2 0x21F9 SWAP2 POP PUSH1 0x40 RETURNDATASIZE PUSH1 0x40 GT PUSH2 0x2201 JUMPI JUMPDEST PUSH2 0x21F1 DUP2 DUP4 PUSH2 0x26ED JUMP JUMPDEST DUP2 ADD SWAP1 PUSH2 0x2AE2 JUMP JUMPDEST SWAP1 POP DUP10 PUSH2 0x21BF JUMP JUMPDEST POP RETURNDATASIZE PUSH2 0x21E7 JUMP JUMPDEST PUSH1 0x40 MLOAD RETURNDATASIZE DUP12 DUP3 RETURNDATACOPY RETURNDATASIZE SWAP1 REVERT JUMPDEST SWAP1 POP PUSH2 0x222F SWAP2 SWAP4 POP PUSH1 0x40 RETURNDATASIZE PUSH1 0x40 GT PUSH2 0x2201 JUMPI PUSH2 0x21F1 DUP2 DUP4 PUSH2 0x26ED JUMP JUMPDEST SWAP3 SWAP1 DUP12 PUSH2 0x1F77 JUMP JUMPDEST SWAP2 POP SWAP6 POP PUSH1 0x20 DUP2 RETURNDATASIZE PUSH1 0x20 GT PUSH2 0x2274 JUMPI JUMPDEST DUP2 PUSH2 0x2254 PUSH1 0x20 SWAP4 DUP4 PUSH2 0x26ED JUMP JUMPDEST DUP2 ADD SUB SLT PUSH2 0x1342 JUMPI PUSH1 0x40 DUP9 PUSH2 0x226B PUSH2 0x1F4A SWAP4 PUSH2 0x281A JUMP JUMPDEST SWAP8 SWAP2 POP SWAP2 PUSH2 0x1EED JUMP JUMPDEST RETURNDATASIZE SWAP2 POP PUSH2 0x2247 JUMP JUMPDEST SWAP2 POP PUSH20 0xFFFFFFFFFFFFFFFFFFFFFFFFFFFFFFFFFFFFFFFF DUP7 AND DUP2 EQ PUSH2 0x22A4 JUMPI JUMPDEST POP POP POP PUSH2 0x1E4D JUMP JUMPDEST PUSH1 0x4 DUP1 CALLDATALOAD ADD CALLDATALOAD PUSH32 0xFFFFFFFFFFFFFFFFFFFFFFFFFFFFFFFFFFFFFFFFFFFFFFFFFFFFFFFFFFFFFFFF DUP2 ADD GT PUSH2 0x10E7 JUMPI PUSH2 0x2310 SWAP3 SWAP2 DUP5 SWAP2 PUSH2 0x1E45 PUSH1 0x4 DUP1 CALLDATALOAD SWAP1 DUP2 ADD CALLDATALOAD PUSH32 0xFFFFFFFFFFFFFFFFFFFFFFFFFFFFFFFFFFFFFFFFFFFFFFFFFFFFFFFFFFFFFFFF DUP2 ADD SWAP2 PUSH1 0x24 ADD PUSH2 0x297C JUMP JUMPDEST POP DUP5 DUP1 DUP1 PUSH2 0x229C JUMP JUMPDEST PUSH1 0x24 DUP10 PUSH32 0x4E487B7100000000000000000000000000000000000000000000000000000000 DUP2 MSTORE PUSH1 0x11 PUSH1 0x4 MSTORE REVERT JUMPDEST PUSH1 0x24 DUP10 PUSH32 0x4E487B7100000000000000000000000000000000000000000000000000000000 DUP2 MSTORE PUSH1 0x12 PUSH1 0x4 MSTORE REVERT JUMPDEST SWAP1 POP PUSH2 0x238E SWAP2 POP PUSH1 0x40 RETURNDATASIZE PUSH1 0x40 GT PUSH2 0x2201 JUMPI PUSH2 0x21F1 DUP2 DUP4 PUSH2 0x26ED JUMP JUMPDEST SWAP1 DUP15 PUSH2 0x1D5D JUMP JUMPDEST PUSH1 0x24 DUP15 PUSH32 0x4E487B7100000000000000000000000000000000000000000000000000000000 DUP2 MSTORE PUSH1 0x12 PUSH1 0x4 MSTORE REVERT JUMPDEST SWAP1 POP PUSH1 0xE0 DUP2 RETURNDATASIZE DUP3 GT PUSH2 0x2481 JUMPI JUMPDEST DUP2 PUSH2 0x23DC PUSH1 0xE0 SWAP4 DUP4 PUSH2 0x26ED JUMP JUMPDEST DUP2 ADD SUB SLT PUSH2 0x2479 JUMPI DUP1 MLOAD SWAP1 PUSH20 0xFFFFFFFFFFFFFFFFFFFFFFFFFFFFFFFFFFFFFFFF DUP3 AND DUP3 SUB PUSH2 0x247D JUMPI PUSH1 0x20 DUP2 ADD MLOAD DUP1 PUSH1 0x2 SIGNEXTEND SUB PUSH2 0x247D JUMPI DUP1 PUSH2 0x2421 PUSH1 0x40 PUSH1 0xC0 SWAP4 ADD PUSH2 0x2A08 JUMP JUMPDEST POP PUSH2 0x242E PUSH1 0x60 DUP3 ADD PUSH2 0x2A08 JUMP JUMPDEST POP PUSH2 0x243B PUSH1 0x80 DUP3 ADD PUSH2 0x29E9 JUMP JUMPDEST POP PUSH2 0x2448 PUSH1 0xA0 DUP3 ADD PUSH2 0x29E9 JUMP JUMPDEST POP ADD MLOAD DUP1 ISZERO ISZERO SUB PUSH2 0x2479 JUMPI PUSH32 0xFFFFFFFFFFFFFFFFFFFFFFFFFFFFFFFFFFFFFFFFFFFFFFFFFFFFFFFFFFFFFFFF PUSH2 0x1C58 JUMP JUMPDEST DUP14 DUP1 REVERT JUMPDEST DUP15 DUP1 REVERT JUMPDEST RETURNDATASIZE SWAP2 POP PUSH2 0x23CF JUMP JUMPDEST PUSH1 0x40 MLOAD SWAP1 RETURNDATASIZE SWAP1 DUP3 RETURNDATACOPY RETURNDATASIZE SWAP1 REVERT JUMPDEST SWAP1 POP PUSH1 0x20 DUP2 RETURNDATASIZE PUSH1 0x20 GT PUSH2 0x24DF JUMPI JUMPDEST DUP2 PUSH2 0x24B0 PUSH1 0x20 SWAP4 DUP4 PUSH2 0x26ED JUMP JUMPDEST DUP2 ADD SUB SLT PUSH2 0xE26 JUMPI PUSH1 0xE0 PUSH2 0x24D8 PUSH20 0xFFFFFFFFFFFFFFFFFFFFFFFFFFFFFFFFFFFFFFFF SWAP3 PUSH2 0x281A JUMP JUMPDEST SWAP2 POP PUSH2 0x1C03 JUMP JUMPDEST RETURNDATASIZE SWAP2 POP PUSH2 0x24A3 JUMP JUMPDEST DUP1 PUSH2 0x1BC5 JUMP JUMPDEST POP PUSH1 0x20 DUP2 RETURNDATASIZE PUSH1 0x20 GT PUSH2 0x2524 JUMPI JUMPDEST DUP2 PUSH2 0x2507 PUSH1 0x20 SWAP4 DUP4 PUSH2 0x26ED JUMP JUMPDEST DUP2 ADD SUB SLT PUSH2 0x2520 JUMPI PUSH2 0x251B PUSH2 0x1BA7 SWAP2 PUSH2 0x29E9 JUMP JUMPDEST PUSH2 0x1B9D JUMP JUMPDEST DUP11 DUP1 REVERT JUMPDEST RETURNDATASIZE SWAP2 POP PUSH2 0x24FA JUMP JUMPDEST PUSH1 0x40 MLOAD RETURNDATASIZE DUP14 DUP3 RETURNDATACOPY RETURNDATASIZE SWAP1 REVERT JUMPDEST POP PUSH1 0x20 DUP2 RETURNDATASIZE PUSH1 0x20 GT PUSH2 0x256E JUMPI JUMPDEST DUP2 PUSH2 0x2551 PUSH1 0x20 SWAP4 DUP4 PUSH2 0x26ED JUMP JUMPDEST DUP2 ADD SUB SLT PUSH2 0x256A JUMPI PUSH2 0x2565 PUSH2 0x1B4B SWAP2 PUSH2 0x29E9 JUMP JUMPDEST PUSH2 0x1B41 JUMP JUMPDEST DUP10 DUP1 REVERT JUMPDEST RETURNDATASIZE SWAP2 POP PUSH2 0x2544 JUMP JUMPDEST PUSH1 0x40 MLOAD RETURNDATASIZE DUP13 DUP3 RETURNDATACOPY RETURNDATASIZE SWAP1 REVERT JUMPDEST SWAP1 SWAP3 POP PUSH1 0x20 DUP2 RETURNDATASIZE PUSH1 0x20 GT PUSH2 0x25B5 JUMPI JUMPDEST DUP2 PUSH2 0x259D PUSH1 0x20 SWAP4 DUP4 PUSH2 0x26ED JUMP JUMPDEST DUP2 ADD SUB SLT PUSH2 0x43D JUMPI PUSH2 0x25AE SWAP1 PUSH2 0x281A JUMP JUMPDEST SWAP2 DUP8 PUSH2 0x1AB6 JUMP JUMPDEST RETURNDATASIZE SWAP2 POP PUSH2 0x2590 JUMP JUMPDEST PUSH1 0x40 MLOAD RETURNDATASIZE DUP10 DUP3 RETURNDATACOPY RETURNDATASIZE SWAP1 REVERT JUMPDEST SWAP1 SWAP5 POP PUSH1 0x20 DUP2 RETURNDATASIZE PUSH1 0x20 GT PUSH2 0x2600 JUMPI JUMPDEST DUP2 PUSH2 0x25E4 PUSH1 0x20 SWAP4 DUP4 PUSH2 0x26ED JUMP JUMPDEST DUP2 ADD SUB SLT PUSH2 0x25FC JUMPI PUSH2 0x25F5 SWAP1 PUSH2 0x281A JUMP JUMPDEST SWAP4 DUP7 PUSH2 0x1A77 JUMP JUMPDEST DUP6 DUP1 REVERT JUMPDEST RETURNDATASIZE SWAP2 POP PUSH2 0x25D7 JUMP JUMPDEST PUSH1 0x40 MLOAD RETURNDATASIZE DUP9 DUP3 RETURNDATACOPY RETURNDATASIZE SWAP1 REVERT JUMPDEST SWAP1 SWAP2 POP PUSH1 0x20 DUP2 RETURNDATASIZE PUSH1 0x20 GT PUSH2 0x2647 JUMPI JUMPDEST DUP2 PUSH2 0x262F PUSH1 0x20 SWAP4 DUP4 PUSH2 0x26ED JUMP JUMPDEST DUP2 ADD SUB SLT PUSH2 0xAF1 JUMPI PUSH2 0x2640 SWAP1 PUSH2 0x281A JUMP JUMPDEST SWAP1 DUP6 PUSH2 0x1A38 JUMP JUMPDEST RETURNDATASIZE SWAP2 POP PUSH2 0x2622 JUMP JUMPDEST SWAP1 POP PUSH2 0x2666 SWAP2 SWAP3 POP RETURNDATASIZE DUP1 DUP7 DUP4 RETURNDATACOPY PUSH2 0xE0B DUP2 DUP4 PUSH2 0x26ED JUMP JUMPDEST SWAP2 SWAP1 SWAP2 CODESIZE PUSH2 0x17E7 JUMP JUMPDEST PUSH1 0x40 MLOAD RETURNDATASIZE DUP7 DUP3 RETURNDATACOPY RETURNDATASIZE SWAP1 REVERT JUMPDEST PUSH1 0x4 PUSH1 0x40 MLOAD PUSH32 0xFADA4A4700000000000000000000000000000000000000000000000000000000 DUP2 MSTORE REVERT JUMPDEST DUP1 PUSH32 0x37ED32E800000000000000000000000000000000000000000000000000000000 PUSH1 0x4 SWAP3 MSTORE REVERT JUMPDEST CALLDATALOAD SWAP1 PUSH20 0xFFFFFFFFFFFFFFFFFFFFFFFFFFFFFFFFFFFFFFFF DUP3 AND DUP3 SUB PUSH2 0x453 JUMPI JUMP JUMPDEST SWAP1 PUSH1 0x1F PUSH32 0xFFFFFFFFFFFFFFFFFFFFFFFFFFFFFFFFFFFFFFFFFFFFFFFFFFFFFFFFFFFFFFE0 SWAP2 ADD AND DUP2 ADD SWAP1 DUP2 LT PUSH8 0xFFFFFFFFFFFFFFFF DUP3 GT OR PUSH2 0x272E JUMPI PUSH1 0x40 MSTORE JUMP JUMPDEST PUSH32 0x4E487B7100000000000000000000000000000000000000000000000000000000 PUSH1 0x0 MSTORE PUSH1 0x41 PUSH1 0x4 MSTORE PUSH1 0x24 PUSH1 0x0 REVERT JUMPDEST SWAP2 SWAP1 DUP3 MLOAD SWAP3 DUP4 DUP3 MSTORE PUSH1 0x0 JUMPDEST DUP5 DUP2 LT PUSH2 0x27A7 JUMPI POP POP PUSH32 0xFFFFFFFFFFFFFFFFFFFFFFFFFFFFFFFFFFFFFFFFFFFFFFFFFFFFFFFFFFFFFFE0 PUSH1 0x1F DUP5 PUSH1 0x0 PUSH1 0x20 DUP1 SWAP7 SWAP8 DUP7 ADD ADD MSTORE ADD AND ADD ADD SWAP1 JUMP JUMPDEST PUSH1 0x20 DUP2 DUP4 ADD DUP2 ADD MLOAD DUP5 DUP4 ADD DUP3 ADD MSTORE ADD PUSH2 0x2768 JUMP JUMPDEST DUP1 SLOAD DUP3 LT ISZERO PUSH2 0x27D3 JUMPI PUSH1 0x0 MSTORE PUSH1 0x20 PUSH1 0x0 KECCAK256 ADD SWAP1 PUSH1 0x0 SWAP1 JUMP JUMPDEST PUSH32 0x4E487B7100000000000000000000000000000000000000000000000000000000 PUSH1 0x0 MSTORE PUSH1 0x32 PUSH1 0x4 MSTORE PUSH1 0x24 PUSH1 0x0 REVERT JUMPDEST PUSH8 0xFFFFFFFFFFFFFFFF DUP2 GT PUSH2 0x272E JUMPI PUSH1 0x5 SHL PUSH1 0x20 ADD SWAP1 JUMP JUMPDEST MLOAD SWAP1 PUSH20 0xFFFFFFFFFFFFFFFFFFFFFFFFFFFFFFFFFFFFFFFF DUP3 AND DUP3 SUB PUSH2 0x453 JUMPI JUMP JUMPDEST SWAP2 SWAP1 PUSH1 0x40 DUP4 DUP3 SUB SLT PUSH2 0x453 JUMPI DUP3 MLOAD PUSH8 0xFFFFFFFFFFFFFFFF SWAP1 DUP2 DUP2 GT PUSH2 0x453 JUMPI DUP5 ADD SWAP1 DUP3 PUSH1 0x1F DUP4 ADD SLT ISZERO PUSH2 0x453 JUMPI DUP2 MLOAD SWAP2 PUSH2 0x2874 DUP4 PUSH2 0x2802 JUMP JUMPDEST SWAP1 PUSH2 0x2882 PUSH1 0x40 MLOAD SWAP3 DUP4 PUSH2 0x26ED JUMP JUMPDEST DUP4 DUP3 MSTORE PUSH1 0x20 SWAP4 DUP5 DUP1 DUP5 ADD SWAP2 PUSH1 0x5 SHL DUP4 ADD ADD SWAP2 DUP7 DUP4 GT PUSH2 0x453 JUMPI DUP6 DUP1 SWAP2 ADD SWAP2 JUMPDEST DUP4 DUP4 LT PUSH2 0x2914 JUMPI POP POP POP POP SWAP5 DUP3 DUP2 ADD MLOAD SWAP2 DUP3 GT PUSH2 0x453 JUMPI ADD SWAP2 DUP1 PUSH1 0x1F DUP5 ADD SLT ISZERO PUSH2 0x453 JUMPI DUP3 MLOAD PUSH2 0x28D0 DUP2 PUSH2 0x2802 JUMP JUMPDEST SWAP4 PUSH2 0x28DE PUSH1 0x40 MLOAD SWAP6 DUP7 PUSH2 0x26ED JUMP JUMPDEST DUP2 DUP6 MSTORE DUP4 DUP1 DUP7 ADD SWAP3 PUSH1 0x5 SHL DUP3 ADD ADD SWAP3 DUP4 GT PUSH2 0x453 JUMPI DUP4 ADD SWAP1 JUMPDEST DUP3 DUP3 LT PUSH2 0x2905 JUMPI POP POP POP POP SWAP1 JUMP JUMPDEST DUP2 MLOAD DUP2 MSTORE SWAP1 DUP4 ADD SWAP1 DUP4 ADD PUSH2 0x28F7 JUMP JUMPDEST DUP2 SWAP1 PUSH2 0x291F DUP5 PUSH2 0x281A JUMP JUMPDEST DUP2 MSTORE ADD SWAP2 ADD SWAP1 DUP6 SWAP1 PUSH2 0x28A1 JUMP JUMPDEST DUP1 MLOAD DUP3 LT ISZERO PUSH2 0x27D3 JUMPI PUSH1 0x20 SWAP2 PUSH1 0x5 SHL ADD ADD SWAP1 JUMP JUMPDEST SWAP2 SWAP1 DUP3 ADD DUP1 SWAP3 GT PUSH2 0x294D JUMPI JUMP JUMPDEST PUSH32 0x4E487B7100000000000000000000000000000000000000000000000000000000 PUSH1 0x0 MSTORE PUSH1 0x11 PUSH1 0x4 MSTORE PUSH1 0x24 PUSH1 0x0 REVERT JUMPDEST SWAP2 SWAP1 DUP2 LT ISZERO PUSH2 0x27D3 JUMPI PUSH1 0x5 SHL DUP2 ADD CALLDATALOAD SWAP1 PUSH32 0xFFFFFFFFFFFFFFFFFFFFFFFFFFFFFFFFFFFFFFFFFFFFFFFFFFFFFFFFFFFFFFE1 DUP2 CALLDATASIZE SUB ADD DUP3 SLT ISZERO PUSH2 0x453 JUMPI ADD SWAP1 DUP2 CALLDATALOAD SWAP2 PUSH8 0xFFFFFFFFFFFFFFFF DUP4 GT PUSH2 0x453 JUMPI PUSH1 0x20 ADD DUP3 CALLDATASIZE SUB DUP2 SGT PUSH2 0x453 JUMPI SWAP2 SWAP1 JUMP JUMPDEST SWAP2 SWAP1 DUP3 SUB SWAP2 DUP3 GT PUSH2 0x294D JUMPI JUMP JUMPDEST MLOAD SWAP1 PUSH1 0xFF DUP3 AND DUP3 SUB PUSH2 0x453 JUMPI JUMP JUMPDEST PUSH1 0xFF AND PUSH1 0x4D DUP2 GT PUSH2 0x294D JUMPI PUSH1 0xA EXP SWAP1 JUMP JUMPDEST MLOAD SWAP1 PUSH2 0xFFFF DUP3 AND DUP3 SUB PUSH2 0x453 JUMPI JUMP JUMPDEST SWAP1 DUP1 ISZERO PUSH2 0x2AC7 JUMPI DUP2 ISZERO PUSH2 0x2ABF JUMPI DUP2 DUP1 PUSH1 0x1 EQ PUSH2 0x2AB6 JUMPI PUSH1 0x2 EQ PUSH2 0x2A9C JUMPI PUSH1 0x20 DUP2 LT PUSH2 0x133 DUP4 LT AND PUSH1 0x4E DUP3 LT PUSH1 0xB DUP5 LT AND OR PUSH2 0x2A90 JUMPI SWAP1 SWAP2 PUSH1 0x1 SWAP2 DUP3 JUMPDEST DUP1 DUP3 GT PUSH2 0x2A69 JUMPI POP POP DUP3 SWAP1 DIV DUP2 GT PUSH2 0x294D JUMPI MUL SWAP1 JUMP JUMPDEST SWAP1 SWAP4 DUP1 DUP4 DIV DUP2 GT PUSH2 0x294D JUMPI DUP2 DUP6 AND PUSH2 0x2A87 JUMPI JUMPDEST DUP1 MUL SWAP4 DUP2 SHR SWAP1 PUSH2 0x2A53 JUMP JUMPDEST DUP1 SWAP4 MUL SWAP3 PUSH2 0x2A7C JUMP JUMPDEST SWAP1 EXP SWAP2 SWAP1 DUP3 GT PUSH2 0x294D JUMPI JUMP JUMPDEST SWAP1 POP PUSH1 0xFF DUP2 SWAP4 SWAP3 SWAP4 GT PUSH2 0x294D JUMPI PUSH1 0x1 SWAP1 SHL SWAP2 DUP3 GT PUSH2 0x294D JUMPI JUMP JUMPDEST POP POP POP POP PUSH1 0x1 SWAP1 JUMP JUMPDEST POP POP POP PUSH1 0x0 SWAP1 JUMP JUMPDEST POP POP POP PUSH1 0x1 SWAP1 JUMP JUMPDEST DUP2 DUP2 MUL SWAP3 SWAP2 DUP2 ISZERO SWAP2 DUP5 DIV EQ OR ISZERO PUSH2 0x294D JUMPI JUMP JUMPDEST SWAP2 SWAP1 DUP3 PUSH1 0x40 SWAP2 SUB SLT PUSH2 0x453 JUMPI PUSH1 0x20 DUP3 MLOAD SWAP3 ADD MLOAD SWAP1 JUMP JUMPDEST SWAP1 SWAP2 PUSH1 0x40 MLOAD PUSH32 0xDD62ED3E00000000000000000000000000000000000000000000000000000000 DUP2 MSTORE ADDRESS PUSH1 0x4 DUP3 ADD MSTORE PUSH1 0x20 DUP2 PUSH1 0x44 DUP2 PUSH20 0xFFFFFFFFFFFFFFFFFFFFFFFFFFFFFFFFFFFFFFFF DUP1 DUP10 AND PUSH1 0x24 DUP4 ADD MSTORE DUP8 AND GAS STATICCALL SWAP1 DUP2 ISZERO PUSH2 0x2C03 JUMPI PUSH1 0x0 SWAP2 PUSH2 0x2BD2 JUMPI JUMPDEST POP LT ISZERO PUSH2 0x2BCE JUMPI PUSH1 0x44 PUSH1 0x10 PUSH1 0x0 DUP1 SWAP4 PUSH1 0x20 SWAP6 PUSH1 0x14 MSTORE PUSH32 0xFFFFFFFFFFFFFFFFFFFFFFFFFFFFFFFFFFFFFFFFFFFFFFFFFFFFFFFFFFFFFFFF PUSH1 0x34 MSTORE PUSH16 0x95EA7B3000000000000000000000000 DUP3 MSTORE GAS CALL RETURNDATASIZE ISZERO PUSH1 0x1 PUSH1 0x0 MLOAD EQ OR AND ISZERO PUSH2 0x2BC0 JUMPI PUSH1 0x0 PUSH1 0x34 MSTORE JUMP JUMPDEST PUSH4 0x3E3F8F73 PUSH1 0x0 MSTORE PUSH1 0x4 PUSH1 0x1C REVERT JUMPDEST POP POP JUMP JUMPDEST SWAP1 PUSH1 0x20 DUP3 RETURNDATASIZE DUP3 GT PUSH2 0x2BFB JUMPI JUMPDEST DUP2 PUSH2 0x2BEB PUSH1 0x20 SWAP4 DUP4 PUSH2 0x26ED JUMP JUMPDEST DUP2 ADD SUB SLT PUSH2 0x1A4 JUMPI POP MLOAD CODESIZE PUSH2 0x2B5C JUMP JUMPDEST RETURNDATASIZE SWAP2 POP PUSH2 0x2BDE JUMP JUMPDEST PUSH1 0x40 MLOAD RETURNDATASIZE PUSH1 0x0 DUP3 RETURNDATACOPY RETURNDATASIZE SWAP1 REVERT JUMPDEST PUSH8 0xFFFFFFFFFFFFFFFF DUP2 GT PUSH2 0x272E JUMPI PUSH1 0x1F ADD PUSH32 0xFFFFFFFFFFFFFFFFFFFFFFFFFFFFFFFFFFFFFFFFFFFFFFFFFFFFFFFFFFFFFFE0 AND PUSH1 0x20 ADD SWAP1 JUMP JUMPDEST DUP2 PUSH1 0x1F DUP3 ADD SLT ISZERO PUSH2 0x453 JUMPI DUP1 CALLDATALOAD SWAP1 PUSH2 0x2C60 DUP3 PUSH2 0x2C0F JUMP JUMPDEST SWAP3 PUSH2 0x2C6E PUSH1 0x40 MLOAD SWAP5 DUP6 PUSH2 0x26ED JUMP JUMPDEST DUP3 DUP5 MSTORE PUSH1 0x20 DUP4 DUP4 ADD ADD GT PUSH2 0x453 JUMPI DUP2 PUSH1 0x0 SWAP3 PUSH1 0x20 DUP1 SWAP4 ADD DUP4 DUP7 ADD CALLDATACOPY DUP4 ADD ADD MSTORE SWAP1 JUMP JUMPDEST SWAP2 SWAP3 SWAP1 DUP3 ADD SWAP5 DUP3 DUP7 SUB SWAP3 PUSH2 0x140 DUP5 SLT PUSH2 0x453 JUMPI PUSH1 0xE0 PUSH32 0xFFFFFFFFFFFFFFFFFFFFFFFFFFFFFFFFFFFFFFFFFFFFFFFFFFFFFFFFFFFFFFE0 PUSH2 0x2CCF DUP4 PUSH2 0x26CC JUMP JUMPDEST SWAP6 ADD SLT PUSH2 0x453 JUMPI PUSH1 0x40 MLOAD SWAP7 PUSH2 0x2CE5 PUSH1 0xE0 DUP10 PUSH2 0x26ED JUMP JUMPDEST PUSH2 0x2CF1 PUSH1 0x20 DUP4 ADD PUSH2 0x26CC JUMP JUMPDEST DUP9 MSTORE PUSH2 0x2CFF PUSH1 0x40 DUP4 ADD PUSH2 0x26CC JUMP JUMPDEST PUSH1 0x20 DUP10 ADD MSTORE PUSH2 0x2D10 PUSH1 0x60 DUP4 ADD PUSH2 0x26CC JUMP JUMPDEST PUSH1 0x40 DUP10 ADD MSTORE PUSH2 0x2D21 PUSH1 0x80 DUP4 ADD PUSH2 0x26CC JUMP JUMPDEST PUSH1 0x60 DUP10 ADD MSTORE PUSH1 0xA0 DUP3 ADD CALLDATALOAD PUSH1 0x80 DUP10 ADD MSTORE PUSH1 0xC0 DUP3 ADD CALLDATALOAD PUSH1 0xA0 DUP10 ADD MSTORE PUSH1 0xE0 DUP3 ADD CALLDATALOAD PUSH1 0xC0 DUP10 ADD MSTORE PUSH2 0x100 DUP3 ADD CALLDATALOAD PUSH8 0xFFFFFFFFFFFFFFFF SWAP1 DUP2 DUP2 GT PUSH2 0x453 JUMPI DUP3 PUSH2 0x2D67 SWAP2 DUP6 ADD PUSH2 0x2C49 JUMP JUMPDEST POP PUSH2 0x120 DUP4 ADD CALLDATALOAD SWAP1 DUP2 GT PUSH2 0x453 JUMPI PUSH2 0x2D7F SWAP3 ADD PUSH2 0x2C49 JUMP JUMPDEST SWAP5 DUP3 PUSH1 0x80 DUP9 ADD MLOAD SUB PUSH2 0x3065 JUMPI JUMPDEST PUSH20 0xFFFFFFFFFFFFFFFFFFFFFFFFFFFFFFFFFFFFFFFF DUP8 MLOAD AND PUSH20 0xFFFFFFFFFFFFFFFFFFFFFFFFFFFFFFFFFFFFFFFF DUP7 AND SUB PUSH2 0x303B JUMPI PUSH20 0xFFFFFFFFFFFFFFFFFFFFFFFFFFFFFFFFFFFFFFFF DUP1 PUSH1 0x20 DUP10 ADD MLOAD AND SWAP2 AND SUB PUSH2 0x3011 JUMPI PUSH20 0xFFFFFFFFFFFFFFFFFFFFFFFFFFFFFFFFFFFFFFFF DUP1 PUSH1 0x60 DUP9 ADD MLOAD AND SWAP2 AND SUB PUSH2 0x2FE7 JUMPI PUSH1 0x40 SWAP4 PUSH2 0x2E40 PUSH2 0x2F9D SWAP3 PUSH20 0x1111111254EEB25477B68FB85ED929F73A960582 PUSH20 0xFFFFFFFFFFFFFFFFFFFFFFFFFFFFFFFFFFFFFFFF SWAP7 PUSH2 0x2AF8 JUMP JUMPDEST PUSH2 0x2F6C PUSH2 0x2E4D PUSH1 0x0 PUSH2 0x2C0F JUMP JUMPDEST PUSH2 0x2E59 DUP8 MLOAD SWAP2 DUP3 PUSH2 0x26ED JUMP JUMPDEST PUSH1 0x0 DUP2 MSTORE PUSH32 0xFFFFFFFFFFFFFFFFFFFFFFFFFFFFFFFFFFFFFFFFFFFFFFFFFFFFFFFFFFFFFFE0 PUSH2 0x2E88 PUSH1 0x0 PUSH2 0x2C0F JUMP JUMPDEST ADD CALLDATASIZE PUSH1 0x20 DUP4 ADD CALLDATACOPY PUSH1 0xC0 DUP8 MLOAD SWAP9 DUP10 SWAP8 DUP9 SWAP8 PUSH32 0x12AA3CAF00000000000000000000000000000000000000000000000000000000 DUP10 MSTORE AND PUSH1 0x4 DUP9 ADD MSTORE PUSH20 0xFFFFFFFFFFFFFFFFFFFFFFFFFFFFFFFFFFFFFFFF DUP2 MLOAD AND PUSH1 0x24 DUP9 ADD MSTORE PUSH20 0xFFFFFFFFFFFFFFFFFFFFFFFFFFFFFFFFFFFFFFFF PUSH1 0x20 DUP3 ADD MLOAD AND PUSH1 0x44 DUP9 ADD MSTORE PUSH20 0xFFFFFFFFFFFFFFFFFFFFFFFFFFFFFFFFFFFFFFFF DUP10 DUP3 ADD MLOAD AND PUSH1 0x64 DUP9 ADD MSTORE PUSH20 0xFFFFFFFFFFFFFFFFFFFFFFFFFFFFFFFFFFFFFFFF PUSH1 0x60 DUP3 ADD MLOAD AND PUSH1 0x84 DUP9 ADD MSTORE PUSH1 0x80 DUP2 ADD MLOAD PUSH1 0xA4 DUP9 ADD MSTORE PUSH1 0xA0 DUP2 ADD MLOAD PUSH1 0xC4 DUP9 ADD MSTORE ADD MLOAD PUSH1 0xE4 DUP7 ADD MSTORE PUSH2 0x140 PUSH2 0x104 DUP7 ADD MSTORE PUSH2 0x144 DUP6 ADD SWAP1 PUSH2 0x275D JUMP JUMPDEST SWAP1 PUSH32 0xFFFFFFFFFFFFFFFFFFFFFFFFFFFFFFFFFFFFFFFFFFFFFFFFFFFFFFFFFFFFFFFC DUP5 DUP4 SUB ADD PUSH2 0x124 DUP6 ADD MSTORE PUSH2 0x275D JUMP JUMPDEST SUB DUP2 PUSH1 0x0 PUSH20 0x1111111254EEB25477B68FB85ED929F73A960582 GAS CALL SWAP1 DUP2 ISZERO PUSH2 0x2C03 JUMPI PUSH1 0x0 SWAP2 PUSH2 0x2FCA JUMPI POP SWAP1 JUMP JUMPDEST PUSH2 0x2FE3 SWAP2 POP PUSH1 0x40 RETURNDATASIZE PUSH1 0x40 GT PUSH2 0x2201 JUMPI PUSH2 0x21F1 DUP2 DUP4 PUSH2 0x26ED JUMP JUMPDEST POP SWAP1 JUMP JUMPDEST PUSH1 0x4 PUSH1 0x40 MLOAD PUSH32 0xAC71D77A00000000000000000000000000000000000000000000000000000000 DUP2 MSTORE REVERT JUMPDEST PUSH1 0x4 PUSH1 0x40 MLOAD PUSH32 0xB8806C1D00000000000000000000000000000000000000000000000000000000 DUP2 MSTORE REVERT JUMPDEST PUSH1 0x4 PUSH1 0x40 MLOAD PUSH32 0x84B1DDE800000000000000000000000000000000000000000000000000000000 DUP2 MSTORE REVERT JUMPDEST DUP3 PUSH1 0x80 DUP9 ADD MSTORE PUSH2 0x2D8C JUMP JUMPDEST PUSH32 0xFFFFFFFFFFFFFFFFFFFFFFFFFFFFFFFFFFFFFFFFFFFFFFFFFFFFFFFFFFFFFFFF DUP2 EQ PUSH2 0x294D JUMPI PUSH1 0x1 ADD SWAP1 JUMP JUMPDEST PUSH1 0x40 MLOAD PUSH32 0xF851A44000000000000000000000000000000000000000000000000000000000 DUP2 MSTORE PUSH20 0xFFFFFFFFFFFFFFFFFFFFFFFFFFFFFFFFFFFFFFFF SWAP1 PUSH1 0x20 DUP2 PUSH1 0x4 DUP2 DUP6 PUSH32 0x0 AND GAS STATICCALL SWAP1 DUP2 ISZERO PUSH2 0x2C03 JUMPI PUSH1 0x0 SWAP2 PUSH2 0x3147 JUMPI JUMPDEST POP AND CALLER SUB PUSH2 0x311D JUMPI JUMP JUMPDEST PUSH1 0x4 PUSH1 0x40 MLOAD PUSH32 0xB73DC6CA00000000000000000000000000000000000000000000000000000000 DUP2 MSTORE REVERT JUMPDEST SWAP1 PUSH1 0x20 DUP3 RETURNDATASIZE DUP3 GT PUSH2 0x3178 JUMPI JUMPDEST DUP2 PUSH2 0x3160 PUSH1 0x20 SWAP4 DUP4 PUSH2 0x26ED JUMP JUMPDEST DUP2 ADD SUB SLT PUSH2 0x1A4 JUMPI POP PUSH2 0x3172 SWAP1 PUSH2 0x281A JUMP JUMPDEST CODESIZE PUSH2 0x3113 JUMP JUMPDEST RETURNDATASIZE SWAP2 POP PUSH2 0x3153 JUMP JUMPDEST SWAP1 DUP1 PUSH32 0xFFFFFFFFFFFFFFFFFFFFFFFFFFFFFFFFFFFFFFFFFFFFFFFFFFFFFFFFFFFFFFFF DIV DUP3 GT DUP2 MUL PUSH2 0x31BB JUMPI PUSH8 0xDE0B6B3A7640000 SWAP2 MUL DIV SWAP1 JUMP JUMPDEST PUSH4 0xBAC65E5B PUSH1 0x0 MSTORE PUSH1 0x4 PUSH1 0x1C REVERT JUMPDEST PUSH8 0xDE0B6B3A7640000 SWAP1 PUSH25 0x12725DD1D243ABA0E75FE645CC4873F9E65AFE688C928E1F21 DUP2 GT DUP3 MUL ISZERO DUP4 MUL ISZERO PUSH2 0x31FE JUMPI MUL DIV SWAP1 JUMP JUMPDEST PUSH4 0x7C5F487D PUSH1 0x0 MSTORE PUSH1 0x4 PUSH1 0x1C REVERT JUMPDEST PUSH1 0x1C PUSH1 0x0 PUSH1 0x64 SWAP3 DUP2 SWAP5 PUSH1 0x20 SWAP7 PUSH1 0x40 MLOAD SWAP9 PUSH1 0x60 MSTORE PUSH1 0x40 MSTORE PUSH1 0x60 SHL PUSH1 0x2C MSTORE PUSH16 0x23B872DD000000000000000000000000 PUSH1 0xC MSTORE GAS CALL RETURNDATASIZE ISZERO PUSH1 0x1 PUSH1 0x0 MLOAD EQ OR AND ISZERO PUSH2 0x3257 JUMPI PUSH1 0x0 PUSH1 0x60 MSTORE PUSH1 0x40 MSTORE JUMP JUMPDEST PUSH4 0x7939F424 PUSH1 0x0 MSTORE PUSH1 0x4 PUSH1 0x1C REVERT JUMPDEST PUSH1 0x10 SWAP3 PUSH1 0x20 SWAP3 PUSH1 0x14 MSTORE PUSH1 0x34 MSTORE PUSH1 0x44 PUSH1 0x0 SWAP4 DUP5 DUP1 SWAP4 PUSH16 0xA9059CBB000000000000000000000000 DUP3 MSTORE GAS CALL RETURNDATASIZE ISZERO PUSH1 0x1 DUP4 MLOAD EQ OR AND ISZERO PUSH2 0x32A1 JUMPI PUSH1 0x34 MSTORE JUMP JUMPDEST PUSH4 0x90B8EC18 SWAP1 MSTORE PUSH1 0x4 PUSH1 0x1C REVERT JUMPDEST PUSH1 0x24 PUSH1 0x10 PUSH1 0x20 SWAP4 SWAP3 DUP5 SWAP4 PUSH1 0x14 MSTORE PUSH16 0x70A08231000000000000000000000000 PUSH1 0x0 MSTORE GAS STATICCALL PUSH1 0x1F RETURNDATASIZE GT AND PUSH1 0x20 MLOAD MUL SWAP1 JUMP INVALID LOG1 PUSH5 0x736F6C6343 STOP ADDMOD GT STOP EXP "},"methodIdentifiers":{"ONE_INCH_ROUTER_V5()":"bdcb9932","addRewardToken(address)":"1c03e6cc","allRewardTokens(uint256)":"9ee80c5c","collectX1RewardsAll()":"97f4e01b","cygnusX1Vault()":"c73ef9e8","getRewards(address)":"79ee54f7","hangar18()":"e8a24e1d","harvestToX1Vault(address)":"2c733d87","harvesterReward()":"cccd8960","harvesters(address)":"87976583","isRewardToken(address)":"b5fd73f8","lastX1Collect()":"b5b946e3","name()":"06fdde03","nativeToken()":"e1758bd8","reinvestRewards(bytes[],address)":"03e7020e","removeRewardToken(address)":"3d509c97","rewardTokenBalanceAtIndex(uint256)":"ba3f30c6","rewardTokensLength()":"bf199e62","setTerminalHarvester(address,address,address)":"dae275b6","setWeightHarvester(uint256)":"9c486bd0","setWeightX1Vault(uint256)":"a52ada84","simpleHarvest()":"a3f11a9a","switchSimpleHarvest()":"567ac8d5","usd()":"d63a6ccd","x1VaultReward()":"b7218b37"}}}}}