{
  "_format": "hh-sol-artifact-1",
  "contractName": "CompoundHarvester",
  "sourceName": "contracts/cygnus-harvesters/CompHarvester.sol",
  "abi": [
    {
      "inputs": [
        {
          "internalType": "contract IHangar18",
          "name": "_hangar18",
          "type": "address"
        }
      ],
      "stateMutability": "nonpayable",
      "type": "constructor"
    },
    {
      "inputs": [],
      "name": "CygnusHarvester__DstReceiverNotValid",
      "type": "error"
    },
    {
      "inputs": [],
      "name": "CygnusHarvester__DstTokenNotValid",
      "type": "error"
    },
    {
      "inputs": [],
      "name": "CygnusHarvester__HarvestRewardTooHigh",
      "type": "error"
    },
    {
      "inputs": [],
      "name": "CygnusHarvester__HarvesterNotSet",
      "type": "error"
    },
    {
      "inputs": [],
      "name": "CygnusHarvester__MsgSenderNotAdmin",
      "type": "error"
    },
    {
      "inputs": [],
      "name": "CygnusHarvester__OnlyEOAAllowed",
      "type": "error"
    },
    {
      "inputs": [],
      "name": "CygnusHarvester__ParaswapTransactionFailed",
      "type": "error"
    },
    {
      "inputs": [],
      "name": "CygnusHarvester__RewardTokenAlreadyAdded",
      "type": "error"
    },
    {
      "inputs": [],
      "name": "CygnusHarvester__RewardTokenNotAdded",
      "type": "error"
    },
    {
      "inputs": [],
      "name": "CygnusHarvester__SimpleHarvestNotEnabled",
      "type": "error"
    },
    {
      "inputs": [],
      "name": "CygnusHarvester__SrcTokenNotValid",
      "type": "error"
    },
    {
      "inputs": [],
      "name": "CygnusHarvester__X1VaultRewardTooHigh",
      "type": "error"
    },
    {
      "inputs": [],
      "name": "ReentrantCall",
      "type": "error"
    },
    {
      "anonymous": false,
      "inputs": [
        {
          "indexed": false,
          "internalType": "uint256",
          "name": "timestamp",
          "type": "uint256"
        },
        {
          "indexed": false,
          "internalType": "address",
          "name": "sender",
          "type": "address"
        },
        {
          "indexed": false,
          "internalType": "uint256",
          "name": "tokensLength",
          "type": "uint256"
        }
      ],
      "name": "CygnusX1VaultCollect",
      "type": "event"
    },
    {
      "anonymous": false,
      "inputs": [
        {
          "indexed": false,
          "internalType": "address",
          "name": "terminal",
          "type": "address"
        },
        {
          "indexed": false,
          "internalType": "address",
          "name": "underlying",
          "type": "address"
        },
        {
          "indexed": false,
          "internalType": "address",
          "name": "wantToken",
          "type": "address"
        },
        {
          "indexed": false,
          "internalType": "address",
          "name": "receiver",
          "type": "address"
        }
      ],
      "name": "NewHarvester",
      "type": "event"
    },
    {
      "anonymous": false,
      "inputs": [
        {
          "indexed": false,
          "internalType": "uint256",
          "name": "oldWeight",
          "type": "uint256"
        },
        {
          "indexed": false,
          "internalType": "uint256",
          "name": "newWeight",
          "type": "uint256"
        }
      ],
      "name": "NewHarvesterWeight",
      "type": "event"
    },
    {
      "anonymous": false,
      "inputs": [
        {
          "indexed": false,
          "internalType": "uint256",
          "name": "oldWeight",
          "type": "uint256"
        },
        {
          "indexed": false,
          "internalType": "uint256",
          "name": "newWeight",
          "type": "uint256"
        }
      ],
      "name": "NewX1VaultWeight",
      "type": "event"
    },
    {
      "anonymous": false,
      "inputs": [
        {
          "indexed": false,
          "internalType": "address",
          "name": "token",
          "type": "address"
        },
        {
          "indexed": false,
          "internalType": "uint256",
          "name": "length",
          "type": "uint256"
        }
      ],
      "name": "RewardTokenAdded",
      "type": "event"
    },
    {
      "anonymous": false,
      "inputs": [
        {
          "indexed": false,
          "internalType": "address",
          "name": "token",
          "type": "address"
        },
        {
          "indexed": false,
          "internalType": "uint256",
          "name": "length",
          "type": "uint256"
        }
      ],
      "name": "RewardTokenRemoved",
      "type": "event"
    },
    {
      "anonymous": false,
      "inputs": [
        {
          "indexed": false,
          "internalType": "bool",
          "name": "_simpleHarvest",
          "type": "bool"
        }
      ],
      "name": "SimpleHarvestSwitch",
      "type": "event"
    },
    {
      "stateMutability": "payable",
      "type": "fallback"
    },
    {
      "inputs": [],
      "name": "ONE_INCH_ROUTER_V5",
      "outputs": [
        {
          "internalType": "address",
          "name": "",
          "type": "address"
        }
      ],
      "stateMutability": "view",
      "type": "function"
    },
    {
      "inputs": [
        {
          "internalType": "address",
          "name": "rewardToken",
          "type": "address"
        }
      ],
      "name": "addRewardToken",
      "outputs": [],
      "stateMutability": "nonpayable",
      "type": "function"
    },
    {
      "inputs": [
        {
          "internalType": "uint256",
          "name": "",
          "type": "uint256"
        }
      ],
      "name": "allRewardTokens",
      "outputs": [
        {
          "internalType": "address",
          "name": "",
          "type": "address"
        }
      ],
      "stateMutability": "view",
      "type": "function"
    },
    {
      "inputs": [],
      "name": "collectX1RewardsAll",
      "outputs": [],
      "stateMutability": "nonpayable",
      "type": "function"
    },
    {
      "inputs": [],
      "name": "cygnusX1Vault",
      "outputs": [
        {
          "internalType": "address",
          "name": "",
          "type": "address"
        }
      ],
      "stateMutability": "view",
      "type": "function"
    },
    {
      "inputs": [
        {
          "internalType": "address",
          "name": "terminal",
          "type": "address"
        }
      ],
      "name": "getRewards",
      "outputs": [
        {
          "internalType": "address[]",
          "name": "tokens",
          "type": "address[]"
        },
        {
          "internalType": "uint256[]",
          "name": "amounts",
          "type": "uint256[]"
        }
      ],
      "stateMutability": "nonpayable",
      "type": "function"
    },
    {
      "inputs": [],
      "name": "hangar18",
      "outputs": [
        {
          "internalType": "contract IHangar18",
          "name": "",
          "type": "address"
        }
      ],
      "stateMutability": "view",
      "type": "function"
    },
    {
      "inputs": [
        {
          "internalType": "address",
          "name": "terminal",
          "type": "address"
        }
      ],
      "name": "harvestToX1Vault",
      "outputs": [],
      "stateMutability": "nonpayable",
      "type": "function"
    },
    {
      "inputs": [],
      "name": "harvesterReward",
      "outputs": [
        {
          "internalType": "uint256",
          "name": "",
          "type": "uint256"
        }
      ],
      "stateMutability": "view",
      "type": "function"
    },
    {
      "inputs": [
        {
          "internalType": "address",
          "name": "",
          "type": "address"
        }
      ],
      "name": "harvesters",
      "outputs": [
        {
          "internalType": "address",
          "name": "terminal",
          "type": "address"
        },
        {
          "internalType": "address",
          "name": "underlying",
          "type": "address"
        },
        {
          "internalType": "address",
          "name": "wantToken",
          "type": "address"
        },
        {
          "internalType": "address",
          "name": "receiver",
          "type": "address"
        }
      ],
      "stateMutability": "view",
      "type": "function"
    },
    {
      "inputs": [
        {
          "internalType": "address",
          "name": "",
          "type": "address"
        }
      ],
      "name": "isRewardToken",
      "outputs": [
        {
          "internalType": "bool",
          "name": "",
          "type": "bool"
        }
      ],
      "stateMutability": "view",
      "type": "function"
    },
    {
      "inputs": [],
      "name": "lastX1Collect",
      "outputs": [
        {
          "internalType": "uint256",
          "name": "",
          "type": "uint256"
        }
      ],
      "stateMutability": "view",
      "type": "function"
    },
    {
      "inputs": [],
      "name": "name",
      "outputs": [
        {
          "internalType": "string",
          "name": "",
          "type": "string"
        }
      ],
      "stateMutability": "view",
      "type": "function"
    },
    {
      "inputs": [],
      "name": "nativeToken",
      "outputs": [
        {
          "internalType": "address",
          "name": "",
          "type": "address"
        }
      ],
      "stateMutability": "view",
      "type": "function"
    },
    {
      "inputs": [
        {
          "internalType": "bytes[]",
          "name": "swapdata",
          "type": "bytes[]"
        },
        {
          "internalType": "address",
          "name": "borrowable",
          "type": "address"
        }
      ],
      "name": "reinvestRewards",
      "outputs": [
        {
          "internalType": "uint256",
          "name": "liquidity",
          "type": "uint256"
        }
      ],
      "stateMutability": "nonpayable",
      "type": "function"
    },
    {
      "inputs": [
        {
          "internalType": "address",
          "name": "rewardToken",
          "type": "address"
        }
      ],
      "name": "removeRewardToken",
      "outputs": [],
      "stateMutability": "nonpayable",
      "type": "function"
    },
    {
      "inputs": [
        {
          "internalType": "uint256",
          "name": "index",
          "type": "uint256"
        }
      ],
      "name": "rewardTokenBalanceAtIndex",
      "outputs": [
        {
          "internalType": "uint256",
          "name": "",
          "type": "uint256"
        }
      ],
      "stateMutability": "view",
      "type": "function"
    },
    {
      "inputs": [],
      "name": "rewardTokensLength",
      "outputs": [
        {
          "internalType": "uint256",
          "name": "",
          "type": "uint256"
        }
      ],
      "stateMutability": "view",
      "type": "function"
    },
    {
      "inputs": [
        {
          "internalType": "address",
          "name": "terminal",
          "type": "address"
        },
        {
          "internalType": "address",
          "name": "wantToken",
          "type": "address"
        },
        {
          "internalType": "address",
          "name": "receiver",
          "type": "address"
        }
      ],
      "name": "setTerminalHarvester",
      "outputs": [],
      "stateMutability": "nonpayable",
      "type": "function"
    },
    {
      "inputs": [
        {
          "internalType": "uint256",
          "name": "newWeight",
          "type": "uint256"
        }
      ],
      "name": "setWeightHarvester",
      "outputs": [],
      "stateMutability": "nonpayable",
      "type": "function"
    },
    {
      "inputs": [
        {
          "internalType": "uint256",
          "name": "newWeight",
          "type": "uint256"
        }
      ],
      "name": "setWeightX1Vault",
      "outputs": [],
      "stateMutability": "nonpayable",
      "type": "function"
    },
    {
      "inputs": [],
      "name": "simpleHarvest",
      "outputs": [
        {
          "internalType": "bool",
          "name": "",
          "type": "bool"
        }
      ],
      "stateMutability": "view",
      "type": "function"
    },
    {
      "inputs": [],
      "name": "switchSimpleHarvest",
      "outputs": [],
      "stateMutability": "nonpayable",
      "type": "function"
    },
    {
      "inputs": [],
      "name": "usd",
      "outputs": [
        {
          "internalType": "address",
          "name": "",
          "type": "address"
        }
      ],
      "stateMutability": "view",
      "type": "function"
    },
    {
      "inputs": [],
      "name": "x1VaultReward",
      "outputs": [
        {
          "internalType": "uint256",
          "name": "",
          "type": "uint256"
        }
      ],
      "stateMutability": "view",
      "type": "function"
    },
    {
      "stateMutability": "payable",
      "type": "receive"
    }
  ],
  "bytecode": "0x610100604090808252346200025957806200290880380380916200002482856200025e565b83396020928391810103126200025957516001600160a01b038116919082810362000259576001926000918460ff1984541617835567030d98d59a960000600555666a94d74f4300006006556080528451631c2eb17b60e31b81528381600481855afa9081156200022d57839162000237575b5060c052845163d63a6ccd60e01b81528381600481855afa9081156200022d5791849160049385916200020b575b5060a05286516318e7df3d60e31b815292839182905afa90811562000201578291620001cd575b5060e052600854918383811c93168015620001c2575b81841014620001ae57601f831162000188575b7f4379676e75733a20434f4d50204861727665737465720000000000000000002c600855845161264e9081620002ba82396080518181816101800152612489015260a051816104a3015260c051816101f2015260e05181818161054e01528181610a62015281816112930152611e3a0152f35b601f90600883528220920160051c8201915b82811015620001155781815583016200019a565b634e487b7160e01b82526022600452602482fd5b92607f169262000102565b620001f29150833d8511620001f9575b620001e981836200025e565b81019062000298565b38620000ec565b503d620001dd565b85513d84823e3d90fd5b620002269150833d8511620001f957620001e981836200025e565b38620000c5565b86513d85823e3d90fd5b620002529150843d8611620001f957620001e981836200025e565b3862000097565b600080fd5b601f909101601f19168101906001600160401b038211908210176200028257604052565b634e487b7160e01b600052604160045260246000fd5b908160209103126200025957516001600160a01b038116810362000259579056fe608080604052600436101561001a575b50361561001857005b005b600090813560e01c90816303e7020e1461169b5750806306fdde03146115385780631c03e6cc146113bf5780632c733d871461113e5780633d509c9714610ec5578063567ac8d514610e2a57806379ee54f714610c5b5780638797658314610b9957806397f4e01b1461095b5780639c486bd0146108ad5780639ee80c5c1461083d578063a3f11a9a146107fc578063a52ada841461074e578063b5b946e314610712578063b5fd73f8146106a5578063b7218b3714610669578063ba3f30c6146105fb578063bdcb9932146105ae578063bf199e6214610572578063c73ef9e814610503578063cccd8960146104c7578063d63a6ccd14610458578063dae275b614610216578063e1758bd8146101a75763e8a24e1d0361000f57346101a457807ffffffffffffffffffffffffffffffffffffffffffffffffffffffffffffffffc3601126101a457602060405173ffffffffffffffffffffffffffffffffffffffff7f0000000000000000000000000000000000000000000000000000000000000000168152f35b80fd5b50346101a457807ffffffffffffffffffffffffffffffffffffffffffffffffffffffffffffffffc3601126101a457602060405173ffffffffffffffffffffffffffffffffffffffff7f0000000000000000000000000000000000000000000000000000000000000000168152f35b50346101a45760607ffffffffffffffffffffffffffffffffffffffffffffffffffffffffffffffffc3601126101a45760043573ffffffffffffffffffffffffffffffffffffffff808216918281036104535760243591808316928381036104535760443591808316908184036104535761028f612444565b604051957f6f307dc300000000000000000000000000000000000000000000000000000000875288602080896004818d5afa9889156104485782996103cc575b507fb6a8c784464bbdc8b94f70be7ceb25dc9f5b72fc3b64ba76f6a0121d15c4bc859989938560406103c69a999897956001600396835196610312608089611fe3565b808852858289019b168b52848801968752606088019b8c5283525220925116947fffffffffffffffffffffffff0000000000000000000000000000000000000000958684541617835584600184019151168682541617905583600283019151168582541617905501925116908254161790556040519485948592949360609291608085019673ffffffffffffffffffffffffffffffffffffffff809481809416885216602087015216604085015216910152565b0390a180f35b908093995081819897969593983d8311610441575b6103eb8183611fe3565b8101031261043d577fb6a8c784464bbdc8b94f70be7ceb25dc9f5b72fc3b64ba76f6a0121d15c4bc85996001998360406103c69a61042a600396612110565b9d509550509596979850939150996102cf565b8680fd5b503d6103e1565b6040513d84823e3d90fd5b600080fd5b50346101a457807ffffffffffffffffffffffffffffffffffffffffffffffffffffffffffffffffc3601126101a457602060405173ffffffffffffffffffffffffffffffffffffffff7f0000000000000000000000000000000000000000000000000000000000000000168152f35b50346101a457807ffffffffffffffffffffffffffffffffffffffffffffffffffffffffffffffffc3601126101a4576020600654604051908152f35b50346101a457807ffffffffffffffffffffffffffffffffffffffffffffffffffffffffffffffffc3601126101a457602060405173ffffffffffffffffffffffffffffffffffffffff7f0000000000000000000000000000000000000000000000000000000000000000168152f35b50346101a457807ffffffffffffffffffffffffffffffffffffffffffffffffffffffffffffffffc3601126101a4576020600254604051908152f35b50346101a457807ffffffffffffffffffffffffffffffffffffffffffffffffffffffffffffffffc3601126101a4576020604051731111111254eeb25477b68fb85ed929f73a9605828152f35b50346101a45760207ffffffffffffffffffffffffffffffffffffffffffffffffffffffffffffffffc3601126101a457602061066173ffffffffffffffffffffffffffffffffffffffff61065260043560026120b1565b919054309260031b1c16612612565b604051908152f35b50346101a457807ffffffffffffffffffffffffffffffffffffffffffffffffffffffffffffffffc3601126101a4576020600554604051908152f35b50346101a45760207ffffffffffffffffffffffffffffffffffffffffffffffffffffffffffffffffc3601126101a4576004359073ffffffffffffffffffffffffffffffffffffffff82168092036104535760408160209360ff9352600384522054166040519015158152f35b50346101a457807ffffffffffffffffffffffffffffffffffffffffffffffffffffffffffffffffc3601126101a4576020600454604051908152f35b50346101a45760207ffffffffffffffffffffffffffffffffffffffffffffffffffffffffffffffffc3601126101a457600435610789612444565b6706f05b59d3b2000081116107d25760407fcdf0e2499be1cf2f4acff51a3c1b2e66af5d59c4d540bb5a36d9800d254a5c8091600554908060055582519182526020820152a180f35b60046040517f174d156b000000000000000000000000000000000000000000000000000000008152fd5b50346101a457807ffffffffffffffffffffffffffffffffffffffffffffffffffffffffffffffffc3601126101a457602060ff600754166040519015158152f35b50346101a45760207ffffffffffffffffffffffffffffffffffffffffffffffffffffffffffffffffc3601126101a457600435906002548210156101a457602073ffffffffffffffffffffffffffffffffffffffff61089d8460026120b1565b9190546040519260031b1c168152f35b50346101a45760207ffffffffffffffffffffffffffffffffffffffffffffffffffffffffffffffffc3601126101a4576004356108e8612444565b67016345785d8a000081116109315760407f65ae41069d2671929deed6d59a7dffa21e5300f58eed9ca4a481ccc94d4560e391600654908060065582519182526020820152a180f35b60046040517fca4bf1b8000000000000000000000000000000000000000000000000000000008152fd5b50346101a457807ffffffffffffffffffffffffffffffffffffffffffffffffffffffffffffffffc3601126101a457805460ff811615610b6f577fffffffffffffffffffffffffffffffffffffffffffffffffffffffffffffff008091168255604051908190600254808452826020809501600287527f405787fa12a823e0f2b7631cc41b3ba8828b3321ca811111fa75cd3aa3bb5ace92875b87828210610b4357505050610a0c92500383611fe3565b835b8251811015610af9578473ffffffffffffffffffffffffffffffffffffffff80610a388487612222565b511690610a453083612612565b80610a5d575b50505050610a589061240a565b610a0e565b610a897f00000000000000000000000000000000000000000000000000000000000000009182856125c9565b1690813b15610af55782916024839260405194859384927f632447c900000000000000000000000000000000000000000000000000000000845260048401525af1801561044857610adc575b8080610a4b565b81610ae691611fe3565b610af1578438610ad5565b8480fd5b8280fd5b846001837f16a9fd824a632ba02af308c1f7597f156fa9ec25b50bf207e0c0c34d28d27ab6606088426004556002546040519142835233908301526040820152a182541617815580f35b855473ffffffffffffffffffffffffffffffffffffffff168452600195860195889550930192016109f5565b60046040517f37ed32e8000000000000000000000000000000000000000000000000000000008152fd5b50346101a45760207ffffffffffffffffffffffffffffffffffffffffffffffffffffffffffffffffc3601126101a45760043573ffffffffffffffffffffffffffffffffffffffff91828216809203610453576040918152600160205220610c578282541691836001820154169360038160028401541692015416906040519485948592949360609291608085019673ffffffffffffffffffffffffffffffffffffffff809481809416885216602087015216604085015216910152565b0390f35b50346101a4576020807ffffffffffffffffffffffffffffffffffffffffffffffffffffffffffffffffc360112610e265760043573ffffffffffffffffffffffffffffffffffffffff8082168092036104535783549060ff821615610b6f578480937fffffffffffffffffffffffffffffffffffffffffffffffffffffffffffffff0080941682556004604051809681937f0572b0cc0000000000000000000000000000000000000000000000000000000083525af1928315610e1b5785908694610df4575b508594600554965b8551811015610d725780610d5d610d4d8a610d47610d6d958b612222565b51612527565b610d57838a612222565b51612437565b610d678289612222565b5261240a565b610d29565b508493918691600180948454161783556040519460408601604087528351809152826060880194019185905b828210610ddd5750505050848203818601528080875193848152019601925b828110610dca5785870386f35b8351875295810195928101928401610dbd565b835181168652948401949284019290870190610d9e565b9050610e139193503d8087833e610e0b8183611fe3565b810190612131565b929038610d21565b6040513d87823e3d90fd5b5080fd5b50346101a457807ffffffffffffffffffffffffffffffffffffffffffffffffffffffffffffffffc3601126101a457610e61612444565b7ffb8d0af087d7b03d1f7bd996e77ba2ca8d33ff1acb0c72a9d12c8987df8652f2602060075460ff8082161516807fffffffffffffffffffffffffffffffffffffffffffffffffffffffffffffff008316176007558460405192161715158152a180f35b50346101a45760207ffffffffffffffffffffffffffffffffffffffffffffffffffffffffffffffffc3601126101a45773ffffffffffffffffffffffffffffffffffffffff600435818116929183820361045357610f21612444565b8383526003938460205260ff604085205416156111145780845284602052604084207fffffffffffffffffffffffffffffffffffffffffffffffffffffffffffffff008154169055600291825495855b878110610fcd575b84546040805173ffffffffffffffffffffffffffffffffffffffff89168152602081019290925288917fbe0d2cc926911d1413d431090d31dd4a56de7770afb1245163f0e0ac7916db2191819081016103c6565b8383610fd983886120b1565b905490851b1c1614610ff357610fee9061240a565b610f71565b92507fffffffffffffffffffffffffffffffffffffffffffffffffffffffffffffffff968781019081116110e75791611041916110346110739594876120b1565b9054911b1c1691846120b1565b90919082549060031b9173ffffffffffffffffffffffffffffffffffffffff9283811b93849216901b16911916179055565b80549384156110ba577fbe0d2cc926911d1413d431090d31dd4a56de7770afb1245163f0e0ac7916db219394016110ae8561104183856120b1565b81558392388080610f79565b6024847f4e487b710000000000000000000000000000000000000000000000000000000081526031600452fd5b6024877f4e487b710000000000000000000000000000000000000000000000000000000081526011600452fd5b60046040517fa4f731e0000000000000000000000000000000000000000000000000000000008152fd5b50346101a457602090817ffffffffffffffffffffffffffffffffffffffffffffffffffffffffffffffffc3601126101a4576004359073ffffffffffffffffffffffffffffffffffffffff808316908184036104535782549360ff9586861615610b6f577fffffffffffffffffffffffffffffffffffffffffffffffffffffffffffffff008096168555866007541615611395578480946004604051809781937f0572b0cc0000000000000000000000000000000000000000000000000000000083525af1968715610e1b5785948698611373575b50855b855181101561136657611229818a612222565b51151580611346575b611245575b6112409061240a565b611216565b84816112c0888c886112ba8661128b8761126c6112628288612222565b5160065490612527565b96611286888561127c8585612222565b5116883391612570565b612222565b511693610d577f0000000000000000000000000000000000000000000000000000000000000000978895612222565b92612570565b16856112cc8389612222565b5116813b156113425788916024839260405194859384927f632447c900000000000000000000000000000000000000000000000000000000845260048401525af1801561133757908891611322575b5050611237565b8161132c91611fe3565b61043d57863861131b565b6040513d8a823e3d90fd5b8880fd5b50846113528288612222565b511687526003835281604088205416611232565b8660018982541617815580f35b90975061138b9194503d8087833e610e0b8183611fe3565b9390939638611213565b60046040517fc8a2ff00000000000000000000000000000000000000000000000000000000008152fd5b50346101a45760207ffffffffffffffffffffffffffffffffffffffffffffffffffffffffffffffffc3601126101a4576004359073ffffffffffffffffffffffffffffffffffffffff8216918281036104535761141a612444565b828252600360205260ff60408320541661150e5760025492680100000000000000008410156114e15761147b826110418660017f68e3e9397770d9dfa88c0953a34e1a70a05416b3895957f5b689787a920791c497980160025560026120b1565b835260036020908152604080852080547fffffffffffffffffffffffffffffffffffffffffffffffffffffffffffffff00166001179055600254815173ffffffffffffffffffffffffffffffffffffffff909416845291830191909152819081016103c6565b6024837f4e487b710000000000000000000000000000000000000000000000000000000081526041600452fd5b60046040517f588fa2cc000000000000000000000000000000000000000000000000000000008152fd5b50346101a457807ffffffffffffffffffffffffffffffffffffffffffffffffffffffffffffffffc3601126101a457604051908060085491600183811c92818516948515611691575b6020958686108114611664578588528794939291879082156116235750506001146115c9575b50506115b592500383611fe3565b610c57604051928284938452830190612053565b90859250600882527ff3f7a9fe364faab93b216da50a3214154f22a0a2b415b23a84c8169e8b636ee35b85831061160b5750506115b5935082010138806115a7565b805483890185015287945086939092019181016115f3565b915093506115b59592507fffffffffffffffffffffffffffffffffffffffffffffffffffffffffffffff0091501682840152151560051b82010138806115a7565b6024837f4e487b710000000000000000000000000000000000000000000000000000000081526022600452fd5b93607f1693611581565b82346101a45760407ffffffffffffffffffffffffffffffffffffffffffffffffffffffffffffffffc3601126101a45767ffffffffffffffff600435116101a4573660236004350112156101a45767ffffffffffffffff60043560040135116101a4573660246004356004013560051b6004350101116101a4576024359173ffffffffffffffffffffffffffffffffffffffff8316809303610e265781549060ff821615611f9a57507fffffffffffffffffffffffffffffffffffffffffffffffffffffffffffffff00168155809181526001602052604081209073ffffffffffffffffffffffffffffffffffffffff60018301541615611f7057808073ffffffffffffffffffffffffffffffffffffffff8454166004604051809481937f0572b0cc0000000000000000000000000000000000000000000000000000000083525af19283156104485782918394611f52575b50825b8251811015611e9b576118048186612222565b51151580611e65575b61181a575b6001016117f1565b9461186b73ffffffffffffffffffffffffffffffffffffffff61183d8886612222565b511673ffffffffffffffffffffffffffffffffffffffff845416906118628989612222565b51913091612570565b6118b473ffffffffffffffffffffffffffffffffffffffff61188d8886612222565b51166118a661189c8989612222565b5160055490612527565b80611e34575b503090612612565b73ffffffffffffffffffffffffffffffffffffffff6118d38886612222565b51600285015473ffffffffffffffffffffffffffffffffffffffff1691168114611e215760043560040135881015611df45760248860051b600435010135917fffffffffffffffffffffffffffffffffffffffffffffffffffffffffffffffbd60043536030183121561043d5767ffffffffffffffff6024846004350101351161043d5760043583016024810135360360449091011361043d5773ffffffffffffffffffffffffffffffffffffffff61198c8a88612222565b516003870154911691600435850160248101358101039173ffffffffffffffffffffffffffffffffffffffff166101408312611df05760e07fffffffffffffffffffffffffffffffffffffffffffffffffffffffffffffffe06119f56044896004350101611fc2565b940112611df05760405195611a0b60e088611fe3565b611a1b6064826004350101611fc2565b8752611a2d6084826004350101611fc2565b6020880152611a4260a4826004350101611fc2565b6040880152611a5760c4826004350101611fc2565b6060880152600435810160e4810135608089015261010481013560a089015261012481013560c089015267ffffffffffffffff6101449091013511611dec57611ab860043582016024810135810160449081019161014481013501016122ac565b5067ffffffffffffffff6101648260043501013511611dec57611af390600435016024810135810160449081019161016481013501016122ac565b9482608088015103611de1575b8473ffffffffffffffffffffffffffffffffffffffff88511603611db75773ffffffffffffffffffffffffffffffffffffffff60208801511603611d8d5773ffffffffffffffffffffffffffffffffffffffff60608701511603611d6357604093611b98611cf292731111111254eeb25477b68fb85ed929f73a96058273ffffffffffffffffffffffffffffffffffffffff966122f3565b611cc1611ba48b612272565b611bb087519182611fe3565b8b81527fffffffffffffffffffffffffffffffffffffffffffffffffffffffffffffffe0611bdd8d612272565b0136602083013760c0875198899788977f12aa3caf00000000000000000000000000000000000000000000000000000000895216600488015273ffffffffffffffffffffffffffffffffffffffff815116602488015273ffffffffffffffffffffffffffffffffffffffff602082015116604488015273ffffffffffffffffffffffffffffffffffffffff8982015116606488015273ffffffffffffffffffffffffffffffffffffffff6060820151166084880152608081015160a488015260a081015160c4880152015160e4860152610140610104860152610144850190612053565b907ffffffffffffffffffffffffffffffffffffffffffffffffffffffffffffffffc84830301610124850152612053565b038188731111111254eeb25477b68fb85ed929f73a9605825af1908115610e1b578591611d30575b50611d2790600192612236565b955b9050611812565b90506040813d604011611d5b575b81611d4b60409383611fe3565b81010312610af157516001611d1a565b3d9150611d3e565b60046040517fac71d77a000000000000000000000000000000000000000000000000000000008152fd5b60046040517fb8806c1d000000000000000000000000000000000000000000000000000000008152fd5b60046040517f84b1dde8000000000000000000000000000000000000000000000000000000008152fd5b826080880152611b00565b8a80fd5b8980fd5b6024867f4e487b710000000000000000000000000000000000000000000000000000000081526032600452fd5b50611e2e90600192612236565b95611d29565b611e5f907f0000000000000000000000000000000000000000000000000000000000000000836125c9565b886118ac565b5073ffffffffffffffffffffffffffffffffffffffff611e858285612222565b51168452600360205260ff60408520541661180d565b83868173ffffffffffffffffffffffffffffffffffffffff855416803b15610e265781906024604051809681937f81f5b6f40000000000000000000000000000000000000000000000000000000083528760048401525af1928315611f455781602094611f35575b547fffffffffffffffffffffffffffffffffffffffffffffffffffffffffffffff001660011790915550604051908152f35b611f3e91611fe3565b8381611f03565b50604051903d90823e3d90fd5b909350611f6991503d8084833e610e0b8183611fe3565b92856117ee565b60046040517ffada4a47000000000000000000000000000000000000000000000000000000008152fd5b807f37ed32e80000000000000000000000000000000000000000000000000000000060049252fd5b359073ffffffffffffffffffffffffffffffffffffffff8216820361045357565b90601f7fffffffffffffffffffffffffffffffffffffffffffffffffffffffffffffffe0910116810190811067ffffffffffffffff82111761202457604052565b7f4e487b7100000000000000000000000000000000000000000000000000000000600052604160045260246000fd5b919082519283825260005b84811061209d5750507fffffffffffffffffffffffffffffffffffffffffffffffffffffffffffffffe0601f8460006020809697860101520116010190565b60208183018101518483018201520161205e565b80548210156120c95760005260206000200190600090565b7f4e487b7100000000000000000000000000000000000000000000000000000000600052603260045260246000fd5b67ffffffffffffffff81116120245760051b60200190565b519073ffffffffffffffffffffffffffffffffffffffff8216820361045357565b919060408382031261045357825167ffffffffffffffff908181116104535784019082601f830112156104535781519161216a836120f8565b906121786040519283611fe3565b838252602093848084019160051b830101918683116104535785809101915b83831061220a5750505050948281015191821161045357019180601f840112156104535782516121c6816120f8565b936121d46040519586611fe3565b818552838086019260051b820101928311610453578301905b8282106121fb575050505090565b815181529083019083016121ed565b819061221584612110565b8152019101908590612197565b80518210156120c95760209160051b010190565b9190820180921161224357565b7f4e487b7100000000000000000000000000000000000000000000000000000000600052601160045260246000fd5b67ffffffffffffffff811161202457601f017fffffffffffffffffffffffffffffffffffffffffffffffffffffffffffffffe01660200190565b81601f82011215610453578035906122c382612272565b926122d16040519485611fe3565b8284526020838301011161045357816000926020809301838601378301015290565b90916040517fdd62ed3e00000000000000000000000000000000000000000000000000000000815230600482015260208160448173ffffffffffffffffffffffffffffffffffffffff808916602483015287165afa9081156123fe576000916123cd575b5010156123c95760446010600080936020956014527fffffffffffffffffffffffffffffffffffffffffffffffffffffffffffffffff6034526f095ea7b300000000000000000000000082525af13d156001600051141716156123bb576000603452565b633e3f8f736000526004601cfd5b5050565b906020823d82116123f6575b816123e660209383611fe3565b810103126101a457505138612357565b3d91506123d9565b6040513d6000823e3d90fd5b7fffffffffffffffffffffffffffffffffffffffffffffffffffffffffffffffff81146122435760010190565b9190820391821161224357565b6040517ff851a44000000000000000000000000000000000000000000000000000000000815273ffffffffffffffffffffffffffffffffffffffff90602081600481857f0000000000000000000000000000000000000000000000000000000000000000165afa9081156123fe576000916124ee575b501633036124c457565b60046040517fb73dc6ca000000000000000000000000000000000000000000000000000000008152fd5b906020823d821161251f575b8161250760209383611fe3565b810103126101a4575061251990612110565b386124ba565b3d91506124fa565b90807fffffffffffffffffffffffffffffffffffffffffffffffffffffffffffffffff048211810261256257670de0b6b3a764000091020490565b63bac65e5b6000526004601cfd5b601c600060649281946020966040519860605260405260601b602c526f23b872dd000000000000000000000000600c525af13d156001600051141716156125bb576000606052604052565b637939f4246000526004601cfd5b60109260209260145260345260446000938480936fa9059cbb00000000000000000000000082525af13d15600183511417161561260557603452565b6390b8ec1890526004601cfd5b602460106020939284936014526f70a082310000000000000000000000006000525afa601f3d1116602051029056fea164736f6c6343000811000a",
  "linkReferences": {},
  "deployedLinkReferences": {}
}